:020000040800F2
:10000000E82E0020099A0008010D0008030D0008E1
:10001000070D00080B0D00080F0D00080000000080
:10002000000000000000000000000000130D0008A8
:10003000150D000800000000170D0008190D00083C
:10004000239A0008239A0008239A0008239A00089C
:10005000239A0008239A00084D730008C97A000803
:100060000574000841720008239A0008239A0008CA
:10007000239A0008239A00084D880008CF8F0008B3
:10008000239A00084F860008239A0008239A000844
:10009000239A0008239A0008239A0008F3740008A2
:1000A000239A0008239A0008239A0008239A00083C
:1000B000239A0008239A0008239A0008239A00082C
:1000C000239A0008239A0008239A0008239A00081C
:1000D000239A00088381000837850008EF8700080D
:1000E00023760008239A0008239A0008239A000820
:1000F000239A0008239A0008239A0008239A0008EC
:10010000239A0008239A000879680008239A0008B7
:10011000BD8C0008239A0008F97D00084D280008CE
:10012000239A0008239A0008239A0008239A0008BB
:10013000239A0008239A0008239A0008239A0008AB
:10014000239A0008239A0008239A0008239A00089B
:10015000239A0008239A000899820008239A00082D
:10016000239A0008239A0008239A0008239A00087B
:10017000239A0008239A0008239A0008239A00086B
:10018000239A0008239A0008DFF80CD019F0B6F97A
:10019000004800479D010008E82E00204FF4A060B1
:1001A00009F044FCA82009F045FB01F04CFA00F0EE
:1001B000BDFE02F04DF903F01DFE4FF4E13008F0F2
:1001C000B1FA01F027FE01F009FB0FF0A8FA08F0E0
:1001D000C3FF09F05DF803F06FFEA82141F61F4050
:1001E00006F065F800214EF65F2003F0F7FB0021D2
:1001F0004EF65F2003F04EFC00214EF65F2003F028
:10020000A8FC00214EF65F2003F003FD4FF41650CA
:1002100008F031FC4FF4165008F066F8B0EE041AFE
:10022000F0EE000A9FEDF90AF94805F077FEB0EE0E
:10023000001AF7EE000A9FEDF70AF74805F06EFE88
:10024000532140F2E73006F0E3F90120F34908605A
:1002500002F089F901F0DEFDE7E3F14800680128CA
:1002600070D1F0480068012833D1EF4800680128B8
:1002700015D14FF4E1614FF47A6004F0B3FE04F05D
:1002800082F900F0A7FE4FF42F7140F6B83005F068
:1002900068FC6420E44908600220E0490860E24804
:1002A0000068022815D100F0A9FE4FF42F7140F626
:1002B000282005F021FB03F03FFF04F0D7F940F2BE
:1002C000DC5141F2883004F0AAFF00F08DFE00BF3F
:1002D000FEE7D4480068022834D1D34800680128DA
:1002E00015D14FF4E1614FF47A6004F07BFE03F026
:1002F00044FF4FF42F7140F6B83005F01AFA00F0C1
:1003000069FE6420C84908600220C4490860C648E4
:100310000068022816D100F071FE40F2523140F61A
:100320008C2005F050FB03F007FF04F0B3F840F217
:10033000DC5141F2883004F072FF00F055FE00BF3E
:10034000FEE7FFE7B648006802287CD1B64800689F
:10035000012811D14FF4487141F2883004F042FE77
:100360000120B24908600220AC49086040F6AC5157
:1003700040F6B83004F036FEAD484068012815D18B
:10038000AC48006890B904F0FEF84FF42F7140F6C5
:10039000B83005F0E6FB00F01DFE02209F49086022
:1003A0006420A14908600120A2490860A048406873
:1003B00001281FD19C48006802281BD100F01EFEB6
:1003C0004FF42F7140F6282005F096FA03F0B4FEA2
:1003D00004F04CF940F2DC5141F2883004F01FFF88
:1003E00040F2DC5141F2883004F019FF00F0FCFDCE
:1003F00000BFFEE78B484068012815D18D48006892
:1004000090B903F0BAFE4FF42F7140F6B83005F002
:1004100090F900F0DFFD02208049086064208249E5
:1004200008600120834908607E484068012821D186
:100430007D48006802281DD100F0E0FD4FF41671E0
:1004400040F68C2000E015E005F0BDFA03F074FEE4
:1004500004F020F840F2DC5141F2883004F0DFFE75
:1004600040F2DC5141F2883004F0D9FE00F0BCFDCE
:1004700000BFFEE76A48006803287DD16A4800682B
:10048000012816D100214FF4965004F03DFD0021C3
:1004900041F2A86004F038FD0220644908604FF47E
:1004A0002F6140F6B83004F09DFD4FF4FA705B49BF
:1004B00008605F488068012876D164205A49086046
:1004C00003F03AFE04F05FF800214FF4FA6005F003
:1004D00048FB03205549086040F69801084605F09E
:1004E000BEFB5348C068012840D103F025FE04F04C
:1004F00097FC40F2DC514FF4FA6004F0F7FE09E09B
:1005000000F068FD0220454908604748006802285D
:1005100000D100E0F4E700BF00F070FD40F63401C8
:100520004FF47A7004F069FF03F006FE04F0FCFA61
:100530004FF4FA6141F2883005F0FBF803F0FCFD5E
:1005400004F090FB4FF4FA7141F2707004F067FE12
:100550004FF4FA7141F2707004F061FE4FF4FA71D9
:1005600041F2707004F05BFE00F03EFD2D48C06863
:10057000012804D02B4800E0D6E0C068F0BB03F0AF
:10058000DBFD04F061FA40F2DC514FF4FA6004F054
:10059000DAFD0AE000F01EFD022020490860224832
:1005A0000068022801D101E046E0F3E700BF00F057
:1005B00025FD40F634014FF47A7004F0ECFF03F0AF
:1005C000BBFD03F0DAFD4FF4FA6141F2883005F02B
:1005D000B0F803F0B1FD04F045FB40F2DC5141F20C
:1005E000883004F01CFE40F2DC5141F2883004F007
:1005F00016FE40F2DC5141F2883000E003E004F0E6
:100600000EFE00F0F1FC00BFFEE700000000964384
:10061000700E00200000C843A80E0020CC0500206A
:10062000A004002094120020C8050020040000202F
:100630004411002074000020FC488068012803D089
:10064000FB48806800286FD1FA4800680228FAD178
:100650006420F949086003F06FFD03F08EFD4FF44C
:100660007A71084605F065F80320F249086040F603
:1006700074614FF47A7005F05CF8EC48C0680128AA
:1006800040D103F059FD03F0EBFD40F2DC514FF493
:10069000FA6004F02BFE09E000F09CFC0220E74920
:1006A0000860E5480068022800D100E0F4E700BFD8
:1006B00000F0A4FC40F634014FF47A7004F09DFE83
:1006C00003F03AFD04F05CF84FF4FA6141F288302F
:1006D00005F0C5FA03F030FD04F0D1F84FF4FA71DB
:1006E00041F2707004F09BFD4FF4FA7141F27070AA
:1006F00004F095FD4FF4FA7141F2707004F08FFD33
:1007000000F072FCCA48C068012802D0C748C0681F
:10071000F0BB03F011FD03F04DFE40F2DC514FF44D
:10072000FA6004F010FD0AE039E000F053FC02200A
:10073000C2490860C0480068022800D100E0F4E720
:1007400000BF00F05BFC40F634014FF47A7004F017
:10075000BBFE03F0F1FC04F004F94FF4FA6141F23E
:10076000883005F0FEF903F0E7FC04F088F84FF458
:10077000FA7141F2707004F052FD4FF4FA7141F2D7
:10078000707004F04CFD4FF4FA7141F2707000E0AB
:1007900003E004F044FD00F027FC00BFFEE7A8489A
:1007A0000068042872D1A4480068012816D1A54821
:1007B000006898B9002141F2A86004F0A5FB01206F
:1007C0009C49086002209D49086040F6AC5140F603
:1007D000B83004F007FC01209A490860944840684A
:1007E000012854D197480068012850D103F0CBFE6E
:1007F0004FF4E1614FF4C86005F07EF814E000208A
:1008000091490860022091490860DFED911A9FED3F
:10081000901ADFED8F0A9FED8E0A03F067FC8D487A
:100820000078012800D100E0E9E700BF01208649F7
:100830000860C821480005F094F9002186480AF0B4
:1008400087F9DFED831A9FED821ADFED810A9FEDB4
:10085000800A03F04BFC4FF47A7009F04DF84FF426
:100860007A7009F049F84FF47A7009F045F80121DF
:1008700079480AF06DF9002141F27C5005F071F9D8
:1008800000207649C1F8980200BFFEE73FE06848C3
:100890004068E0BB6B480068012854D103F06DFC50
:1008A0004FF4E1614FF4C86005F08DF8002066490F
:1008B000086014E000206449086002206349086071
:1008C000DFED631A9FED621ADFED610A9FED600AAA
:1008D00003F00CFC5F480078012800D100E0E9E754
:1008E00000BF012058490860C821480004F021FFDA
:1008F000002159480AF02CF9DFED551A9FED541AE2
:10090000DFED530A9FED520A03F0F0FB00E01AE01E
:100910004FF47A7008F0F0FF4FF47A7008F0ECFFB3
:100920004FF47A7008F0E8FF01214B480AF010F903
:10093000002141F27C5004F0FCFE00204749C1F840
:10094000980200BFFEE73E48006805286DD10220EE
:100950003E4908603F480078012803D03D480078B0
:10096000022816D100214FF4965004F0CDFA002150
:1009700041F2A86004F0C8FA02202E4908604FF442
:100980002F6140F6B83004F02DFB4FF4FA702B497C
:10099000086027488068012864D12E480078012823
:1009A00060D103F0F0FD08F09AFC01202C4908709A
:1009B0002649086040F2DC514FF47A6004F09CFF55
:1009C00040F2DC514FF47A6005F0CBF84FF47A71C5
:1009D000084605F05FF803201649086041F25C21E3
:1009E000002005F03CF91248C068012809D103F045
:1009F000A3FB04F015FA40F2DC514FF4FA6004F066
:100A000075FC0A48C06801280DD103F095FB04F07D
:100A10001BF840F2DC514FF4FA6004F094FB002024
:100A20000949091D086000BFFEE728E19412002073
:100A30004411002004000020C8050020CC0500203F
:100A4000A004002078000020940242428000002090
:100A5000000000007D000020001400400000424221
:100A60007C0000209D48806801285BD19C4800786C
:100A7000022857D164209B49086003F05DFB03F016
:100A800082FD00214FF4FA6005F06BF808F027FCB6
:100A90000120954908709549086003209449086031
:100AA00040F69801084605F0DAF88C48C06801283D
:100AB00018D103F041FB04F0B3F940F2DC514FF4DC
:100AC000FA6004F013FC09E000F084FA022089497E
:100AD000086084480068022800D100E0F4E700BF05
:100AE00000F08CFA8448C068012819D103F024FB77
:100AF00003F0AAFF40F2DC514FF4FA6004F023FB4C
:100B000000207E49086007E002207A4908607548A5
:100B10000068022800D100E0F6E700BF00F06EFA9E
:100B200000BFFEE774488068012802D06B488068E7
:100B300090BB6B48007801285DD16D4800680228A1
:100B400059D164206749086003F0F6FA03F015FBF9
:100B50004FF47A71084604F0ECFD08F0C0FB012068
:100B6000614908706149086003206149086040F6E6
:100B700074614FF47A7004F0DCFD5F48C0680128AE
:100B80001BD103F0D9FA03F06BFB40F2DC514FF4B8
:100B9000FA6004F0ABFB0AE02DE000F01BFA022043
:100BA000544908604F480068022800D100E0F4E78B
:100BB00000BF00F023FA00BFFEE74848C0680128E4
:100BC00019D103F0B9FA03F0F5FB40F2DC514FF410
:100BD000FA6004F0B8FA00204849086007E00220F3
:100BE000444908603F480068022800D100E0F6E769
:100BF00000BF00BFFEE740488068012802D03748A8
:100C00008068E0BB36480078022865D13848006823
:100C1000022861D103F0B1FA08F061FB01203249EA
:100C200008703249086040F2DC514FF47A6004F0F9
:100C3000CAFE40F2DC514FF47A6004F07AFD4FF4C2
:100C40007A71084604F00EFD03202949086040F639
:100C500074614FF47A7004F06CFD2748C068012875
:100C600002D01E48C068C8B903F066FA03F0F8FA6B
:100C700040F2DC514FF4FA6004F038FB0AE02BE05C
:100C800000F0A8F902201B490860164800680228F5
:100C900000D100E0F4E700BF00F0B0F90F48C068F1
:100CA000012817D103F048FA03F084FB40F2DC512D
:100CB0004FF4FA6004F047FA00201049086007E09A
:100CC00002200C49086007480068022800D100E0B3
:100CD000F6E700BF00BFFEE7FFF7BFBA44110020F0
:100CE0007D000020C80500207C000020800000203E
:100CF00004000020CC0500209412002098024242FB
:100D0000704700BFFEE700BFFEE700BFFEE700BF81
:100D1000FEE7704770477047704700000CB5002031
:100D2000019000907648006840F480307449086073
:100D300000BF7348006800F4003000900198401C28
:100D40000190009818B90198B0F5A04FF1D16C4806
:100D5000006800F4003010B10120009001E0002094
:100D600000900098012846D165484030006840F066
:100D700080506349403108606248006840F4404058
:100D8000604908605E48083000685D4908310860C5
:100D90000846006840F4004008600846006840F4D7
:100DA000A05008605848091F0860081F006840F0FC
:100DB0008070091F086000BF5148006800F0007093
:100DC0000028F9D040F20570504908604C480830BE
:100DD000006820F003004A490831086008460068AE
:100DE00040F00200086000BF45480830006800F08D
:100DF0000C000828F8D10CBD10B54548006840F437
:100E00007000434908603E48006840F001003C49DA
:100E1000086000203A4908310860394800683D49B7
:100E20000840374908603C48091D0860081F0068F1
:100E300020F48020091F0860002031490C3108602F
:100E4000FFF76CFF4FF0006031498039086010BD3A
:100E500070B500200022022300240221284D08350D
:100E60002D6805F00C0020B1042806D0082834D1E4
:100E700007E02A4D2A4E356033E02A4D284E356072
:100E80002FE01F4D2D1D2D68C5F380541C4D2D1DC9
:100E90002D6805F03F0154B1224DB5FBF1F5184E18
:100EA000361D3668C6F3881605FB06F209E01B4DB1
:100EB000B5FBF1F5124E361D3668C6F3881605FBF4
:100EC00006F20F4D2D1D2D68C5F301456D1C6B00FD
:100ED000B2FBF3F5124E356003E0104D104E356055
:100EE00000BF00BF064D08352D68C5F303150E4E33
:100EF000705D0B4D2D68C540094E356070BD00001A
:100F0000003802400070004008544007003C024096
:100F100088ED00E0FFFFF6FE103000240024F4000E
:100F20008400002000127A00880000201CB50121F6
:100F3000042009F00FF942F23000009001208DF8F2
:100F4000040000208DF8060003208DF80500012024
:100F50008DF8070069462E4808F05EFE42F2300127
:100F60002B4808F0D5FE0121102009F0F3F843F6D4
:100F70006000009001208DF8040000208DF806002C
:100F800003208DF8050001208DF8070069462148EF
:100F900008F042FE43F660011E4808F0B9FE012148
:100FA000084609F0D7F80420009001208DF80400CD
:100FB00000208DF8060003208DF8050001208DF833
:100FC00007006946144808F027FE0421124808F07B
:100FD0009FFE1CBD00201149086001201049C1F886
:100FE000B00210490860704701200C4908600C49A4
:100FF000C1F8B00200200B49086070470120074982
:1010000008600749C1F8B00206490860704700004F
:1010100000080240001002400000024088024042E6
:1010200000004242B402424270B5044614B10120AD
:10103000FE490870FD480078002862D00121FC4874
:1010400008F04CFE28B30221F94808F047FE00B32F
:101050000421F74808F042FED8B10821F44808F00E
:101060003DFEB0B11021F24808F038FE88B1802171
:10107000EF4808F033FE08B9012500E00025012102
:10108000EC4808F02BFE08B9012000E000200543E1
:101090007DB30A2008F030FC0020E44908700121EB
:1010A000E34808F01BFE08B9012070BD0221E048AA
:1010B00008F014FE08B90220F7E70421DC4808F024
:1010C0000DFE08B90320F0E70821D94808F006FE14
:1010D00008B90420E9E71021D54808F0FFFD08B958
:1010E0000520E2E78021D24808F0F8FD10B906207B
:1010F000DBE706E00121CF4808F0F0FD68BB0720E0
:10110000D3E70121CA4808F0E9FD012825D10221D1
:10111000C74808F0E3FD01281FD10421C44808F0A6
:10112000DDFD012819D10821C14808F0D7FD0128AB
:1011300013D11021BE4808F0D1FD01280DD1802126
:10114000BB4808F0CBFD012807D10221B84808F0C0
:10115000C5FD012801D1B54908700020A5E708B5F3
:101160006CE2B5480088612819D100221146102090
:1011700001F030F901220021202001F02BF910208C
:101180000323012201460090302000F031FF00F0DF
:1011900002FE0120A94908607A20A7490880A648D4
:1011A0000088622819D100221146102001F012F99E
:1011B00001220021202001F00DF91020032302223A
:1011C00001460090302000F013FF00F0E4FD022003
:1011D0009A4908607A2098490880974800886328CF
:1011E00019D100221146102001F0F4F8012200214B
:1011F000202001F0EFF8102003231A46014600904A
:10120000302000F0F5FE00F0C6FD03208B49086099
:101210007A208949088088480088642819D10022EA
:101220001146102001F0D6F801220021202001F003
:10123000D1F810200323042201460090302000F052
:10124000D7FE00F0A8FD04207C4908607A207A4986
:10125000088079480088652823D102221021084699
:1012600001F0B8F803221021202001F0B3F8082281
:101270001021302001F0AEF809221021402001F0A9
:10128000A9F810200323012201460090502000F00D
:10129000AFFE00F080FD0520684908607A206649AD
:1012A000088065480088662823D10222102108465C
:1012B00001F090F803221021202001F08BF8082281
:1012C0001021302001F086F809221021402001F081
:1012D00081F810200323022201460090502000F0E4
:1012E00087FE00F058FD0620544908607A205249D4
:1012F000088051480088672823D10222102108461F
:1013000001F068F803221021202001F063F8082280
:101310001021302001F05EF809221021402001F058
:1013200059F8102003231A4601460090502000F07F
:101330005FFE00F030FD0720404908607A203E49FA
:1013400008803D480088682823D1022210210846E1
:1013500001F040F803221021202001F03BF8082280
:101360001021302001F036F809221021402001F030
:1013700031F810200323042201460090502000F091
:1013800037FE00F008FD08202C4908607A202A4921
:10139000088029480088692823D1042210210846A2
:1013A00001F018F805221021202001F013F808227E
:1013B0001021302001F00EF809221021402001F008
:1013C00009F810200323012201460090502000F06C
:1013D0000FFE00F0E0FC0920184908607A20164949
:1013E0000880154800886A282ED10422102108465A
:1013F00000F0F0FF05221021202000F0EBFF082272
:101400001021302000F0E6FF09221021402000F0DA
:10141000E1FF10200323022201460090502000F03B
:10142000E7FD00F0B8FC0A20044909E09C00002018
:10143000001002400008024006080020980000202A
:1014400008607A2094490880934800886B2823D14B
:1014500004221021084600F0BDFF052210212020A3
:1014600000F0B8FF08221021302000F0B3FF09225D
:101470001021402000F0AEFF102003231A46014641
:101480000090502000F0B4FD00F085FC0B20834953
:1014900008607A20804908807F4800886C2823D122
:1014A00004221021084600F095FF0522102120207B
:1014B00000F090FF08221021302000F08BFF09225D
:1014C0001021402000F086FF102003230422014653
:1014D0000090502000F08CFD00F05DFC0C206F4966
:1014E00008607A206C4908806B4800886D2823D1F9
:1014F00006221021084600F06DFF0722102120204F
:1015000000F068FF08221021302000F063FF09225C
:101510001021402000F05EFF10200323012201462D
:101520000090502000F064FD00F035FC0D205B4978
:1015300008607A2058490880574800886E2823D1CF
:1015400006221021084600F045FF07221021202026
:1015500000F040FF08221021302000F03BFF09225C
:101560001021402000F036FF102003230222014604
:101570000090502000F03CFD00F00DFC0E2047498B
:1015800008607A2044490880434800886F2823D1A6
:1015900006221021084600F01DFF072210212020FE
:1015A00000F018FF08221021302000F013FF09225C
:1015B0001021402000F00EFF102003231A460146A0
:1015C0000090502000F014FD00F0E5FB0F2033499F
:1015D00008607A20304908802F480088702823D17D
:1015E00006221021084600F0F5FE072210212020D7
:1015F00000F0F0FE08221021302000F0EBFE09225E
:101600001021402000F0E6FE1020032304220146B2
:101610000090502000F0ECFC00F0BDFB10201F49B2
:1016200008607A201C4908800020FFF7FDFC1C4957
:10163000086008460068062800D100E091E500BF78
:1016400000F0E8FB08BD1CB50121102008F082FD68
:101650009F20009000208DF8040003208DF80500E5
:1016600001208DF8070069460E4808F0D5FA0121DF
:10167000042008F06FFD0120009000208DF8040088
:1016800003208DF8050001208DF807006946064803
:1016900008F0C2FA1CBD00000608002098000020D7
:1016A0001C000020001002400008024070B50446F3
:1016B0000D46164600F02FFA002141EA4401C8B257
:1016C00000F0D9FA00F068FA18B100F044FA0120ED
:1016D00070BD284600F0CFFA00F05EFA304600F008
:1016E000CAFA00F059FA18B100F035FA0120EFE714
:1016F00000F031FA0020EBE770B504460D4600F02B
:101700000AFA002141EA4401C8B200F0B4FA00F03C
:1017100043FA284600F0AFFA00F03EFA00F0FBF979
:10172000012101EB4401C8B200F0A5FA00F034FA3F
:10173000002000F0CEFA064600F00DFA304670BDEB
:1017400070B504460025BC2C01DB012510E0622C9D
:1017500001DB02250CE02A2C01DB032508E0142C18
:1017600001DB042504E00A2C01DB052500E0062549
:101770002A461A216820FFF799FF70BD70B504460C
:10178000B4F57A7F01DD4FF47A74042C00DA042476
:101790004FF47A7090FBF4F0401EC5B22A4619212E
:1017A0006820FFF783FF0546264604EBD671C1F398
:1017B0004F00FFF7C5FF70BD10B50446E006020EEE
:1017C0001C216820FFF772FF10BD10B50446E0062B
:1017D000020E1B216820FFF769FF10BD10B5002421
:1017E00000F07CF980226B216820FFF75FFF642006
:1017F00008F082F800226B216820FFF757FF0320D2
:10180000FFF7E3FF0020FFF7D7FF3220FFF7B6FF17
:10181000002238216820FFF749FF00226A21682052
:10182000FFF744FF002223216820FFF73FFF8222B9
:1018300037216820FFF73AFF75216820FFF75CFF2A
:101840000446712C01D0732C0DD101226B2168202C
:10185000FFF72CFF00226C216820FFF727FF3220C2
:10186000FFF78CFF01E0012010BD00210C20FFF7E5
:1018700043FF0446482C05D111220A210C20FFF712
:1018800015FF01E00120EFE70020EDE72DE9F04131
:1018900006460F4614461D4600F03DF9002141EA78
:1018A0004601C8B200F0E7F900F076F920B100F087
:1018B00052F90120BDE8F081384600F0DCF900F073
:1018C0006BF900F028F9012101EB4601C8B200F0E4
:1018D000D2F900F061F90DE0012C04D1002000F0F4
:1018E000F8F9287003E0012000F0F3F92870601E79
:1018F000C4B26D1C002CEFD100F02DF90020D9E707
:1019000010B52DED088B82B001AB02224121682079
:10191000FFF7BCFF9DF805009DF8041040EA012088
:1019200004B2204617F0ACFB41EC1B0B9FED660B9D
:1019300053EC102B17F0FAFA41EC1A0B9FED640BE5
:1019400053EC102B17F0D9F941EC190B17F052FC9E
:1019500008EE100A9FED600A28EE000ABDEEC00AEC
:1019600010EE100A00B202B0BDEC088B10BD2DE9DC
:10197000FC4104460D4616466B460622432168206C
:10198000FFF784FF0746BFB99DF801009DF80010DE
:1019900040EA012000B220809DF803009DF802106B
:1019A00040EA012000B228809DF805009DF804104F
:1019B00040EA012000B230803846BDE8FC812DE9C4
:1019C000FC4104460D4616466B4606223B21682024
:1019D000FFF75CFF0746BFB99DF801009DF80010B6
:1019E00040EA012000B220809DF803009DF802101B
:1019F00040EA012000B228809DF805009DF80410FF
:101A000040EA012000B230803846BDE8FC812DE973
:101A1000FC4104460D4616466B46062203210C2067
:101A2000FFF734FF0746BFB99DF800009DF801108D
:101A300040EA012000B220809DF802009DF80310CA
:101A400040EA012000B228809DF804009DF80510AE
:101A500040EA012000B2308011220A210C20FFF759
:101A600025FE3846BDE8FC812DE9F04105460E46CD
:101A70001746984600F04FF8002141EA4501C8B2E8
:101A800000F0F9F800F088F820B100F064F80120C7
:101A9000BDE8F081304600F0EEF800F07DF800245B
:101AA0000CE018F8040000F0E6F800F075F818B142
:101AB00000F051F80120EBE7601CC4B2BC42F0DB3F
:101AC00000F049F80020E3E752B81E85EBDD7440D2
:101AD00000000000000035400000C8421CB5012194
:101AE000102008F037FB4FF44060009000208DF884
:101AF000060001208DF807008DF8040002208DF803
:101B0000050069468B4808F087F84FF4C0518948B2
:101B100008F0FEF81CBD10B58648006820F44000AF
:101B2000844908600846006840F48000086001208D
:101B3000814908608149C1F8A802042007F094FE99
:101B400000207D490860042007F08EFE00207B49BC
:101B5000C1F8A80210BD10B57648006820F4400016
:101B6000744908600846006840F48000086000205E
:101B70007149091F08607149C1F8AC02042007F0DF
:101B800073FE01206C49091F08606C49C1F8AC0262
:101B9000042007F069FE10BD10B5002465480068F8
:101BA00020F440006349086008460068086001208E
:101BB0006149086007F058FE01206049C1F8A80299
:101BC00007F052FE07E0601CC4B2FA2C03DDFFF7F9
:101BD000C2FF012010BD5848803800680028F2D1AB
:101BE0005549091F086000BFF4E710B500205249AD
:101BF000091F08604F48006820F440004D49086004
:101C00000846006840F48000086000204B49C1F895
:101C1000AC02022007F028FE01204749091F086096
:101C2000022007F021FE00204449C1F8A80210BD9F
:101C300010B500204049091F08603E48006820F4A4
:101C400040003C4908600846006840F48000086095
:101C500001203A49C1F8AC02022007F005FE01203C
:101C60003549091F0860022007F0FEFD00203349B6
:101C7000C1F8A80210BD70B504462E48006820F4D3
:101C800040002C4908600846006840F48000086065
:101C900000202949091F0860002517E0E0092649AE
:101CA00008606006040E022007F0DEFD01202349D3
:101CB000C1F8A802022007F0D7FD00201E49091F25
:101CC0000860022007F0D0FD681CC5B2082DE5DBD6
:101CD00070BD70B5054600241648006820F4400029
:101CE00014490860084600680860002617E00020D4
:101CF0001149091F0860022007F0B6FD01200F49B5
:101D0000C1F8A8026006040E0B488038006808B1CC
:101D1000601CC4B2012007F0A7FD701CC6B2082EDB
:101D2000E5DB15B9FFF784FF01E0FFF75EFF204612
:101D300070BD000000100240AC024242000042426E
:101D400010B5FC4B19600023FB4CC4F8B8320022DC
:101D500017E00023F74C241D236000F0800323B11B
:101D60000123F44C0C34236003E00023F14C0C34C9
:101D700023600123EF4C241D23604306180E531CDF
:101D8000DAB2082AE5DB0123EA4C08342360EA4C86
:101D9000C4F8B03210BD30B500241CE004F1B0012D
:101DA000C8B20021FFF7CCFF00210846FFF7C8FFAB
:101DB00000211020FFF7C4FF002508E0DF4901EBF8
:101DC000C501085D0121FFF7BBFF681CC5B2802D6E
:101DD000F4DB601CC4B2082CE0DB30BD00B5002190
:101DE0008D20FFF7ADFF00211420FFF7A9FF002190
:101DF000AF20FFF7A5FF00BD00B500218D20FFF744
:101E00009FFF00211020FFF79BFF0021AE20FFF76E
:101E100097FF00BD30B500240CE0002506E000204F
:101E2000C64901EBC5010855681CC5B2802DF6DB1B
:101E3000601CC4B2082CF0DBFFF7ADFF30BDF0B57D
:101E4000144600267F2801DC3F2900DDF0BD0B464B
:101E5000CF1701EB5777FF10C7F10707FAB2CF177B
:101E600001EB5777FF10A1EBC707FDB2C5F10707DC
:101E70000123BB40DEB24CB1B04B03EBC0039B5C13
:101E80003343AE4F07EBC007BB5408E0AB4B03EB4B
:101E9000C0039B5CB343A94F07EBC007BB5400BF13
:101EA000D4E72DE9F04706460F4690469946DDF8FF
:101EB00020A034460CE03D4606E052462946204626
:101EC000FFF7BDFF681CC5B24D45F6DD601CC4B20E
:101ED0004445F0DDFFF75FFFBDE8F0872DE9F84FDF
:101EE00080460F4616461C46BA462046E31704EBCA
:101EF0005373DB1021464FEAE47C04EB5C7C4FEA31
:101F0000EC0CA4EBCC0CBCF1000F02D04FF0010C98
:101F100001E04FF0000C6344224604EBD27C4FEA10
:101F20006C0C03FB0CF303F0FF0BA6F12000C6B210
:101F300000254EE00C2C07D106EB4600804901EB52
:101F40008000405D009013E0102C05D17D4800EB2F
:101F50000610405D00900BE0182C07D106EBC60080
:101F6000794901EB8000405D009001E0BDE8F88F09
:101F70004FF0000927E0009800F0800028B13946B2
:101F800040460A9AFFF75BFF09E00A9808B901206A
:101F900000E00020024639464046FFF750FF009817
:101FA0004006000E0090781CC7B2A7EB0A00A042C2
:101FB00005D1574608F1010000F0FF0806E009F1DD
:101FC000010000F0FF09B9F1080FD4DB00BF681C65
:101FD000C5B25D45AEDB00BFC8E710B502460120C3
:101FE00000E050430B1EA1F10104E1B2F9D110BD94
:101FF0002DE9FF4F81B0074691461E460E9D4FF0DA
:10200000000A002439E0301B401EC1B20A20FFF74D
:10201000E4FFB9FBF0F00A21B0FBF1F201FB12087A
:10202000BAF1000F16D1701EA04213DDB8F1000FF7
:102030000ED10120AB4605EBDB71491001FB0471A9
:102040000090C8B22B4620220299FFF747FF12E00A
:102050004FF0010A0120AB4605EBDB71491001FB93
:1020600004710090C8B208F13001CAB22B4602993F
:10207000FFF734FF00BF601CC4B2B442C3DB05B03D
:10208000BDE8F08FF8B506460F4615461C4621E020
:1020900004EBD4714910C1F18001B14202DA00268B
:1020A0003819C7B2C4F14000B84204DA002006462D
:1020B0000746FFF7AFFE012000902A7823463946F5
:1020C0003046FFF70BFF204604EBD07106EB6101B1
:1020D000CEB26D1C28787E2802DC28782028D7DA3A
:1020E000F8BD2DE9F84104460F4615469846079E6F
:1020F000002D0EDA334615A239462046FFF7C2FFFF
:10210000611DC8B243466A4239460096FFF770FF28
:102110000DE033460EA239462046FFF7B3FF611D9E
:10212000C8B243462A4639460096FFF761FFBDE82C
:10213000F8810000B0824042008040421009002037
:10214000C8C301083CC801082CCE01082D000000BE
:10215000200000002DE9FF4F2DED020B82B08046DC
:1021600017461E46119C4FF00009002001900025E3
:1021700008F1070000F0FF09204604EBD071491078
:1021800001FB0791491CCDB204EBD07105EB610155
:10219000C9B20191B5EEC00AF1EE10FA0FD2234692
:1021A000AFF2580240460599FFF76CFFF1EE400A86
:1021B0009FEDFC1A60EE810AB0EE600A0CE0234647
:1021C000AFF2740240460599FFF75CFFDFEDF50AB8
:1021D00060EE200AB0EE600ADFEDF20A80EE201A0F
:1021E000FCEEC10A10EE90AA3B46524600944846C7
:1021F0000599FFF7FDFE2346EBA228460599FFF758
:1022000041FF012E04D0022E16D0032E13D15CE024
:10221000FDEEC00A10EE900A642190FBF1F00A2155
:1022200090FBF1F201FB120A3346524600940599E5
:102230000198FFF7DDFEC9E0FDEEC00A10EE900A3E
:102240000A2190FBF1F0642190FBF1F201FB1200F6
:102250000A2826DAA24604EBDA7105EB6101C8B25E
:102260000123002200940599FFF7C2FEFDEEC00A8B
:1022700010EE900A0A2190FBF1F0642190FBF1F23C
:1022800001FB120B04EBDA714910022202FB01512F
:10229000C8B2711ECBB25A4600940599FFF7A8FE4A
:1022A00012E0FDEEC00A10EE900A0A2190FBF1F058
:1022B000642190FBF1F201FB120A3346524600946E
:1022C00005990198FFF794FE80E0FDEEC00A10EE3C
:1022D000900A4FF47A7190FBF1F201FB12000A2888
:1022E00031DAA24604EBDA7105EB6101C8B20123D1
:1022F000002200940599FFF77BFE04EBDA71491088
:10230000022202FB0151C8B2012300220094059968
:10231000FFF76EFEFDEEC00A10EE900A4FF47A71E0
:1023200090FBF1F201FB120B04EBDA71491003226E
:1023300002FB0151C8B2B11ECBB25A4600940599B6
:10234000FFF756FE41E0FDEEC00A10EE900A4FF492
:102350007A7190FBF1F201FB1200642824DAA246A4
:1023600004EBDA7105EB6101C8B20123002200948D
:102370000599FFF73DFEFDEEC00A10EE900A4FF4FE
:102380007A7190FBF1F201FB120B04EBDA71491048
:10239000022202FB0151C8B2711ECBB25A46009410
:1023A0000599FFF725FE10E0FDEEC00A10EE900A39
:1023B0004FF47A7190FBF1F201FB120A3346524658
:1023C000009405990198FFF713FE00BF00BF08B005
:1023D000BDE8F08F2DE9F84F06460C461746A24699
:1023E00020200090714800EB471B00252BE01BF8D4
:1023F00005804FF0000920E008F0800028B101229C
:1024000021463046FFF71BFD04E0002221463046FE
:10241000FFF715FD4FEA48604FEA1068601CC4B230
:10242000A4EB0A00102804D10AF0FF04701CC6B205
:1024300006E009F1010000F0FF09B9F1080FDBDB4C
:1024400000BF681CC5B200988542D0DBBDE8F88F9C
:102450001CB50121022007F07DFE01208DF804004B
:1024600000208DF8060003208DF8050001208DF86E
:1024700007004FF47040009069464D4807F0CCFBD0
:1024800001204C4908604C49C1F8BC024949091D6A
:1024900008604949C1F8B0020021AE20FFF750FCA6
:1024A0000021D520FFF74CFC00218020FFF748FCDD
:1024B0000021A820FFF744FC00213F20FFF740FC4B
:1024C0000021D320FFF73CFC00210846FFF738FC31
:1024D00000214020FFF734FC00218D20FFF730FC65
:1024E00000211420FFF72CFC00212020FFF728FCFE
:1024F00000210220FFF724FC0021A120FFF720FC8F
:102500000021C020FFF71CFC0021DA20FFF718FC97
:1025100000211220FFF714FC00218120FFF710FC9E
:102520000021EF20FFF70CFC0021D920FFF708FC69
:102530000021F120FFF704FC0021DB20FFF700FC65
:1025400000213020FFF7FCFB0021A420FFF7F8FB5F
:102550000021A620FFF7F4FB0021AF20FFF7F0FBDE
:10256000FFF758FC1CBD08B588E00020FEF75CFDB5
:102570001249086008460068012823D10C20032373
:102580001A46B7EE000A002100900846FFF7E2FD68
:10259000FFF701FC01200A490860642007F0ACF94C
:1025A0006DE0000000007A442E000000A000002032
:1025B00000040240B4824042008040421C000020DF
:1025C000A00400202F480068022812D10C20032309
:1025D0001A46B0EE000A002100900846FFF7BAFD47
:1025E000FFF7D9FB022028490860642007F084F92E
:1025F00045E024480068032812D10C2003231A4622
:10260000B0EE080A002100900846FFF7A3FDFFF78F
:10261000C2FB03201C490860642007F06DF92EE01E
:1026200018480068042812D10C2003231A46B1EE82
:10263000000A002100900846FFF78CFDFFF7ABFB76
:10264000042011490860642007F056F917E00D488E
:102650000068052812D10C2003231A46B1EE040AA3
:10266000002100900846FFF775FDFFF794FB052059
:1026700005490860642007F03FF900E075E700BFF6
:1026800008BD00001C000020A0040020B4EEC10A18
:10269000F1EE10FA01DDB0EE410AB4EEE00AF1EE1F
:1026A00010FA01D2B0EE600A704710B501F0E4FBF9
:1026B0004FF40041FE4807F011FBE8B94FF48041A8
:1026C000FB4807F00BFBB8B90821FA4807F006FBF6
:1026D000012811D14103F64807F000FB60B9002042
:1026E000F5490860F5490860F5490860F549086052
:1026F000F5490860F54908604FF40041EC4807F0DF
:10270000EDFAC8B94FF48041E94807F0E7FA98B903
:102710000821E84807F0E2FA70B94FF40051E448A4
:1027200007F0DCFA40B90020E3490860E34908609B
:10273000E4490860E54908604FF40041DC4807F0CF
:10274000CDFA012820D18103D94807F0C7FA012822
:102750001AD10821D74807F0C1FA012814D1410342
:10276000D34807F0BBFA01280ED10221D84807F060
:10277000B5FA48B90020D0490860D0490860D1496D
:102780000860D249086060E04FF48041C84807F013
:10279000A5FA012811D10821C64807F09FFA60B9AF
:1027A0004FF40051C24807F099FA30B90320C249EA
:1027B00008600420C549086047E04FF48041BC48E8
:1027C00007F08CFA90B90821BA4807F087FA68B97F
:1027D0004FF40051B64807F081FA012806D10420D1
:1027E000B54908604042B94908602EE04FF4804185
:1027F000AF4807F073FA88B90821AE4807F06EFABF
:1028000060B94FF40051AA4807F068FA30B90420C3
:10281000A94908600020AD49086016E04FF48041E6
:10282000A34807F05BFA80B90821A24807F056FADE
:1028300058B94FF400519E4807F050FA28B90420C7
:102840009D4908600020A149086010BD08B501211C
:10285000A04808F0ACFD01287ED19F480068401CCC
:102860009D4908609D480068401C9C4908609C4840
:102870000068401C9A4908609A480068401C9949C1
:10288000086099480068401C9749086097480068AC
:10289000401C9649086096480068401C94490860AE
:1028A0008E48006802287DD392480068642809D1C8
:1028B000FFEE001ABFEE001AFFEE000ABFEE000A9C
:1028C00001F014FC8B480068652809D1DFED8A1AF5
:1028D0009FED891ADFED880A9FED870A01F006FC5B
:1028E00084480068DC282DD184480068764909684E
:1028F000084402EE100AB8EEC22AF0EE421A7F48EF
:10290000006870490968084402EE100AB8EEC22A4D
:10291000B0EE421A7948006869490968084402EE35
:10292000100AB8EEC22AF0EE420A74480068634901
:102930000968084402EE100AB8EEC22AB0EE420A54
:1029400001F0D4FB6B48006814287DD16C4890EDF1
:10295000000AF8EEC00A00E0FEE36A4890ED000AC3
:10296000B8EEC00A684803F0F5F96849086068489D
:1029700090ED000AF8EEC00A624890ED000AB8EE49
:10298000C00A614803F0E6F962490860624890EDC8
:10299000000AF8EEC00A5B4890ED000AB8EEC00AE3
:1029A000594800E0FEE303F0D5F95C4908605C4853
:1029B00090ED000AF8EEC00A524890ED000AB8EE19
:1029C000C00A514803F0C6F9564908605648D0ED90
:1029D000000A9FED490A554803F0CFFA54490860B0
:1029E000464800683849096808445149096808445C
:1029F0004C490968401A02EE100AB8EEC22AF0EEFD
:102A0000421A3E4800682F49096808444849096845
:102A1000084442490968401A02EE100AB8EEC22A78
:102A2000B0EE421A35480068254909680844404913
:102A30000968401A37490968401A02EE100AB8EED0
:102A4000C22AF0EE420A00E012E02C4800681B495E
:102A50000968084436490968401A2C490968401A2F
:102A600002EE100AB8EEC22AB0EE420A01F03EFBB6
:102A70002048006815287CD1214890ED000AF8EE26
:102A8000C00A204890ED000AB8EEC00A1E4803F0C4
:102A900061F91E4908601E4890ED000AF8EEC00A70
:102AA000184890ED000AB8EEC00A174842E000004E
:102AB00000100240000002400C050020B405002078
:102AC000B8050020BC050020C0050020B00500208E
:102AD0000008024000140040E8050020EC0500203A
:102AE000F0050020F4050020F8050020FC0500207A
:102AF000000600208C05002000000000D00500200A
:102B000014060020E4050020900D0020D4050020CC
:102B100018060020D80500201C060020DC05002037
:102B200020060020E0050020BC040020700E0020DC
:102B3000C405002003F00EF9FE490860FE4890ED40
:102B4000000AF8EEC00AFD4890ED000AB8EEC00A8F
:102B5000FB4803F0FFF8FB490860FB4890ED000AD2
:102B6000F8EEC00AF54890ED000AB8EEC00AF44845
:102B700000E04DE003F0EEF8F4490860F448006826
:102B8000404200EE900AF8EEE00AB0EE600AF1482A
:102B9000D0ED000AF04803F0F0F9F0490860F04881
:102BA000006809680844E9490968401A02EE100AF9
:102BB000B8EEC22AF0EE421AE9480068E74909680F
:102BC0000844E0490968401A02EE100AB8EEC22A29
:102BD000B0EE421AE2480068E0490968401AD54957
:102BE0000968401A02EE100AB8EEC22AF0EE420A54
:102BF000DB480068D9490968401ADA490968401A6F
:102C000002EE100AB8EEC22AB0EE420A01F06EFAE5
:102C1000D548006816287DD1D44890ED000AF8EE1A
:102C2000C00AC64890ED000AB8EEC00AC44803F0D6
:102C300091F8CC490860CE4890ED000AF8EEC00A41
:102C4000BE4890ED000AB8EEC00ABD4803F082F815
:102C5000B8490860B84890ED000AF8EEC00AB748D5
:102C600090ED000AB8EEC00AB54803F073F8B54914
:102C70000860B54890ED000AF8EEC00AAF4890ED44
:102C8000000AB8EEC00AAE4803F064F8AF49086025
:102C9000AF480068C0F15A0000EE900AF8EEE00A72
:102CA000B0EE600AAB48D0ED000AAB4803F065F91E
:102CB000AA490860AA480068AE4909680844A749BB
:102CC00009680844A1490968401A02EE100AB8EEE2
:102CD000C22AF0EE421AA2480068A74909680844CF
:102CE0009E490968084497490968401A02EE100A8B
:102CF000B8EEC22AB0EE421A994800689F490968A6
:102D0000084496490968401A8A490968401A02EE3F
:102D1000100A00E016E0B8EEC22AF0EE420A90482F
:102D200000689749096808448C490968401A8D4928
:102D30000968401A02EE100AB8EEC22AB0EE420A42
:102D400001F0D4F98848006817287CD1874890EDB5
:102D5000000AF8EEC00A794890ED000AB8EEC00A01
:102D6000774802F0F7FF7F490860814890ED000A3C
:102D7000F8EEC00A714890ED000AB8EEC00A70483B
:102D800002F0E8FF6B4908606B4890ED000AF8EE2E
:102D9000C00A6A4890ED000AB8EEC00A684802F01E
:102DA000D9FF68490860684890ED000AF8EEC00A4B
:102DB000624890ED000AB8EEC00A614802F0CAFF0E
:102DC00062490860624800686FF05901081A00EE15
:102DD000900AF8EEE00AB0EE600A5E48D0ED000A14
:102DE0005D4803F0CAF85D4908605D4800686149C4
:102DF0000968084459490968084454490968401A4F
:102E000002EE100AB8EEC22AF0EE421A54480068E8
:102E100059490968084451490968084449490968F9
:102E2000401A02EE100AB8EEC22AB0EE421A4C481E
:102E3000006852490968084448490968401A3D49F0
:102E40000968401A00E018E002EE100AB8EEC22A43
:102E5000F0EE420A424800684949096808443F497F
:102E60000968401A3F490968401A02EE100AB8EE94
:102E7000C22AB0EE420A01F039F93B48006818282E
:102E800056D13A4890ED000AF8EEC00A2B4890ED72
:102E9000000AB8EEC00A2A4802F05CFF3149086017
:102EA000334890ED000AF8EEC00A244890ED000A7D
:102EB000B8EEC00A224802F04DFF1E4908601E48C5
:102EC00090ED000AF8EEC00A1C4890ED000AB8EE3A
:102ED000C00A1B4802F03EFF1A4908601A4890EDEC
:102EE000000AF8EEC00A154890ED000AB8EEC00AD4
:102EF000134802F02FFF154908601648D0ED000A6C
:102F00009FED200A144803F038F81449086014486B
:102F100000684042096808440C490968401A02EEFA
:102F2000100AB8EEC22AF0EE421A0D4800682BE0F3
:102F300057E00000D80500201C060020E405002012
:102F4000900D0020DC05002020060020E005002078
:102F5000B0050020BC040020700E0020C405002035
:102F6000D0050020D40500208C0500201406002088
:102F700018060020C0050020BC050020B805002070
:102F8000B40500200000B4424042FD4909680844ED
:102F9000FC490968401A02EE100AB8EEC22AB0EEE7
:102FA000421AF94800684042F5490968401AF74951
:102FB0000968401A02EE100AB8EEC22AF0EE420A80
:102FC000F14800684042EE490968401AF049096832
:102FD000401A02EE100AB8EEC22AB0EE420A01F020
:102FE00085F8EC48006819286BD1EB4890ED000A91
:102FF000B5EEC00AF1EE10FA08D290ED000ADFED4E
:10300000E70A30EE200AE64880ED000AE24890ED3B
:10301000000AB5EEC00AF1EE10FA08DB90ED000AE6
:10302000DFEDDE0A30EE600ADD4880ED000ADD48A3
:103030000068404200EE900AF8EEE00AB0EE600A46
:10304000D748D0ED000AD84802F097FFCC49086075
:10305000CD48006809680844D4490968401A02EE5E
:10306000100AB8EEC22AF0EE421AC7480068C449F6
:1030700009680844C3490968401A02EE100AB8EE0C
:10308000C22AB0EE421AC0480068BD490968401A19
:10309000BE490968401A02EE100AB8EEC22AF0EEE4
:1030A000420AB9480068B6490968401AB84909682F
:1030B000401A02EE100AB8EEC22AB0EE420A01F03F
:1030C00015F8B44800681A286DD1B94890ED000A87
:1030D000F8EEC00AB74890ED000AB8EEC00AB6484C
:1030E00002F038FEAA490860B44890ED000AF8EEF4
:1030F000C00AB04890ED000AB8EEC00AAE4802F02F
:1031000029FEA2490860AE4890ED000AF8EEC00A18
:10311000A84890ED000AB8EEC00AA74802F01AFECF
:1031200098490860A74890ED000AF8EEC00AA14847
:1031300090ED000AB8EEC00A9F4802F00BFE9B49D2
:1031400008609548D0ED000A9FED9F0A964802F06E
:1031500014FF8B49086000E0CBE38B4800684042D5
:103160000968084491490968401A02EE100AB8EE4D
:10317000C22AF0EE421A8448006840428049096839
:10318000084480490968401A02EE100AB8EEC22AC3
:10319000B0EE421A7C480068404279490968401AFA
:1031A0007A4901E097E218E00968401A02EE100A35
:1031B000B8EEC22AF0EE420A7348006840427049F5
:1031C0000968401A72490968401A02EE100AB8EEFE
:1031D000C22AB0EE420A00F089FF6E4800681B2840
:1031E0006BD16D4890ED000AB5EEC00AF1EE10FA11
:1031F00008D290ED000ADFED690A30EE200A684837
:1032000080ED000A644890ED000AB5EEC00AF1EEC8
:1032100010FA08DB90ED000ADFED600A30EE600A7C
:103220005F4880ED000A5F480068404200EE900A67
:10323000F8EEE00AB0EE600A5948D0ED000A5A48AC
:1032400002F09BFE4E4908604F4800680968084438
:1032500056490968401A02EE100AB8EEC22AF0EE8A
:10326000421A4948006846490968084445490968BE
:10327000401A02EE100AB8EEC22AB0EE421A4248D4
:1032800000683F490968401A40490968401A02EE3F
:10329000100AB8EEC22AF0EE420A3B4800683849EC
:1032A0000968401A3A490968401A02EE100AB8EE55
:1032B000C22AB0EE420A00F019FF364800681C2806
:1032C0005DD1354890ED000AB5EEC00AF1EE10FA76
:1032D00008D290ED000ADFED310A30EE200A3048C6
:1032E00080ED000A2C4890ED000AB5EEC00AF1EE20
:1032F00010FA08DB90ED000ADFED280A30EE600AD4
:10330000274880ED000A27480068404200EE900AF6
:10331000F8EEE00AB0EE600A2148D0ED000A22483B
:1033200002F02BFE16490860174800684042096801
:1033300008441E490968401A02EE100AB8EEC22A73
:10334000F0EE421A1048006840420D4909680844EE
:103350000C490968401A02EE100AB8EEC22AB0EE13
:10336000421A09480068404205490968401A07495D
:103370000968401A02EE100AB8EEC22A26E038E0C8
:10338000C4050020DC050020D0050020D805002061
:10339000D40500208C050020BC040020000034432C
:1033A000C0040020B0050020700E0020E0050020C1
:1033B00014060020E4050020900D002018060020CF
:1033C0001C060020200600200000B4C2F0EE420AD5
:1033D000FE4800684042FE490968401AFD490968F4
:1033E000401A02EE100AB8EEC22AB0EE420A00F00D
:1033F0007DFEF94800681D284DD1F848006840421C
:1034000000EE900AF8EEE00AB0EE600AF448D0ED63
:10341000000AF44802F0B1FDED490860EB4800688D
:10342000404209680844F0490968401A02EE100A4F
:10343000B8EEC22AF0EE421AE44800684042E4497D
:1034400009680844E9490968401A02EE100AB8EE12
:10345000C22AB0EE421ADD4800684042DC490968E1
:10346000401AE3490968401A02EE100AB8EEC22A6F
:10347000F0EE420AD54800684042D5490968401A32
:10348000D4490968401A02EE100AB8EEC22AB0EE1A
:10349000420A00F02BFED0480068292846D1D048C7
:1034A000D0ED000A9FEDD30ACE4802F066FDC84970
:1034B0000860C6480068404209680844CA4909686B
:1034C000401A02EE100AB8EEC22AF0EE421ABF48C5
:1034D00000684042BE4909680844C4490968401A66
:1034E00002EE100AB8EEC22AB0EE421AB7480068DF
:1034F0004042B7490968401ABD490968401A02EEBE
:10350000100AB8EEC22AF0EE420AB0480068404203
:10351000AF490968401AAF490968401A02EE100A1B
:10352000B8EEC22AB0EE420A00F0E0FDAA480068F8
:103530001F2809D1AA48D0ED000A9FEDAF0AAF4875
:1035400002F01BFDAE490860A3480068202809D19D
:10355000A348D0ED000A1FED640AA84802F00DFD53
:10356000A74908609C480068222809D19C48D0EDF2
:10357000000A9FEDA40AA14802F0FFFCA0490860E0
:1035800095480068232809D19548D0ED000A1FED21
:103590007D0A9A4802F0F1FC994908608E4800685B
:1035A000242809D18E48D0ED000A9FED960A934851
:1035B00002F0E3FC9249086087480068252809D199
:1035C0008748D0ED000A1FED8B0A8C4802F0D5FC2D
:1035D0008B49086080480068262809D18048D0EDD2
:1035E000000A1FED870A854802F0C7FC844908607D
:1035F00079480068272809D17948D0ED000A9FED65
:10360000810A7E4802F0B9FC7D4908607248006872
:10361000332809D17248D0ED000A9FED7A0A774825
:1036200002F0ABFC764908606B480068342809D189
:103630006B48D0ED000A1FED9C0A704802F09DFC1B
:103640006F49086064480068352809D16448D0EDA6
:10365000000A9FED680A694802F08FFC684908601B
:103660005D480068362809D15D48D0ED000A1FED9D
:10367000B50A624802F081FC61490860564800685A
:10368000372809D15648D0ED000A9FED5A0A5B4809
:1036900002F073FC5A4908604F480068382809D185
:1036A0004F48D0ED000A9FED570A544802F065FCE0
:1036B0005349086048480068392809D14848D0ED86
:1036C000000A9FED4D0A4D4802F057FC4C49086036
:1036D00000204D4908604D48006802280FD30C2097
:1036E00003231A4600903E4890ED000A0021322044
:1036F000FEF730FDFEF74FFB0020444908604448C8
:103700000068022807D3364A424943480CF0BEF904
:1037100000203F49086041480068052804D3FEF7AF
:10372000C4FF00203D4908603D4800680A282BD3AB
:1037300000F0CEFA3B4800683B4909680844394923
:1037400008603A4800683A490968084437490860FF
:1037500038480068384909680844364908603748DD
:1037600000683749096808443449086047F2305016
:103770004FF080414862334908603349086033495B
:1037800008600020264908603148006802281CD3E0
:103790000121304806F0A2FA28B92F480068012814
:1037A00001D12E49086001212A4806F097FA012824
:1037B00008D129480068022804D12849086003205C
:1037C0002549086000202249086049E0D005002012
:1037D000C4050020D40500208C050020B005002081
:1037E000BC040020700E0020E0050020DC05002055
:1037F000D8050020000000000000B442A80E002000
:10380000A0050020000034C3EC050020E8050020DE
:10381000F4050020B8040020B4040020F0050020C6
:10382000F8050020900500201406002094050020D3
:1038300018060020980500201C0600209C0500208A
:1038400020060020240400402408004024040140F5
:10385000FC05002000080240CC050020C80500201F
:10386000244800680A2840D32348006801281AD158
:10387000224805F0C0FC0C2000902048007800EEA3
:10388000900AF8EE600AB0EE600A03231A4600219F
:103890003220FEF75FFC0C2319A200210846FEF738
:1038A000F1FBFEF778FA1448006802281AD116488E
:1038B00005F0D1FC0C2000901348007800EE900A2F
:1038C000F8EE600AB0EE600A03231A4600213220A7
:1038D000FEF740FC0C230DA200210846FEF7D2FBA8
:1038E000FEF759FA0020034908600121094807F052
:1038F0006FFD08BD00060020800000207C00002035
:103900005478204F4B0000007D0000205278204F5B
:103910004B000000001400404FF08040406AFE4918
:103920000860084600687047FC480068FA4948602B
:10393000084640687047FA480068F74988600846BA
:1039400080687047F7480068F349C8600846C06857
:10395000704700B5FFF7E0FFF3490860FFF7E4FFA9
:10396000F2490860FFF7E7FFF1490860FFF7EAFF57
:10397000F049086000BD1FB50121102006F033FC9E
:1039800040F2E73002905320ADF804000020ADF87B
:103990000C00ADF806008DF80E0001A9E64807F00E
:1039A0004EF80121E44807F0FFFC01221146E248ED
:1039B00007F0E6FC36208DF8000002208DF80100AB
:1039C00003208DF8020001208DF80300684606F000
:1039D00032F80121D84807F0BBF81FBD30B589B0D7
:1039E00004460D460121084606F0FDFB012108466C
:1039F00006F0B0FB01220021D04806F098F9012220
:103A00001146CE4806F093F90320019002208DF86C
:103A1000080001208DF80B0001A9C84806F0FCF849
:103A2000ADF8185007940020ADF81A00ADF8180052
:103A30004FF6FF7007900020ADF8200006A94FF068
:103A4000804006F0FCFF00231A4603214FF080401F
:103A500007F069FD03A807F000FC0620ADF814008C
:103A600003A94FF0804007F0C1FB0121880707F050
:103A70009BFC01221146900707F082FC47F230516F
:103A80004FF0804007F024F80121880707F060F824
:103A900009B030BD30B589B004460D460121022081
:103AA00006F0A1FB0121084606F054FB0222062184
:103AB000A24806F03CF902220721A04806F037F997
:103AC000C020019002208DF8080001208DF80B0025
:103AD00001A99A4806F0A0F8ADF818500794002004
:103AE000ADF81A00ADF818004FF6FF7007900020EF
:103AF000ADF8200006A98948243806F0A0FF00236D
:103B00001A4603218548243807F00DFD03A807F065
:103B1000A4FB0620ADF8140003A98048243807F060
:103B200065FB01217D48243807F03EFC0122114647
:103B30007A48243807F024FC47F23051774824387B
:103B400006F0C6FF01217548243807F001F809B0D6
:103B500030BD30B589B004460D460121042006F081
:103B600042FB0121082006F0F5FA02220C217448DC
:103B700006F0DDF802220D21714806F0D8F84FF466
:103B80004050019002208DF8080001208DF80B00B4
:103B900001A96B4806F040F8ADF8185007940020D2
:103BA000ADF81A00ADF818004FF6FF70079000202E
:103BB000ADF8200006A95A48243806F040FF00233B
:103BC0001A4603215648243807F0ADFC03A807F035
:103BD00044FB0620ADF8140003A95148243807F02F
:103BE00005FB01214E48243807F0DEFB0122114677
:103BF0004B48243807F0C4FB47F23051484824387A
:103C000006F066FF01214648243806F0A1FF09B0FE
:103C100030BD30B589B004460D460121022006F0C2
:103C2000F3FA0121042006F095FA03220621454803
:103C300006F07DF803220721424806F078F8C020FC
:103C4000019002208DF8080001208DF80B0001A9D9
:103C50003C4805F0E1FFADF8185007940020ADF89E
:103C60001A00ADF818004FF6FF7007900020ADF86D
:103C7000200006A92B48243806F0E1FE00231A464E
:103C800003212848243807F04EFC03A807F0E5FA82
:103C90000620ADF8140003A92248243807F0A6FA3C
:103CA00001212048243807F07FFB012211461D48DE
:103CB000243807F065FB47F230511A48243806F0E3
:103CC00007FF01211748243806F042FF09B030BD34
:103CD00000B5FFF73EFE14480068A0F5EA40303812
:103CE0001949086012480068A0F5EA4030381749C1
:103CF00008600E480068A0F5EA40303814490860B2
:103D00000C480068A0F5EA403038124908600E48B7
:103D10000068002825DB1FE0100D0020240400406F
:103D20002408004024040140040600200C06002062
:103D3000080600201006002000100040000002408D
:103D4000000C024000080240140600201C0600205F
:103D5000180600202006002022480068214908603B
:103D600008E020480068002804DA1E480068404245
:103D70001C4908601C480068002804DB1A480068D9
:103D80001949086008E018480068002804DA164855
:103D9000006840421449086014480068002804DBA9
:103DA000124800681149086008E0104800680028BF
:103DB00004DA0E48006840420C4908600C4800686C
:103DC000002804DB0A4800680949086008E0084840
:103DD0000068002804DA0648006840420449086088
:103DE00000BD000014060020180600201C0600205C
:103DF000200600201CB50121042006F0ABF90121AA
:103E0000102006F0A7F90121084606F0A3F94FF4A7
:103E10006040009000208DF804008DF8060003201B
:103E20008DF8050001208DF8070069461F4805F050
:103E3000F3FE0E20009000208DF804008DF806009F
:103E400003208DF8050001208DF807006946184809
:103E500005F0E2FE0820009000208DF804008DF8A7
:103E6000060003208DF8050001208DF80700694643
:103E7000104805F0D1FE1CBD10B54FF400510B48A1
:103E800005F02CFF02210A4805F028FF0821094807
:103E900005F024FF4FF40041044805F01FFF4FF4E4
:103EA0008041024805F01AFF10BD000000100240DA
:103EB00000080240000002401CB50121102006F05D
:103EC00049F94FF44070009001208DF80400002063
:103ED0008DF8060003208DF8050001208DF80700FD
:103EE0006946FE4805F098FE0121022006F032F9ED
:103EF0004FF44060009001208DF8040000208DF800
:103F0000060003208DF8050001208DF807006946A2
:103F1000F34805F081FE0121084606F01BF94FF435
:103F20001040009001208DF8040000208DF806005C
:103F300003208DF8050001208DF807006946E94847
:103F400005F06AFE0121082006F004F94FF44060F4
:103F5000009001208DF8040000208DF80600032059
:103F60008DF8050001208DF807006946DE4805F050
:103F700053FE1CBD10B50446002C0EDD4FF48071BD
:103F8000D64805F0C5FE4FF40071D44805F0C2FED6
:103F90002146D64806F041FF1AE0002C0EDA4FF415
:103FA0008071CE4805F0B6FE4FF40071CB4805F0A5
:103FB000AFFE6142CD4806F030FF09E04FF480715A
:103FC000C64805F0A7FE4FF40071C44805F0A2FEF4
:103FD00010BD10B50446002C0EDD4FF48051C148D1
:103FE00005F096FE4FF40041BE4805F093FE2146D1
:103FF000BE4806F014FF1AE0002C0EDA4FF4004120
:10400000B84805F085FE4FF48051B64805F082FEB1
:104010006142B64806F003FF09E04FF48051B14811
:1040200005F078FE4FF40041AE4805F073FE10BD78
:1040300010B50446002C0EDD4FF40061A84805F0D1
:1040400069FE4FF48061A64805F062FE2146A7484C
:1040500006F0E7FE1AE0002C0EDA4FF40061A048EB
:1040600005F056FE4FF480619D4805F053FE614215
:104070009E4806F0D6FE09E04FF48061984805F0AE
:1040800049FE4FF40061964805F044FE10BD10B59E
:104090000446002C0EDD4FF48061934805F03AFE93
:1040A0004FF40061904805F033FE21468F4806F03A
:1040B000BAFE1AE0002C0EDA4FF480618A4805F04F
:1040C00027FE4FF40061884805F024FE61428748CE
:1040D00006F0A9FE09E04FF40061834805F01AFEDE
:1040E0004FF48061804805F015FE10BD10B52DED30
:1040F000048BB0EE408AF0EE608AB0EE419AF0EEAA
:10410000619ABDEEC80A10EE100AFFF733FFBDEE4C
:10411000E80A10EE100AFFF75CFFBDEEC90A10EEC8
:10412000100AFFF785FFBDEEE90A10EE100AFFF74F
:10413000AEFFBDEC048B10BD00206D4908607047D8
:1041400010B517E0DFED6B1A9FED6A1ADFED6A0A12
:104150009FED690AFFF7CAFF684890ED000ADFED9E
:10416000680AB4EEE00AF1EE10FA03D8642065495B
:10417000086000E0E6E700BF10BD10B52DED068B2E
:104180009FED610A614880ED060A9FED5F0A604875
:1041900080ED060A65205B4908605CE054480068D1
:1041A000002853D1554890ED000ADFED5A0AB4EECD
:1041B000E00AF1EE10FA39D81F205249086056483B
:1041C000006814F05DFF41EC1A0B9FED540B53ECAB
:1041D000102B14F039FE41EC190B15F00BF808EE1A
:1041E000100A4D48006814F04BFF41EC1A0B9FED8C
:1041F0004B0B53EC102B14F027FE41EC190B14F071
:10420000F9FF08EE900A444890ED000AB8EEC00AA3
:10421000F0EE401A90ED000AB8EEC00AB0EE401A77
:10422000F0EE480AB0EE680AFFF760FF334890ED01
:10423000000ADFED380AB4EEE00AF1EE10FA05DD0F
:104240006420304908600120294908602848006836
:10425000012800D100E0A1E700BFBDEC068B10BD36
:1042600010B52DED068B9FED280A284880ED060A33
:104270009FED250A264880ED060A65202149086041
:1042800093E01B48006800287ED11C4890ED000A8E
:10429000DFED240AB4EEE00AF1EE10FA70D890EDEA
:1042A000000AB5EEC00AF1EE10FA69DD25201549C5
:1042B00008601948006814F0E3FE41EC1A0B9FED0A
:1042C0001A0B53EC102B14F0BFFD41EC190B14F03A
:1042D00091FF08EE100A1048006829E00010024023
:1042E0000004024000000240000C024000000140B7
:1042F0003406002000803B4500A08CC5BC04002093
:104300000000AAC28C05002000000000700E0020F2
:10431000A80E00200000B442A00500203333333340
:104320003333F3BF00003443333333333333F33F9A
:1043300014F0A6FE41EC1A0B1FED050B53EC102BED
:1043400014F082FD41EC190B14F054FF08EE900AB2
:10435000FE480068404201EE100AB8EEC11AF0EEC5
:10436000410AFA480068404201EE100AB8EEC11A4C
:10437000B0EE410AF0EE481AB0EE681AFFF7B6FE4A
:10438000F34890ED000A00E00AE0B5EEC00AF1EE55
:1043900010FA05D26420EF4908600120EE49086058
:1043A000ED480068012800D100E06AE700BFBDECDD
:1043B000068B10BD10B52DED068B1FED2D0AE748BD
:1043C00080ED060A1FED300AE54880ED060A6520FB
:1043D000E049086059E0E0480068E0BBDC4890ED47
:1043E000000AB5EEC00AF1EE10FA3BDB3320D949E2
:1043F0000860D648006814F043FE41EC1A0B1FED2C
:10440000390B53EC102B14F01FFD41EC190B14F079
:10441000F1FE08EE100ACD48006814F031FE41ECC0
:104420001A0B1FED420B53EC102B14F00DFD41EC59
:10443000190B14F0DFFE08EE900AC44890ED000A54
:10444000B8EEC00AF0EE401A90ED000AB8EEC00ACD
:10445000B0EE401A00E013E0F0EE480AB0EE680A51
:10446000FFF744FEBA4890ED000AB5EEC00AF1EE3F
:1044700010FA05D26420B74908600120B6490860E7
:10448000B5480068012800D100E0A4E700BFBDECFA
:10449000068B10BD10B52DED068B1FED650AAF48DC
:1044A00080ED060A1FED680AAD4880ED060A65201A
:1044B000A849086062E0A8480068002859D1A448CB
:1044C00090ED000A5FED690AB4EEE00AF1EE10FA31
:1044D00041D890ED000AB5EEC00AF1EE10FA3ADDCF
:1044E00023209C4908609948006814F0C9FD41ECFC
:1044F0001A0B1FED730B53EC102B14F0A5FC41ECC1
:10450000190B14F077FE08EE100A9048006814F0BA
:10451000B7FD41EC1A0B1FED7C0B53EC102B14F084
:1045200093FC41EC190B14F065FE08EE900AF0EED6
:10453000481AB0EE681A85480068404200EE100A3A
:10454000F8EEC00A81480068404200EE100AB8EE5A
:10455000C00AFFF7CBFD7E4890ED000AB5EEC00A19
:10456000F1EE10FA05D264207A49086001207A49F8
:10457000086079480068012800D100E09BE700BF8F
:10458000BDEC068B10BD10B52DED068B1FEDA20AFC
:10459000724880ED060A1FEDA40A714880ED060AF4
:1045A00065206C4908605CE06B480068002853D1C6
:1045B000674890ED000ADFED6B0AB4EEE00AF1EE19
:1045C00010FA39DD2020634908606048006814F063
:1045D00057FD41EC1A0B1FEDAF0B53EC102B14F0F1
:1045E00033FC41EC190B14F005FE08EE100A574895
:1045F000006814F045FD41EC1A0B1FEDB80B53ECAD
:10460000102B14F021FC41EC190B14F0F3FD08EE13
:10461000900A4E4890ED000AB8EEC00AF0EE401A3B
:1046200090ED000AB8EEC00AB0EE401AF0EE480A6B
:10463000B0EE680AFFF75AFD454890ED000ADFED3D
:10464000490AB4EEE00AF1EE10FA05D864204149B7
:1046500008600120404908603F480068012800D1F7
:1046600000E0A1E700BFBDEC068B10BD10B52DED3D
:10467000068B1FEDDB0A394880ED060A1FEDDE0AC6
:10468000374880ED060A65203249086073E03248F9
:104690000068002859D12E4890ED000ADFED320A5B
:1046A000B4EEE00AF1EE10FA41DD90ED000AB5EE4D
:1046B000C00AF1EE10FA3AD82220264908602348B1
:1046C000006814F0DDFC41EC1A0B1FEDE90B53EC14
:1046D000102B14F0B9FB41EC190B14F08BFD08EE14
:1046E000100A1A48006814F0CBFC41EC1A0B1FEDBD
:1046F000F20B53EC102B14F0A7FB41EC190B14F048
:1047000079FD08EE900AF0EE481AB0EE681A0F48EC
:104710000068404200EE100AF8EEC00A0B4800683C
:10472000404200EE100AB8EEC00AFFF7DFFC08486E
:1047300090ED000AB5EEC00AF1EE10FA05DD642036
:10474000044908600120044908600FE0A00500202A
:10475000BC0400208C05002034060020700E0020D0
:10476000A80E00200000B4C2000034C3F84800685E
:10477000012800D100E08AE700BFBDEC068B10BD28
:1047800010B52DED068B41F28830F24908606520A6
:1047900008606FE0F04890ED000AB5EEC00AF1EE57
:1047A00010FA09DDDFEDED1A9FEDEC1ADFEDEC0AF2
:1047B0009FEDEB0AFFF79AFCE74890ED000A5FEDEA
:1047C000170AB4EEE00AF1EE10FA3ED22620E149D3
:1047D0000860E448006814F053FC41EC1A0B9FEDAC
:1047E000E20B53EC102B14F02FFB41EC190B14F0DF
:1047F00001FD08EE100ADB48006814F041FC41ECB2
:104800001A0B9FEDD90B53EC102B14F01DFB41EC50
:10481000190B14F0EFFC08EE900AD24800684042F1
:1048200001EE100AB8EEC11AF0EE410ACD48006858
:10483000404201EE100AB8EEC11AB0EE410AF0EEA5
:10484000481AB0EE681AFFF751FCC34890ED000A11
:104850005FED3C0AB4EEE00AF1EE10FA0ADB90EDEF
:10486000000AB5EEC00AF1EE10FA03D26420B9498D
:10487000086000E08EE700BFBDEC068B10BD10B5F0
:104880002DED068B9FEDBA0ABA4880ED060A9FED22
:10489000B80AB94880ED060A6520AE4908605BE0B9
:1048A000AB480068F0BBAC4890ED000A5FED520ADF
:1048B000B4EEE00AF1EE10FA3BDD2720A5490860CE
:1048C000A848006814F0DCFB41EC1A0B9FEDAB0B21
:1048D00053EC102B14F0B8FA41EC190B14F08AFCCD
:1048E00008EE100A9F48006814F0CAFB41EC1A0B4E
:1048F0009FEDA20B53EC102B14F0A6FA41EC190B10
:1049000014F078FC08EE900A964890ED000AB8EE94
:10491000C00AF0EE401A90ED000AB8EEC00AB0EE00
:10492000401A00E013E0F0EE480AB0EE680AFFF724
:10493000DDFB894890ED000AB5EEC00AF1EE10FAF1
:1049400005DD6420834908600120814908608048B2
:104950000068012800D100E0A2E700BFBDEC068B93
:1049600010BD10B52DED068B9FED810A814880EDBD
:10497000060A9FED7F0A804880ED060A652075498A
:1049800008605CE072480068002853D1724890EDDE
:10499000000A5FED8C0AB4EEE00AF1EE10FA39DBA2
:1049A00034206C4908606F48006814F069FB41ECE2
:1049B0001A0B9FED720B53EC102B14F045FA41ECDF
:1049C000190B14F017FC08EE100A6648006814F082
:1049D00057FB41EC1A0B9FED690B53EC102B14F0B5
:1049E00033FA41EC190B14F005FC08EE900A5D480F
:1049F00090ED000AB8EEC00AF0EE401A90ED000A01
:104A0000B8EEC00AB0EE401AF0EE480AB0EE680AFE
:104A1000FFF76CFB504890ED000A5FEDAE0AB4EE74
:104A2000E00AF1EE10FA05D264204A49086001203C
:104A30004749086046480068012800D100E0A1E726
:104A400000BFBDEC068B10BD10B52DED068B9FEDA4
:104A5000480A484880ED060A9FED450A464880ED21
:104A6000060A65203B49086059E03948006800287B
:104A700050D1394890ED000AB5EEC00AF1EE10FAB7
:104A80003AD83520334908603648006814F0F8FAFF
:104A900041EC1A0B9FED340B53EC102B14F0D4F9AE
:104AA00041EC190B14F0A6FB08EE100A2D48006823
:104AB00014F0E6FA41EC1A0B9FED2B0B53EC102B84
:104AC00014F0C2F941EC190B14F094FB08EE900AB3
:104AD000F0EE481AB0EE681A22480068404200EE34
:104AE000100AF8EEC00A1F480068404200EE100AA3
:104AF000B8EEC00AFFF7FAFA174890ED000AB5EED3
:104B0000C00AF1EE10FA05DD6420124908600120A8
:104B10000F4908600E480068012800D100E0A4E7B2
:104B200000BFBDEC068B10BD10B52DED068B9FEDC3
:104B3000100A104880ED060A9FED0D0A0E4880ED20
:104B4000060A65200349086041F28830086084E065
:104B5000340600208C050020BC040020000016C58F
:104B600000001645A0050020333333333333F33FC1
:104B700000000000700E0020A80E002033333333F5
:104B80003333F3BFFE4890ED000AB5EEC00AF1EEF4
:104B900010FA09D25FED0E1A1FED0F1A5FED110A20
:104BA0001FED120AFFF7A2FAF54890ED000ADFEDBB
:104BB000F50AB4EEE00AF1EE10FA39DB3920F249D9
:104BC0000860F248006814F05BFA41EC1A0B1FED24
:104BD000150B53EC102B14F037F941EC190B14F0B2
:104BE00009FB08EE100AE948006814F049FA41ECA4
:104BF0001A0B1FED1E0B53EC102B14F025F941EC92
:104C0000190B14F0F7FA08EE900AE04890ED000A4C
:104C1000B8EEC00AF0EE401A90ED000AB8EEC00AF5
:104C2000B0EE401AF0EE480AB0EE680AFFF75EFAFE
:104C3000D34890ED000ADFEDD30AB4EEE00AF1EEBE
:104C400010FA0AD290ED000AB5EEC00AF1EE10FAA1
:104C500003DD6420CC49086000E093E700BFBDECB1
:104C6000068B10BD10B52DED068B1FED3F0AC84811
:104C700080ED060A1FED420AC64880ED060A65204F
:104C8000C14908605BE0C4480068002852D1BC48B4
:104C900090ED000AB5EEC00AF1EE10FA3CDD3620C8
:104CA000B9490860B948006814F0EAF941EC1A0BF8
:104CB0001FED530B53EC102B14F0C6F841EC190BFD
:104CC00014F098FA08EE100AB048006814F0D8F909
:104CD00041EC1A0B1FED5C0B53EC102B14F0B4F8E5
:104CE00041EC190B14F086FA08EE900AA748006808
:104CF000404200EE100AB8EEC00AF0EE400AF0EEB4
:104D0000481AB0EE681AA1480068404200EE100A46
:104D1000B8EEC00AFFF7EAF9994890ED000AB5EE3F
:104D2000C00AF1EE10FA05D8642097490860012006
:104D30009949086098480068012800D100E0A2E77E
:104D400000BFBDEC068B10BD10B52DED068B1FED21
:104D5000780A8F4880ED060A1FED7B0A8D4880EDAA
:104D6000060A65208849086055E08B480068E0BB6A
:104D7000834890ED000AB5EEC00AF1EE10FA37DD77
:104D80003720814908608148006814F079F941ECC6
:104D90001A0B1FED860B53EC102B14F055F841EC59
:104DA000190B14F027FA08EE100A7848006814F07E
:104DB00067F941EC1A0B1FED8F0B53EC102B14F01D
:104DC00043F841EC190B14F015FA08EE900A6F48FD
:104DD00090ED000AF8EEC01A90ED000AB8EEC01A85
:104DE000F0EE480AB0EE680A00E00FE0FFF77EF947
:104DF000634890ED000AB5EEC00AF1EE10FA05D84E
:104E000064206149086001206349086062480068C5
:104E1000012800D100E0A8E700BFBDEC068B10BD63
:104E200010B52DED068B1FEDAE0A594880ED060A30
:104E30001FEDB10A574880ED060A65205249086007
:104E40005DE055480068002854D14D4890ED000AB7
:104E5000DFED520AB4EEE00AF1EE10FA3CDD90ED1F
:104E6000000AB5EEC00AF1EE10FA35D238204649F4
:104E700008604648006814F003F941EC1A0B1FED76
:104E8000C10B53EC102B13F0DFFF41EC190B14F0A6
:104E9000B1F908EE100A3D48006814F0F1F841EC51
:104EA0001A0B1FEDCA0B53EC102B13F0CDFF41EC86
:104EB000190B14F09FF908EE900A344890ED000A9F
:104EC000F8EEC01A90ED000AB8EEC01AF0EE480AEB
:104ED000B0EE680AFFF70AF9294890ED000AB5EE2E
:104EE000C00AF1EE10FA05DD6420274908600120B0
:104EF0002949086028480068012800D100E0A0E79F
:104F000000BFBDEC068B10BD10B50A4641F28831DA
:104F1000234B1960A021234B19601FEDEB0A1C499C
:104F200081ED060A1FEDEE0A1A4981ED060A1FED12
:104F3000F00A1D4981ED060A00211C4B19601C4B2B
:104F400019601C4B19601C4B196015210E4B196020
:104F500045E0164B1B68164C24682344154C246806
:104F60002344154C24681919CB1701EB93739B103C
:104F7000124C236021460968814230DD01211FE087
:104F8000BC0400200000B4428C050020A0050020D5
:104F9000700E0020A80E002034060020000034C34C
:104FA000D0050020E4050020900D00209005002091
:104FB00094050020980500209C050020380600205C
:104FC000FC4B19601521FC4B19600021FB4B19604B
:104FD000FB4B1960FB4B1960FB4B196000E0B8E715
:104FE00000BF10BD70B504460D464FF47A60F74916
:104FF0000860A020F64908609FEDF60AF64880EDAB
:10500000060A9FEDF40AF54880ED060A9FEDF10AC5
:10501000F34880ED060A0020E8490860E849086086
:10502000E8490860E84908601520E34908602BE07A
:10503000E2490968E24A12681144E24A12681144DE
:10504000E14A12688818C11700EB91718910E54A8E
:10505000116010460068A04216DD0120D5490860A5
:105060001520D54908600020D4490860D44908605B
:10507000D4490860D44908605A20D54908604FF4E3
:105080009660D249086000E0D2E700BF2DE0CB492E
:105090000968CB4A12681144CA4A12681144CA4AC4
:1050A00012688818C11700EB91718910CD4A116000
:1050B0004FF48041CC4804F011FE012815D1C10302
:1050C000C94804F00BFE01280FD10821C74804F09D
:1050D00005FE012809D10020B8490860B8490860D8
:1050E000B8490860B849086000E0D0E700BF27E091
:1050F000DFEDBF1A9FEDBE1ADFEDBD0A9FEDBC0AC2
:10510000FEF7F4FFAD490968AD4A12681144AD4A93
:1051100012681144AC4A12688818C11700EB9171EB
:105120008910B04A11601046006840F2EE218842B2
:1051300006DD6420A049086000209E49086000E068
:10514000D6E700BF70BD10B540F6B8329F4B1A606D
:10515000A0229F4B1A609FED9F0A9F4A82ED060A8C
:105160009FED9C0A9D4A82ED060A9FED9A0A9C4A91
:1051700082ED060A0022914B1A60914B1A60914B06
:105180001A60914B1A6015228B4B1A6028E08B4BEA
:105190001B688B4C246823448A4C246823448A4C23
:1051A00024681A19D31702EB93739B108D4C23605C
:1051B00022461268824213DD15227F4B1A600022BC
:1051C0007E4B1A607E4B1A607E4B1A607E4B1A60D3
:1051D0005A227F4B1A604FF47A727C4B1A6000E0BF
:1051E000D5E700BF18E0754B1B68754C2468234455
:1051F000744C24682344744C24681A19D31702EBA6
:1052000093739B10774C2360224612688A4203DD19
:105210006422694B1A6000E0E5E700BF10BD10B5DD
:105220004FF47A62694B1A60A022694B1A609FEDB5
:10523000690A694A82ED060A9FED660A674A82EDAD
:10524000060A00225D4B1A605D4B1A605D4B1A60C6
:105250005D4B1A601922584B1A6028E0574B1B68A7
:10526000574C24682344574C24682344564C2468E4
:105270001A19D31702EB93739B105A4C23602246E2
:105280001268824213DD19224B4B1A6000224B4BED
:105290001A604B4B1A604B4B1A604B4B1A605A22E8
:1052A0004B4B1A6040F2DC52484B1A6000E0D5E7E5
:1052B00000BF18E0414B1B68414C24682344414C1B
:1052C00024682344404C24681A19D31702EB9373C3
:1052D0009B10444C2360224612688A4203DD6422FC
:1052E000354B1A6000E0E5E700BF10BD10B540F691
:1052F000C412364B1A60A022354B1A609FED350A56
:10530000354A82ED060A9FED330A344A82ED060AD9
:1053100000222A4B1A602A4B1A602A4B1A602A4B29
:105320001A601B22244B1A6028E0244B1B68244C73
:1053300024682344234C24682344234C24681A19EA
:10534000D31702EB93739B10264C236022461268FE
:10535000824213DD1B22184B1A600022174B1A6081
:10536000174B1A60174B1A60174B1A605A22184BCA
:105370001A6040F2DC52154B1A6000E0D5E700BF1E
:1053800038E00E4B1B680E4C246823440D4C2468F7
:1053900023440D4C24681A19D31702EB93739B1006
:1053A000104C2360224612688A4223DD6422024B9D
:1053B0001A6020E0A40500208C0500209005002044
:1053C00094050020980500209C050020D0050020B1
:1053D000E405002000000000700E0020A80E002050
:1053E000900D00203806002000100240000002400E
:1053F0000080BB44C5E700BF10BD10B540F2DC52D1
:10540000FE4B1A60A022FE4B1A601FED0E0AFD4AE9
:1054100082ED060A1FED110AFB4A82ED060A002200
:10542000FA4B1A60FA4B1A60FA4B1A60FA4B1A6080
:105430001C22FA4B1A6028E0F44B1B68F44C2468D9
:105440002344F44C24682344F34C24681A19D317DA
:1054500002EB93739B10F24C236022461268824247
:1054600013DD1C22ED4B1A600022E84B1A60E84B5A
:105470001A60E84B1A60E84B1A605A22E04B1A6037
:1054800040F2DC52DD4B1A6000E0D5E700BF18E0C7
:10549000DE4B1B68DE4C24682344DE4C2468234426
:1054A000DD4C24681A19D31702EB93739B10DC4C64
:1054B0002360224612688A4203DD6422D74B1A60B9
:1054C00000E0E5E700BF10BD10B540F6C412CB4BBD
:1054D0001A60A022CA4B1A601FED420AC94A82ED27
:1054E000060A1FED440AC84A82ED060A0022C74B8D
:1054F0001A60C74B1A60C74B1A60C74B1A601D224F
:10550000C64B1A6028E0C14B1B68C14C2468234479
:10551000C04C24682344C04C24681A19D31702EBEA
:1055200093739B10BE4C236022461268824213DDA7
:105530001D22BA4B1A600022B44B1A60B44B1A6099
:10554000B44B1A60B44B1A605A22AD4B1A6040F249
:10555000DC52AA4B1A6000E0D5E700BF18E0AB4B65
:105560001B68AB4C24682344AA4C24682344AA4CEF
:1055700024681A19D31702EB93739B10A84C23606D
:10558000224612688A4203DD6422A44B1A6000E0BE
:10559000E5E700BF10BD10B540F6C412974B1A6086
:1055A000A022974B1A601FED750A964A82ED060AF3
:1055B0001FED780A944A82ED060A0022934B1A6086
:1055C000934B1A60934B1A60934B1A601D22934BB6
:1055D0001A6028E08D4B1B688D4C246823448D4C49
:1055E000246823448C4C24681A19D31702EB937354
:1055F0009B108B4C236022461268824213DD1D22D1
:10560000864B1A600022814B1A60814B1A60814BD5
:105610001A60814B1A605A22794B1A6040F2DC52B0
:10562000764B1A6000E0D5E700BF18E0774B1B68A7
:10563000774C24682344774C24682344764C2468B0
:105640001A19D31702EB93739B10754C23602246F3
:1056500012688A4203DD6422704B1A6000E0E5E7BD
:1056600000BF10BD10B540F6C412644B1A60A022F2
:10567000634B1A601FEDA90A624A82ED060A1FED0C
:10568000AB0A614A82ED060A0022604B1A60604B49
:105690001A60604B1A60604B1A6016225F4B1A60EA
:1056A00028E05A4B1B685A4C24682344594C246800
:1056B0002344594C24681A19D31702EB93739B1097
:1056C000574C236022461268824213DD1622534B48
:1056D0001A6000224D4B1A604D4B1A604D4B1A60F8
:1056E0004D4B1A605A22464B1A604FF49662434B58
:1056F0001A6000E0D5E700BF18E0444B1B68444C3B
:1057000024682344434C24682344434C24681A19D6
:10571000D31702EB93739B10414C2360224612680F
:105720008A4203DD64223D4B1A6000E0E5E700BFDA
:1057300010BD10B540F6C412304B1A60A022304B99
:105740001A601FEDDC0A2F4A82ED060A1FEDDF0A00
:105750002D4A82ED060A00222C4B1A602C4B1A604F
:105760002C4B1A602C4B1A6016222C4B1A6028E026
:10577000264B1B68264C24682344264C246823446B
:10578000254C24681A19D31702EB93739B10244CF1
:10579000236022461268824213DD16221F4B1A60D4
:1057A00000221A4B1A601A4B1A601A4B1A601A4BD5
:1057B0001A605A22124B1A604FF496620F4B1A600D
:1057C00000E0D5E700BF2DE0104B1B68104C2468AB
:1057D0002344104C246823440F4C24681A19D3170F
:1057E00002EB93739B100E4C2360224612688A4290
:1057F00018DD6422094B1A6015E00000D005002076
:10580000E4050020700E0020A80E00209005002066
:1058100094050020980500209C0500208C050020A0
:1058200038060020D0E700BF10BD10B540F6C41206
:10583000FE4B1A60A022FE4B1A609FEDFE0AFE4A44
:1058400082ED060A9FEDFB0AFC4A82ED060A002261
:10585000FB4B1A60FB4B1A60FB4B1A60FB4B1A6048
:105860001622FB4B1A6028E0F54B1B68F54C2468A8
:105870002344F54C24682344F44C24681A19D317A4
:1058800002EB93739B10F34C236022461268824212
:1058900013DD1622EE4B1A600022E94B1A60E94B29
:1058A0001A60E94B1A60E94B1A605A22E04B1A6001
:1058B00040F2DC52DD4B1A6000E0D5E700BF18E093
:1058C000DF4B1B68DF4C24682344DF4C24682344EF
:1058D000DE4C24681A19D31702EB93739B10DD4C2E
:1058E0002360224612688A4203DD6422D84B1A6084
:1058F00000E0E5E700BF10BD10B540F6C412CB4B89
:105900001A60A022CA4B1A609FEDCA0ACA4A82EDE9
:10591000060A9FEDC80AC94A82ED060A0022C84B52
:105920001A60C84B1A60C84B1A60C84B1A601A221A
:10593000C74B1A6028E0C24B1B68C24C2468234442
:10594000C14C24682344C14C24681A19D31702EBB4
:1059500093739B10BF4C236022461268824213DD72
:105960001A22BB4B1A600022B54B1A60B54B1A6065
:10597000B54B1A60B54B1A605A22AD4B1A604FF402
:105980009662AA4B1A6000E0D5E700BF18E0AC4B66
:105990001B68AC4C24682344AB4C24682344AB4CB8
:1059A00024681A19D31702EB93739B10A94C236038
:1059B000224612688A4203DD6422A54B1A6000E089
:1059C000E5E700BF10BD10B540F6C412974B1A6052
:1059D000A022974B1A609FED970A974A82ED060A1C
:1059E0009FED940A954A82ED060A0022944B1A60B4
:1059F000944B1A60944B1A60944B1A601822944B83
:105A00001A6028E08E4B1B688E4C246823448E4C11
:105A1000246823448D4C24681A19D31702EB93731E
:105A20009B108C4C236022461268824213DD1822A0
:105A3000874B1A600022824B1A60824B1A60824B9D
:105A40001A60824B1A605A22794B1A604FF49662A0
:105A5000764B1A6000E0D5E700BF18E0784B1B6872
:105A6000784C24682344784C24682344774C246879
:105A70001A19D31702EB93739B10764C23602246BE
:105A800012688A4203DD6422714B1A6000E0E5E788
:105A900000BF10BD10B54FF47A62644B1A60A022AB
:105AA000634B1A609FED630A634A82ED060A9FED1D
:105AB000610A624A82ED060A0022614B1A60614B5C
:105AC0001A60614B1A60614B1A601722604B1A60B2
:105AD00028E05B4B1B685B4C246823445A4C2468C9
