:020000040000FA
:1000000070080020E5010000ED010000EF01000094
:10001000F1010000F3010000F50100000000000004
:10002000000000000000000000000000F7010000D8
:10003000F901000000000000FB010000FD010000CC
:10004000FF010000FF010000FF010000FF010000B0
:10005000FF010000FF010000FF010000FF010000A0
:10006000DD1500008516000039170000FF010000B3
:1000700049170000FF0100004D1800002119000081
:100080005D050000A1050000E505000091060000E7
:10009000FF010000FF010000FF010000FF01000060
:1000A000FF010000FF010000FF010000FF01000050
:1000B000FF010000FF010000FF010000FF01000040
:1000C000FF010000FF010000FF010000FF01000030
:1000D000FF010000FF010000A11300002114000037
:1000E000FF01000000000000000000000000000010
:1000F0000000000000000000000000000000000000
:1001000000000000000000000000000000000000EF
:1001100000000000000000000000000000000000DF
:1001200000000000000000000000000000000000CF
:1001300000000000000000000000000000000000BF
:100140000000000000F002F800F03CF80AA090E87F
:10015000000C82448344AAF10107DA4501D100F082
:1001600031F8AFF2090EBAE80F0013F0010F18BF13
:10017000FB1A43F001031847AC380000CC380000EC
:10018000103A24BF78C878C1FAD8520724BF30C8C3
:1001900030C144BF04680C60704700000023002495
:1001A00000250026103A28BF78C1FBD8520728BF87
:1001B00030C148BF0B6070471FB502F013F81FBD78
:1001C00010B510BD00F036F81146FFF7F5FF01F04D
:1001D00046FD00F054F803B4FFF7F2FF03BC01F052
:1001E00035FD00000948804709480047FEE7FEE763
:1001F000FEE7FEE7FEE7FEE7FEE7FEE7FEE7FEE7D7
:1002000004480549034A054B7047000035150000B6
:1002100045010000700600207008002070060020D4
:10022000704770477047704770470000004870473C
:100230000C0600207546FFF7F9FFAE46050069463B
:10024000534620F00700854618B020B5FFF7D8FFC9
:10025000BDE820404FF000064FF000074FF00008C7
:100260004FF0000B21F00701AC46ACE8C009ACE848
:10027000C009ACE8C009ACE8C0098D46704710B5AC
:100280000446AFF300802046BDE81040FFF7A3BF4F
:1002900030B546F65A13474C2360042852D004DC8C
:1002A000012808D002287ED11CE0082832D0B0F105
:1002B000805F78D15FE000BF3F4B1B78002BFBD005
:1002C000130943EA01233B4C0834246824F0072433
:1002D0002343384C0834236000BF374B1B78002B76
:1002E000FBD061E000BF344B1B1D1B78002BFAD004
:1002F00041EA12332F4C0834246824F007142343B6
:100300002C4C0834236000BF2B4B1B1D1B78002B8B
:10031000FAD049E000BF284B0C331B78002BFAD0F1
:1003200042EA0113234C08342468244D2C40234313
:10033000204C0834236000BF1F4B0C331B78002B6C
:10034000FAD031E000BF1C4B08331B78002BFAD0E9
:10035000130A43EA0113174C0834246824F070147C
:100360002343144C0834236000BF134B08331B781D
:10037000002BFAD018E000BF0F4B10331B78002B76
:10038000FAD021B900230E4C237005E00BE00229BE
:1003900002D101230A4C237000BF074B10331B7896
:1003A000002BFAD000E000BF00BF0123054C2370F2
:1003B00030BD000000040140E08620428FFFFF8F27
:1003C0003081204200802042024A1160024A1060BF
:1003D00070470000780000207C00002010B5044623
:1003E0000021204600F002F810BD00002DE9F04188
:1003F00004460D4646F65A102549086001F094F867
:1004000000F00107012001F07FF801F0B1FB064682
:100410000DB1012000E00020804601201D49087038
:100420001B480C30006820F4E000304318490C31C0
:10043000086024B1012017492431087003E000202E
:10044000144924310870012012492031087009E054
:10045000B8F1000F03D0681E051E00D106E0012090
:100460000D4908700D4800780028F1D100BF3CB953
:100470001EB101200749087002E0002005490870FC
:10048000012007490870384601F046F8BDE8F081C0
:1004900000040140C0812042048A20420489204295
:1004A0000080204210B50948006801231A46002147
:1004B00004680748A047064801F09AFA3020054929
:1004C00008704BF680300449086010BD5C080002DB
:1004D00020C00040940000209800002010B5044681
:1004E0000B48006804FB00F10A48006842680A48AB
:1004F000904708480068012102690748904700BFFB
:1005000004480068C168044888470028F8D110BD35
:10051000980000205C08000220C0004010B504468E
:100520000B48007804FB00F10A48006842680A485A
:10053000904708480068012102690748904700BFBA
:1005400004480068C168044888470028F8D110BDF5
:10055000940000205C08000220C0004070B50E48E6
:100560000068416C0D48884704460B4800682146E6
:10057000C26B0A48904704F0010058B10648006871
:10058000016C0648884705460348006829464268CA
:100590000248904770BD0000600800020010004053
:1005A00070B50E480068416C0D48884704460B48FA
:1005B00000682146C26B0A48904704F0010058B118
:1005C00006480068016C06488847054603480068ED
:1005D000294642680248904770BD0000600800024A
:1005E0000014004070B522480068416C21488847DB
:1005F00005461F4800682946C26B1E48904705F013
:10060000010048B31C48007808B9012000E0002030
:100610001949087016480068016C16488847044656
:10062000AA2C02D015480078B0B1154813490978B2
:100630004454007913490870114840781249086001
:100640000F48C178807801EB0020104908600B4802
:100650000078401C0949087008480078052801D135
:10066000002001E0054800780449087070BD0000D2
:1006700060080002001800405088094290000020E5
:10068000E8040020340000208400002088000020BE
:1006900070B51E480068416C1D48884705461B48D8
:1006A00000682946C26B1A48904705F0010008B35C
:1006B00016480068016C164888470446AA2C02D0E8
:1006C00014480078B0B114481249097844540079AC
:1006D0001249087010484078114908800E48C178C6
:1006E000807801EB00200F4908800A480078401C00
:1006F0000849087007480078052801D1002001E06A
:10070000044800780349087070BD000060080002CA
:10071000001C004035000020E804002034000020C8
:10072000300000203200002040B90A4A126922F449
:10073000704242EA0132074B1A6109E0012807D1F1
:10074000044A526922F4704242EA0132014B5A6172
:100750007047000000100140034B53F82020938B9A
:100760008B43938370470000F439000070B5044652
:100770004FF6FF71204600F033F805460F4850F859
:1007800024600C2C18D2DFE804F017060D070E08C1
:100790000F09100A111400BF00BF00BF00BFB07ED8
:1007A000284070BD00BF00BF00BF00BFB07E284022
:1007B000F7E7708B2840F4E70020F2E7F4390000F7
:1007C00010B50246054850F82240208800EA01038F
:1007D000002B01DD012010BD0020FCE7F4390000F2
:1007E0000246034850F82230988B084070470000BA
:1007F000F43900000246094B53F8220043898B4329
:10080000438183898B43838183888B438380C3881F
:100810000B43C38043880B4343807047F439000087
:100820000246064B53F8220043898B434381838958
:100830008B43838183880B4383807047F4390000A6
:1008400010B50346114C54F8230084880C4384806F
:10085000012A04D0022A09D0032A15D10DE04489C7
:100860000C43448184898C4384810DE044898C430A
:10087000448184890C43848106E044890C4344818B
:1008800084890C43848100BF00BF10BDF43900008F
:10089000034B53F8202053880B43538070470000CC
:1008A000F4390000034B53F8202053888B435380C6
:1008B00070470000F439000010B540210420FFF714
:1008C00099FF80210420FFF795FF01210520FFF704
:1008D00091FF02210520FFF78DFF04210520FFF77E
:1008E00089FF08210520FFF785FF10BD10B51021F5
:1008F0000520FFF795FF20210520FFF791FF01213B
:100900000620FFF78DFF002003490870091D0870BD
:1009100001491031087010BD508809422D4890EDF2
:10092000030A2D48D0ED020A30EE600A294880ED16
:10093000050A90ED070AD0ED050A30EE200A80ED99
:10094000070A90ED000AD0ED050A20EE200AD0ED4E
:10095000010A90ED071A00EE810AD0ED050A90ED2C
:10096000061A70EEC10A90ED021A01EE200A80ED1F
:10097000090A90ED090ADFED190A30EEC00ABDEE52
:10098000C00A174880ED000A124890ED090ADFED11
:10099000130A30EEC00ABDEEC00A124880ED000A0C
:1009A0000C4890ED090ADFED0D0A30EE200ABDEE8D
:1009B000C00A0D4880ED000A064890ED090ADFEDF7
:1009C000070A30EE200ABDEEC00A084880ED000A92
:1009D00070470000E4050020B004002000803B4583
:1009E0009C000020A0000020A4000020A8000020FF
:1009F00030B500240CE0002506E00020074901EB9B
:100A0000C5010855681CC5B2802DF6DB601CC4B258
:100A1000082CF0DB00F0CCF830BD0000B000002066
:100A2000F0B5144600267F2801DC3F2900DDF0BD2B
:100A30000B46CF1701EB5777FF10C7F10707FAB244
:100A4000CF1701EB5777FF10A1EBC707FDB2C5F138
:100A500007070123BB40DEB24CB10A4B03EBC003D6
:100A60009B5C3343074F07EBC007BB5408E0054BC3
:100A700003EBC0039B5CB343024F07EBC007BB54BF
:100A800000BFD4E7B000002010B501210846FFF7F1
:100A9000C7FE04210120FFF7C3FE0A210120FFF752
:100AA000BFFE10210120FFF7BBFE01203F49087067
:100AB0003E49443981F84C003C49091F08703B49C4
:100AC000091D0870002039490C3108706420FFF7B7
:100AD00005FD01203549443981F850000021AE2040
:100AE00000F0D2FA0021D52000F0CEFA00218020BB
:100AF00000F0CAFA0021A82000F0C6FA00213F2029
:100B000000F0C2FA0021D32000F0BEFA002108460E
:100B100000F0BAFA0021402000F0B6FA00218D2042
:100B200000F0B2FA0021142000F0AEFA00212020DB
:100B300000F0AAFA0021022000F0A6FA0021A1206C
:100B400000F0A2FA0021C02000F09EFA0021DA2075
:100B500000F09AFA0021122000F096FA002181207C
:100B600000F092FA0021EF2000F08EFA0021D92047
:100B700000F08AFA0021F12000F086FA0021DB2043
:100B800000F082FA0021302000F07EFA0021A4203B
:100B900000F07AFA0021A62000F076FA0021AF20BA
:100BA00000F072FAFFF724FF10BD000044800942F4
:100BB00030B500241CE004F1B001C8B2002100F0FF
:100BC00063FA0021084600F05FFA0021102000F0CF
:100BD0005BFA002508E0084901EBC501085D012129
:100BE00000F052FA681CC5B2802DF4DB601CC4B260
:100BF000082CE0DB30BD0000B00000202DE9FF4FE5
:100C00002DED020B82B0804617461E46119C4FF018
:100C1000000900200190002508F1070000F0FF09FD
:100C2000204604EBD071491001FB0791491CCDB25D
:100C300004EBD07105EB6101C9B20191B5EEC00AB8
:100C4000F1EE10FA0ED223468BA24046059900F031
:100C5000EBF9F1EE400A9FED891A60EE810AB0EEE1
:100C6000600A0BE0234686A24046059900F0DCF9B5
:100C7000DFED820A60EE200AB0EE600ADFED7F0A47
:100C800080EE201AFCEEC10A10EE90AA3B465246B6
:100C900000944846059900F07DF9234679A228463C
:100CA000059900F0C1F9012E04D0022E16D0032EB2
:100CB00013D15CE0FDEEC00A10EE900A642190FBB7
:100CC000F1F00A2190FBF1F201FB120A3346524681
:100CD00000940599019800F05DF9C9E0FDEEC00AA5
:100CE00010EE900A0A2190FBF1F0642190FBF1F2E2
:100CF00001FB12000A2826DAA24604EBDA7105EBA2
:100D00006101C8B2012300220094059900F042F964
:100D1000FDEEC00A10EE900A0A2190FBF1F064216A
:100D200090FBF1F201FB120B04EBDA714910022285
:100D300002FB0151C8B2711ECBB25A46009405990C
:100D400000F028F912E0FDEEC00A10EE900A0A2128
:100D500090FBF1F0642190FBF1F201FB120A3346A3
:100D6000524600940599019800F014F980E0FDEED8
:100D7000C00A10EE900A4FF47A7190FBF1F201FB79
:100D800012000A2831DAA24604EBDA7105EB6101A0
:100D9000C8B2012300220094059900F0FBF804EB8F
:100DA000DA714910022202FB0151C8B2012300226C
:100DB0000094059900F0EEF8FDEEC00A10EE900ADE
:100DC0004FF47A7190FBF1F201FB120B04EBDA7134
:100DD0004910032202FB0151C8B2B11ECBB25A46E0
:100DE0000094059900F0D6F841E0FDEEC00A10EE3F
:100DF000900A4FF47A7190FBF1F201FB1200642823
:100E000024DAA24604EBDA7105EB6101C8B20123D2
:100E100000220094059900F0BDF8FDEEC00A10EE26
:100E2000900A4FF47A7190FBF1F201FB120B04EB84
:100E3000DA714910022202FB0151C8B2711ECBB215
:100E40005A460094059900F0A5F810E0FDEEC00A9E
:100E500010EE900A4FF47A7190FBF1F201FB120A46
:100E60003346524600940599019800F093F800BF6C
:100E700000BF08B0BDE8F08F2D00000000007A44EC
:100E8000200000002E0000002DE9F84F80460F469C
:100E900016461C46BA462046E31704EB5373DB1094
:100EA00021464FEAE47C04EB5C7C4FEAEC0CA4EBBB
:100EB000CC0CBCF1000F02D04FF0010C01E04FF060
:100EC000000C6344224604EBD27C4FEA6C0C03FB1B
:100ED0000CF303F0FF0BA6F12000C6B200254EE094
:100EE0000C2C07D106EB4600274901EB8000405D42
:100EF000009013E0102C05D1244800EB0610405D53
:100F000000900BE0182C07D106EBC600204901EB3E
:100F10008000405D009001E0BDE8F88F4FF00009CF
:100F200027E0009800F0800028B1394640460A9A30
:100F3000FFF776FD09E00A9808B9012000E00020DB
:100F4000024639464046FFF76BFD00984006000E0A
:100F50000090781CC7B2A7EB0A00A04205D1574603
:100F600008F1010000F0FF0806E009F1010000F0BF
:100F7000FF09B9F1080FD4DB00BF681CC5B25D459D
:100F8000AEDB00BFC8E70000EE21000062260000D3
:100F9000522C00002DE9FF4F81B0074691461E46B6
:100FA0000E9D4FF0000A002439E0301B401EC1B2F4
:100FB0000A2000F064FEB9FBF0F00A21B0FBF1F268
:100FC00001FB1208BAF1000F16D1701EA04213DD0A
:100FD000B8F1000F0ED10120AB4605EBDB714910D3
:100FE00001FB04710090C8B22B4620220299FFF742
:100FF0004BFF12E04FF0010A0120AB4605EBDB711D
:10100000491001FB04710090C8B208F13001CAB266
:101010002B460299FFF738FF00BF601CC4B2B442F0
:10102000C3DB05B0BDE8F08FF8B506460F461546A0
:101030001C4621E004EBD4714910C1F18001B1429A
:1010400002DA00263819C7B2C4F14000B84204DA07
:10105000002006460746FFF7CBFC012000902A78C7
:10106000234639463046FFF70FFF204604EBD07188
:1010700006EB6101CEB26D1C28787E2802DC287850
:101080002028D7DAF8BD000010B5164B19700023E0
:10109000144C483C84F84030002217E00023114CE7
:1010A000241F237000F0800323B101230D4C241D65
:1010B000237003E000230B4C241D23700123094CF3
:1010C000241F23704306180E531CDAB2082AE5DBEE
:1010D0000123044C083C2370024C483C84F84830FF
:1010E00010BD00004880094200B500F05BF80146E1
:1010F00010291BD008DC0A2925D2DFE801F0141BD7
:101100002424151C2424161D182911D006DC1129AD
:1011100013D014290BD0152915D10FE019290ED0A1
:10112000202910D10DE000BF00BF00BF00BF00BFED
:10113000002000BD00BF00BF00BF00BF00BF0120F6
:10114000F7E70220F5E70020F3E700B500F02AF802
:101150000146102916D008DC0A2920D2DFE801F068
:1011600010111F1F15161F1F1D1CA1F111000928AA
:1011700015D2DFE800F00814140C0D14140F100041
:1011800000BF00BF00BF002000BD00BF00BF00BF08
:101190000120F9E700BF00BF00BF0220F4E70020F4
:1011A000F2E7000002480068C0F305207047000025
:1011B0000000014010B504460021204600F002F86E
:1011C00010BD00002DE9F04304460D46FFF7BDFFBA
:1011D0000746FFF789FF80460DB1012000E000209F
:1011E0008146A04502D10120BDE8F08334E02348C8
:1011F0000668FFF7D7FF0A281DD2DFE800F00712C4
:101200001C1C11061C1C100500BF00BF4FF6F0711E
:1012100006EA01001A490843184908600CE000BFBB
:1012200000BF4FF6F07106EA01001549491E084358
:101230001249086000E000BF00BF06E0B9F1000FEE
:1012400003D0681E051E00D1CEE70E4800780028A6
:10125000F4D1FFF749FF8046A045C8D1FFF775FFDD
:10126000B84209D0012F03D1012000F00DF8BBE7EF
:10127000022000F009F8B7E70120B5E700000140BF
:1012800001005A69A000204210B504460021204602
:1012900000F002F810BD00002DE9F04103460E46B3
:1012A000FFF753FF0746BB4202D10120BDE8F081A2
:1012B000FFF778FF05460EB1012000E000208046D0
:1012C00063E0344804680A2D4BD2DFE805F0321A97
:1012D0004A4A05104A4A060F00BF4FF6F07104EA69
:1012E00001002D4908432B4908603BE000BF4FF641
:1012F000F07104EA01002849491C084325490860A7
:1013000030E0012B09D14FF6F07104EA01002249C7
:10131000491D08431F4908600AE0022B08D14FF617
:10132000F07104EA01001C490931084319490860B9
:1013300018E0012B09D14FF6F07104EA01001649BB
:10134000091D0843134908600AE0022B08D14FF633
:10135000F07104EA010010490831084349030860AC
:1013600000E000BF00BF06E0B8F1000F03D0701E20
:10137000061E00D19AE7094800780028F4D1FFF74B
:10138000E4FE0746FFF70EFF05469F4299D1012074
:101390008CE700000000014000005A69A0002042D4
:1013A00010B50420FFF7E2F9044604F0400080B1D4
:1013B00001201A49087019490C3108704FF4FA706D
:1013C000FFF78CF800201549087014490C3108709B
:1013D00005E000201149087010490C31087004F034
:1013E000800080B101200D4908700C490C31087053
:1013F0004FF4FA70FFF772F80020084908700749A7
:101400000C31087005E000200449087003490C31D4
:10141000087021460420FFF79FF910BD5488094247
:1014200010B50520FFF7A2F9044604F0010080B1D1
:1014300001203449087033490C3108704FF4FA70B8
:10144000FFF74CF800202F4908702E490C31087026
:1014500005E000202B4908702A490C31087004F07F
:10146000020080B101202749087026490C3108701C
:101470004FF4FA70FFF732F8002022490870214932
:101480000C31087005E000201E4908701D490C3120
:10149000087004F0040080B101201A49087019494D
:1014A0000C3108704FF4FA70FFF718F80020154956
:1014B000087014490C31087005E0002011490870CB
:1014C00010490C31087004F0080080B101200D496A
:1014D00008700C490C3108704FF4FA70FEF7FEFFEB
:1014E00000200849087007490C31087005E0002009
:1014F0000449087003490C31087021460520FFF7A4
:101500002BF910BD54880942024949688143014AB8
:1015100051607047003004E0024949680143014AC4
:1015200051607047003004E0014840687047000097
:10153000003004E00648006840F470000449086088
:101540000448054908604FF4B540044908807047D5
:1015500088ED00E0C0C62D00AC0000200C48004023
:1015600010B500F0F9FA01220C210B20FFF768F901
:10157000012203210B20FFF763F917494FF40040C4
:10158000FEF722FF0120FFF715FE02210020FFF7E2
:10159000CBF802210120FFF7C7F80020FEF71EFF5D
:1015A000002211460120FEF773FE002211464FF083
:1015B0008050FEF76DFE002205210420FEF768FE34
:1015C000002205210820FEF763FE002205210220EB
:1015D000FEF75EFE10BD0000006CDC0210B5244872
:1015E0000088401C2249088022480088401C21496C
:1015F000088021480088401C1F4908801F48008837
:10160000401C1E4908801A480088022802DB00207E
:101610001749088017480088052802DB0020154973
:1016200008801548008814280CDB00201249088027
:10163000FFF774F91248007808B9012000E0002093
:101640000F4908700D480088B0F57A7F0ADB00204A
:101650000A4908800A48007808B9012000E0002003
:10166000074908700221480700F0F4F910BD000096
:1016700000000020020000200400002006000020DE
:10168000508809422DE9F04100240025002600275A
:101690000421080700F0F8F9044606214FF08040C5
:1016A00000F0F2F905460821C80600F0EDF90646FB
:1016B0000A21480700F0E8F9074604F0010020B1CC
:1016C00019480068401C1849086005F0010020B165
:1016D00016480068401C1549086006F0010020B15A
:1016E00013480068401C1249086007F0010020B14F
:1016F00010480068401C0F4908604FF0804000F01F
:10170000B7F90421080700F0A5F906214FF0804041
:1017100000F0A0F90821C80600F09CF90A2148074A
:1017200000F098F9BDE8F081380000203C0000206E
:10173000400000204400002010B50221014800F0C4
:1017400089F910BD0004004010B532480088401CE3
:1017500030490880084600880A2856DB012103200A
:10176000FFF72EF8044600F073FA2B4909682B4A5C
:10177000126800FB01202949086010210320FFF7AF
:101780001FF8044600F064FA25490968254A1268E2
:1017900000FB01202349086020210320FFF710F8F7
:1017A000044600F055FA20490968204A126800FBF7
:1017B00001201E49086001210420FFF701F80446BA
:1017C00000F046FA1A4909681A4A126800FB01201B
:1017D00018490860104800681749086010480068F8
:1017E00016490860104800681549086010480068EC
:1017F00014490860002008490860094908600A493E
:1018000008600B4908600349088002210E4800F077
:1018100021F910BD080000203800002058000020E9
:101820003C0000205C000020400000206000002000
:101830004400002064000020480000204C000020EC
:1018400050000020540000200008004010B52DED8D
:10185000048B29480068002803DD0120274908700F
:1018600002E000202549087025480068401C2449F2
:1018700008600846006823490968884233DB22482B
:10188000006868B320480068401E1F4908601B4874
:101890001030007808B9012000E00020174910310D
:1018A00008701648603890F87000012818D1124866
:1018B000006800F097FA41EC190B9FED140B53EC04
:1018C000102B00F0A7FA41EC180B124890ED000B1A
:1018D00053EC102B51EC180B00F0DCF90D4A03C24D
:1018E0000020074908600C4800680221C26B0B48C1
:1018F0009047BDEC048B10BD1C0000206090094295
:101900000C0000201400002018000020CDCCCCCC0E
:10191000CCCCBC3F2000002058080002000C004046
:1019200010B5304800F0CDF8C4B204F0010098B111
:101930002D48007C00F0800070B12B488068FF28A3
:1019400005D10120284908710020087404E02648C8
:101950008068401C244988600221224800F094F8E5
:10196000C4B204F0010098B310210A20FEF728FF4A
:1019700001280ED102211B4800F081F81A49888104
:101980000020886008740846007C40F080000874DD
:101990001EE01548007C00F08000C8B1022111480B
:1019A00000F06DF81049C8810846C189008901EB33
:1019B00000400D498989401A00EE100AB8EEC00AAD
:1019C000094880ED000A01200749087100200874C9
:1019D0000221044800F03EF804480068816B014889
:1019E000884710BD000C0040D404002058080002B5
:1019F000816821F0200181607047000010B501224C
:101A000010210A20FEF71CFF0E4800680E490269EB
:101A10000E4890470B4800680D4942680B489047B4
:101A200008482C38006881691F20884705480068ED
:101A3000202102680548904702492C390968086846
:101A4000804710BD58080002C0390000000C00405B
:101A5000B039000010B50023421802F0704242F085
:101A600000724418C4F3130442EA4412138010BDF8
:101A700000224FF0844303EB40110A707047024686
:101A800002F11000405A704730B505460C4628193F
:101A900000F0704040F000702919C1F3130140EAD2
:101AA000411040F01000008828B10322214628464A
:101AB00000F003F830BD0020FCE70346585A104000
:101AC00070470146088800F00100704738B50121D1
:101AD0000920FEF7DDFE1420FEF720FD012109207C
:101AE000FEF7E0FE1348FFF7ECFFC4B204F03F003E
:101AF0001149086011488068096848430E49086028
:101B00000E48C089096808440B4908600C2003236B
:101B10001A460090084690ED000AB8EE400A2821C7
:101B20000846FFF76BF8FFF743F8002003490874F5
:101B300038BD0000000C004070000020D4040020DC
:101B400010B501210920FEF76BFE01210920FEF7E7
:101B5000A9FEFFF753FF10BD04490988C9B241F03F
:101B6000800000F5B441014A118070470C480040E4
:101B70002D4800682D49884206D32B48006889000B
:101B8000884201D8002070472748006828498842C9
:101B900007D9254800684900884202D84FF48010D0
:101BA000F1E7214800682349884207D91E480068A8
:101BB0004900884202D84FF40010E4E71A48006850
:101BC0001D49884207D9184800681C49884202D834
:101BD0004FF44010D7E7144800681849884207D9E5
:101BE000114800681649884202D84FF48000CAE7BD
:101BF0000D4800681249884207D90B48006811490E
:101C0000884202D84FF4A000BDE7074800680D499C
:101C1000884207D9044800680B49884202D84FF42B
:101C2000A000B0E70020AEE77800002040420F009F
:101C300000093D0000127A000024F40000366E0115
:101C40000048E801005A6202006CDC0200BF7047E5
:101C5000014609B9012070474FF0FF30FBE7FFF75D
:101C60007FFCFEF743FEFEF727FEFEF71BFCFEF7A8
:101C70000BFFFFF765FF01E0FFF728FFFCE710B55A
:101C80000246012000E050430B1EA1F10104E1B225
:101C9000F9D110BD10B591EA030F48BF83F000439E
:101CA00000F1BE81841A71EB030C05D2121943EBCB
:101CB0000C03001B61EB0C01DFF824E14FEA115427
:101CC000A4EB135C1EEA430F18BF9EEA445F73D077
:101CD00023EA0E03DCF1200E21EA045143F48013C1
:101CE00032D322FA0CFE10EB0E0023FA0CFE41EB6D
:101CF0000E01CCF1200E03FA0EFE10EB0E0051F196
:101D00000001B1F5801FCCF1200E32D201EB04515D
:101D100012FA0EF2BDE8104058BF7047401C38BFA1
:101D20005FEA420218BF7047002814BF20F001008C
:101D300041F100014FEA410313F5001F38BF70471E
:101D4000A1F1C04100F05EB9012A43EB0302ACF1FE
:101D5000200CDCF11F0E32BF4FF0000E23FA0CF303
:101D600010EB030041EB0451B4EB115FD0D0A1EBB9
:101D7000045101F5801149085FEA300001EB04517C
:101D80000ED350F1000038BF12FA0EFE08D1BDE8A4
:101D90001040C9E7401C38BF5FEA4202CAD1C3E71E
:101DA000BDE810404FEA410313F5001F38BF7047EC
:101DB000A1F1C04100F026B99EEA445F08D011EAC3
:101DC0005E0FBDE8104004BF01F0004100207047E5
:101DD000BDE8104070B500F0C7F800BF64FBBE3E20
:101DE0000000E0FF10F0004248BF4042B0FA80F32C
:101DF00010FA03F10AD0C3F11D0303F580634FEA23
:101E0000415002EB035202EBD12170474FF000002A
:101E100070470000DFF848C170B51CEA111E1EBFF4
:101E20001CEA13159EEA0C0F95EA0C0F00F06F8068
:101E300081EA030423EA4C134EEAD47E21EA4C11D2
:101E400041F4801143F48013AE44A1FB024CA0FB8B
:101E50000365AEF17F7E361955EB0C05A1FB034CF3
:101E60004CF10003A0FB021C16EB0C06654153F17C
:101E70000003094218BF46F0010613F4007F0BD19E
:101E80004FEA03314FEA0530340341EA155140EA85
:101E900016506FF003020AE04FEAC3214FEAC52053
:101EA000F40241EA555140EA56506FF0020202EB4B
:101EB0002E4201EB025585EACE710AD05FEA440C4E
:101EC00018BF24F0004450F1000041F1000120EA65
:101ED000D47040F2FE7C624500D270BDA84214BFAF
:101EE0004FF080444FF04044002E08BF0024BEF164
:101EF000806FA8BFA1F1C041BDE8704080F2828030
:101F00004FF0000001F1C04101F0004170479EEA2E
:101F10000C0F0CEA131518BF95EA0C0F06D04FF002
:101F2000000081EA030E0EF0004170BD00F01CF8C5
:101F30008900013E00F007B800F009B84FEA430CF1
:101F40005FEA5C5C08D081EA030100F05BB84FEA0D
:101F5000410C5FEA5C5CF6D14FF00000014970472C
:101F60000000FF070000F87F0EF1020E2EF0030EB6
:101F70005EF8046B364205D4012A43EB030515F5E0
:101F8000001F12D8012841EB010C1CF5001F0CD8D2
:101F90000ED14FEAD17C15F5001F0CEB4C0C0CF167
:101FA000020C08BF4CEBD37C04E04FF0080C01E0BE
:101FB0004FEAD37C0CEB4C0526FA05F606F0070633
:101FC000B6F1040C06D20EEB860CBDE870404CF066
:101FD000010C6047DFE80CF0090B02024FF00041F2
:101FE0004FF00000A1F5002170BD194610460128F0
:101FF00051EB010418BFD4F5001484BF002001F098
:10200000004170BD0808A0F500114FEA310170478A
:1020100010B591EA030F48BF83F000433FF542AE8D
:10202000841A71EB030C07D212198CF0004C43EBAD
:102030000C03001B61EB0C01DFF8A4E14FEA115423
:10204000A4EB135C1EEA430F18BF9EEA445F00F046
:10205000B08023EA6E03524221EA0451C3EB6E03BF
:1020600038BF5B1EDCF1200E25D322FA0CFE10EBEC
:102070000E0043FA0CFE41EB0E01CCF1200E03FAE8
:102080000EFE10EB0E0051F10001CCF1200E29D410
:1020900012FA0EF201EB0451BDE8104058BF704730
:1020A000401C1CBFB2F1004F704700280CBF491CF8
:1020B00020F00100704712EB020E43EB030218BF41
:1020C0004FF0010E4EEA4202ACF1200CDCF11E0E84
:1020D00054D943FA0CFE10EB0E0051F1FF31CCF154
:1020E0001E0ED5D50EF1010E12FA0EFE404141EB47
:1020F000010101EB445C5FEA5C5C10D910EBDE701F
:1021000001EB045138BFBEF1004FBDE8104018BFCD
:10211000704700280CBF491C20F00100704730D2E6
:102120004FEAD42C11F5001124F400641BD0B1FA4D
:1021300081F20B3AA41AA41ED2F12003914030FA86
:1021400003F31943904001EBCC71002C01EB0451D7
:10215000BDE81040A8BF704701F1C0414FF000003A
:1021600001F000417047B0FA80F310FA03F100D19A
:1021700010BDE41A173C4805C90AE4E701EB045115
:1021800010BD491001EB0451BDE810404FEA30008A
:1021900002E04FF0000170474A0008BF0042F8D04B
:1021A000B2F5001F28BF704701F000414FF000005A
:1021B00070479EEA445F07D011EA5E0FBDE8104009
:1021C00004BF002100207047BDE8104070B5FFF744
:1021D000CBFE00BF40DFF63E83F000411046704763
:1021E0000000E0FF4FF04070E1EE100A7047000081
:1021F00000000000000000000000000000003F4060
:1022000000000000000000003000400030004000EE
:10221000000009000BC03D000BC03D00090018C0C4
:1022200024407FE0224031800000180024C01B00C1
:102230000D803240018003801C4027401C800740F5
:1022400000401000600000000000000000000000DE
:10225000000000001F80204040200000402020405F
:102260001F8000000000090006001F800600090012
:102270000000040004003F8004000400000000107F
:1022800000600000000000000000040004000400E2
:1022900004000400000000000040000000000000F6
:1022A0000000002001C006003800400000001F8030
:1022B0002040204020401F800000000010403FC010
:1022C00000400000000018C0214022402440184077
:1022D000000010802040244024401B8000000200A9
:1022E0000D0011003FC0014000003C80244024400C
:1022F0002440238000001F80244024403440038079
:1023000000003000200027C03800200000001B80A3
:102310002440244024401B8000001C0022C0224096
:1023200022401F8000000000000008400000000064
:102330000000000000000460000000000000000039
:1023400004000A0011002080404009000900090033
:1023500009000900000000004040208011000A0030
:1023600004001800200023402400180000001F80F3
:102370002040274029401F400000004007C039008E
:102380000F0001C0004020403FC0244024401B807B
:1023900000001F802040204020403080000020406E
:1023A0003FC0204020401F80000020403FC024400C
:1023B0002E4030C0000020403FC024402E0030009E
:1023C00000000F0010802040224033800200204097
:1023D0003FC0040004003FC02040204020403FC0D8
:1023E0002040204000000060202020203FC020002E
:1023F000200020403FC024400B0030C0204020403F
:102400003FC020400040004000C03FC03C0003C02F
:102410003C003FC0000020403FC00C4023003FC0B4
:1024200020001F802040204020401F8000002040CE
:102430003FC024402400180000001F80214021409C
:1024400020E01FA0000020403FC02440260019C00B
:10245000004018C024402440224031800000300059
:1024600020403FC020403000000020003F8000405E
:1024700000403F80200020003E0001C007003800DF
:102480002000380007C03C0007C038000000204092
:1024900039C0060039C0204000002000384007C085
:1024A000384020000000304021C02640384020C085
:1024B0000000000000007FE04020402000000000FD
:1024C00070000C000380004000000000402040200D
:1024D0007FE000000000000020004000200000001D
:1024E000000000100010001000100010001000008C
:1024F00000004000000000000000000002800540D5
:10250000054003C0004020003FC004400440038059
:10251000000000000380044004400640000000006A
:102520000380044024403FC0004000000380054079
:10253000054003400000000004401FC02440244028
:102540002000000002E00550055006500420204005
:102550003FC00440040003C000400000044027C006
:1025600000400000000000100010041027E00000F0
:10257000000020403FC00140070004C0044020404C
:1025800020403FC000400040000007C0040007C0DA
:10259000040003C00000044007C00440040003C05E
:1025A0000040000003800440044003800000041049
:1025B00007F0045004400380000000000380044042
:1025C000045007F00010044007C00240040004005B
:1025D0000000000006400540054004C00000000067
:1025E00004001F80044000400000040007800040F9
:1025F000044007C000400400070004C0018006003A
:102600000400060001C0070001C0060000000440ED
:1026100006C0010006C0044000000410071004E0DA
:102620000180060004000000044005C0064004408C
:1026300000000000000004007BE0402000000000DB
:1026400000000000FFF000000000000040207BE0E0
:102650000400000000004000800040002000200036
:10266000400000000000000000000000000000002A
:1026700000000000000000001FCC000C0000000063
:10268000000000000800300060000800300060001A
:102690000000022003FC1E20022003FC1E2002205A
:1026A000000000000E1811043FFF10840C78000099
:1026B00000000F0010840F3800C0077818840078DD
:1026C000000000780F8410C411240E9800E40084E8
:1026D0000008080068007000000000000000000012
:1026E000000000000000000007E01818200440026D
:1026F0000000000040022004181807E0000000005D
:1027000000000240024001800FF0018002400240C0
:1027100000000080008000800FF8008000800080B2
:1027200000000001000D000E00000000000000008D
:102730000000000000800080008000800080008099
:1027400000800000000C000C0000000000000000F1
:10275000000000000006001800600180060018005C
:102760002000000007F0080810041004080807F013
:1027700000000000080408041FFC0004000400001E
:10278000000000000E0C10141024104411840E0CD4
:10279000000000000C1810041104110412880C70C1
:1027A0000000000000E00320042408241FFC002493
:1027B000000000001F98108411041104108810708C
:1027C0000000000007F00888110411041888007048
:1027D000000000001C00100010FC13001C00100082
:1027E000000000000E3811441084108411440E388B
:1027F000000000000700088C10441044088807F00F
:102800000000000000000000030C030C00000000AA
:1028100000000000000000010106000000000000B0
:10282000000000000080014002200410080810048D
:1028300000000220022002200220022002200220AA
:10284000000000001004080804100220014000806D
:10285000000000000E001200100C106C10800F0021
:10286000000003E00C1813E4142417C4082807D050
:1028700000000004003C03C41C40074000E4001CAE
:10288000000410041FFC1104110411040E880070D0
:10289000000003E00C1810041004100410081C10B1
:1028A000000010041FFC100410041004080807F0B6
:1028B000000010041FFC1104110417C410040818B0
:1028C000000010041FFC1104110017C010000800C4
:1028D000000003E00C181004100410441C780040A1
:1028E000000010041FFC10840080008010841FFC76
:1028F00010040000100410041FFC10041004000059
:10290000000000030001100110011FFE1000100064
:10291000000010041FFC110403801464181C100430
:10292000000010041FFC1004000400040004000C4C
:10293000000010041FFC1F0000FC1F001FFC1004FF
:10294000000010041FFC0C04030000E010181FFC22
:10295000100007F00808100410041004080807F01D
:10296000000010041FFC10841080108010800F00E5
:10297000000007F0081810241024101C080A07F2A1
:10298000000010041FFC1104110011C011300E0CC6
:10299000000400000E1C11041084108410441C3824
:1029A00000001800100010041FFC10041000180094
:1029B000000010001FF810040004000410041FF8A9
:1029C000100010001E0011E0001C007013801C009D
:1029D00010001FC0103C00E01F0000E0103C1FC0B2
:1029E00000001004180C163401C001C01634180C75
:1029F000100410001C00130400FC13041C00100041
:102A000000000804101C1064108413041C04101827
:102A100000000000000000007FFE40024002400273
:102A20000000000030000C0003800060001C000368
:102A3000000000004002400240027FFE0000000053
:102A40000000000000002000400040004000200086
:102A5000000000010001000100010001000100016F
:102A600000010000400040002000000000000000C5
:102A7000000000000098012401440144014400FCCE
:102A8000000410001FFC008801040104008800708D
:102A900000000000007000880104010401040088A7
:102AA00000000000007000880104010411081FFCF0
:102AB0000004000000F8014401440144014400C83E
:102AC00000000000010401040FFC110411041100B6
:102AD0001800000000D601290129012901C90106B9
:102AE000000010041FFC008401000100010400FC30
:102AF000000400000104190419FC00040004000093
:102B000000000000000300010101190119FE00008E
:102B1000000010041FFC0024004001B4010C01045B
:102B200000000000100410041FFC0004000400005A
:102B30000000010401FC0104010001FC010401008A
:102B400000FC010401FC008401000100010400FC00
:102B50000004000000F8010401040104010400F86D
:102B60000000010101FF00850104010400880070DC
:102B7000000000000070008801040104010501FF4D
:102B800000010104010401FC008401040100018032
:102B90000000000000CC012401240124012401983C
:102BA000000000000100010007F80104010400001A
:102BB0000000010001F8000400040004010801FC09
:102BC0000004010001800170000C00100160018010
:102BD000010001F0010C003001C00030010C01F0D7
:102BE000010000000104018C00740170018C0104DB
:102BF0000000010101810171000E001801600180D7
:102C0000010000000184010C013401440184010C25
:102C10000000000000000000000001003EFC400237
:102C200040020000000000000000FFFF0000000064
:102C300000000000400240023EFC010000000000D5
:102C40000000000060008000800040004000200084
:102C50002000000000000000000000000000000054
:102C60000000000000000000000000000000000064
:102C70000000000000000000000000000000000054
:102C800000000000000F80380FFE380F8038000071
:102C90000000000000000000000000000000000034
:102CA0000100000600000C000038000031000006A2
:102CB00000000C00003800003000000000000000A0
:102CC000000061800067F807F98000618000618082
:102CD0000061800061800067F807F9800061800072
:102CE000000000000000000001C0E003E0F006303A
:102CF000080418081FFFFE040E080787F00381E090
:102D000000000000000001F000060C0004040806AA
:102D10000C7001F9C0000E00003BE000EC18070841
:102D200008040C180003E00000000001E00007F0B8
:102D300003F818041C0804170807E1D003C0E000DA
:102D400023B0003C08002008000010000000000034
:102D5000000100003100003200001C0000000000F3
:102D60000000000000000000000000000000000063
:102D70000000000000000000000000000000000053
:102D800000007F0001FFC00780F00C001810000455
:102D90002000020000000000002000021000040CCF
:102DA00000180780F001FFC0007F00000000000055
:102DB00000000000000000000000000000004200D1
:102DC000006600006600003C0000180003FFC00021
:102DD0001800003C00006600006600004200000091
:102DE00000000800000800000800000800000800BB
:102DF00001FFC000080000080000080000080000F3
:102E00000800000000000001000031000032000056
:102E10001C00000000000000000000000000000096
:102E20000000000000000000000008000008000092
:102E30000800000800000800000800000800000862
:102E40000000080000080000000000000000000072
:102E500000003800003800003800000000000000CA
:102E60000000000000000000000000000000000062
:102E70000000000600001C000070000180000E0031
:102E800000380000C0000700001C000030000000F7
:102E90000000000000007F8001FFE003807006005A
:102EA0001804000804000806001803807001FFE001
:102EB000007F800000000000000000000100080109
:102EC000000801000803FFF807FFF80000080000F1
:102ED0000800000800000000000000000001C038E9
:102EE00002C05804009804011804021804041806CB
:102EF0001C1803F81801E0F80000000000000000B2
:102F00000001C0E003C0F004000804080804080839
:102F100006180803F41801E7F00001E000000000C3
:102F20000000000000000300000D0000110000611F
:102F30000000810803010807FFF80FFFF8000108EF
:102F40000001080000000000000000E007FCD006BF
:102F50000808061008061008061008061838060F9C
:102F6000F00607C0000000000000000000003F80E5
:102F700001FFE0038430020818041008041008045C
:102F80001008071810030FF00007C0000000000031
:102F90000000000003C0000700000600000600F863
:102FA0000607F806180006E000070000060000000B
:102FB000000000000001E1E003F7F00634100418FF
:102FC00008041808040C08040C0806161803F3F08B
:102FD00001C1E000000000000000F80003FC300325
:102FE0000638040208040208040208040410030856
:102FF000F001FFC0007F00000000000000000000A2
:103000000000000000000000000070380070380070
:103010007038000000000000000000000000000008
:103020000000000000000000000000000000301A56
:1030300000301C0000000000000000000000000044
:103040000000000000000000000800001400002242
:1030500000004100008080010040020020040010B8
:10306000080008000000000000002100002100000E
:10307000210000210000210000210000210000218A
:1030800000002100002100000000000000000000FE
:1030900008000804001002002001004000808000A9
:1030A00041000022000014000008000000000000A1
:1030B0000003C00004C000040000080038080F38F6
:1030C0000808380810000C300007E00003C00000BA
:1030D0000000000000003F8000FFE0038070020F4E
:1030E0001006708804C088048308047F8802C0909A
:1030F00003012000FE400000080000180001F80055
:103100003E0801C20007020007E20000FE00001FA7
:10311000C80001F800003800000804000807FFF8A4
:1031200007FFF8040808040808040808040808064B
:10313000180803F41801E7F00001E00000000000A7
:1031400000003F8001FFE0038070020018040008C7
:103150000400080400080400100600200780C000D6
:10316000000004000807FFF807FFF8040008040047
:103170000804000804001802001003807001FFE03A
:10318000007F8000000004000807FFF807FFF80434
:103190000808040808040808040808043E08040095
:1031A0000806001801006000000004000807FFF88E
:1031B00007FFF804080804080004080004080004D5
:1031C0003E00060000060000018000000000000034
:1031D00000003F8001FFE003807006001804000833
:1031E0000402080402080203F00783F00002000052
:1031F000020004000807FFF807FFF80408080008A9
:103200000000080000080000080004080807FFF894
:1032100007FFF80400080000000000000400080494
:10322000000804000807FFF807FFF804000804007E
:103230000804000800000000000000000000000674
:10324000000007000001040001040001040003075E
:10325000FFFE07FFFC04000004000004000004005F
:103260000807FFF807FFF8040C08001800003E00EC
:1032700004C7800503C80600F804003804001800DD
:10328000000804000807FFF807FFF8040008000022
:1032900008000008000008000008000008000018EE
:1032A00000006000000004000807FFF8078008071E
:1032B000FC00007FC00003F80007C0007800078012
:1032C0000807FFF807FFF804000804000807FFF8E4
:1032D00007000803C00000E000003800001E0000E6
:1032E00007000001C00400F007FFF8040000000020
:1032F00000007F8001FFE0038070060018040008D2
:1033000004000806001803003001FFE0007F800081
:10331000000004000807FFF807FFF804040804048D
:1033200000040400040400040400060C0003F80078
:1033300001F000000000000000007F8001FFE003BA
:1033400080700600880400880400C806003C030062
:103350003E01FFE6007F8400000004000807FFF83C
:1033600007FFF8040808040800040C00040F000418
:103370000BC00610F003F03801E008000008000060
:103380000001E0F803F030063010041808041808B3
:10339000040C08040C080206180207F00781E0007C
:1033A000000001800006000004000004000004008A
:1033B0000807FFF807FFF8040008040000040000F5
:1033C00006000001800004000007FFE007FFF00492
:1033D00000180000080000080000080000080000B5
:1033E0000804001007FFE0040000040000060000CD
:1033F00007E00007FE00041FE00001F800003800AD
:1034000001E0043E0007C0000600000400000400C4
:103410000007E00007FFC0041FF80007C007F8001E
:1034200007FF80043FF80007C004F800070000040D
:10343000000000000004000806001807C07805F12D
:10344000C8003E00001F800463E80780F8060018EB
:1034500004000800000004000006000007800007C8
:10346000E008047C08001FF80007F800180804E0D2
:10347000080700000600000400000000000100082A
:103480000600380400F80403E8040F08047C08056B
:10349000F00807C0080700180400600000000000E2
:1034A000000000000000000000000000003FFFFEE0
:1034B0002000022000022000022000022000020062
:1034C000000000000000000008000007000000C02D
:1034D000000038000006000001C000003000000EAF
:1034E0000000010000000000000000002000022099
:1034F00000022000022000022000023FFFFE000028
:1035000000000000000000000000000000000000BB
:103510000000000800001000003000002000003013
:103520000000100000080000000000000000000083
:103530000100000100000100000100000100000185
:103540000000010000010000010000010000010076
:10355000000100000000000000000020000020002A
:10356000001000001000000000000000000000003B
:103570000000000000000000000000F00019F8004A
:103580001B18002208002608002408002410003F11
:10359000F8001FF8000008000018000000040000F8
:1035A00007FFF80FFFF000181800100800200800AF
:1035B0002008003018001FF0000FC00000000000BD
:1035C000000007C0001FF00018300020080020088D
:1035D000002008003C08001C1000006000000000F3
:1035E00000000000000007C0001FF0003818002095
:1035F0000800200800200804101007FFF80FFFF053
:103600000000100000000000000000000007C000E3
:103610001FF0001230002218002208002208003299
:1036200008001E10000E2000000000000000200016
:1036300000200800200801FFF803FFF80620080416
:1036400020080420080720000300000000000000FC
:103650000000000E000E6E001FF30031B10020B11B
:103660000020B1003191001F13002E1E00200E001B
:10367000300000000004000807FFF80FFFF80010FA
:1036800008002000002000002008003FF8001FF87C
:1036900000000800000000000000000000200800FA
:1036A0002008002008063FF8063FF8000008000048
:1036B00008000008000000000000000000000000FA
:1036C0000000030000030020010020010020030689
:1036D0003FFE063FFC00000000000000000000006C
:1036E0000004000807FFF80FFFF80001880003003E
:1036F000002FC00038F80020380020080000080023
:10370000000000000000000004000804000804009D
:103710000807FFF80FFFF800000800000800000885
:10372000000000000000002008003FF8003FF80003
:103730001008002000003FF8003FF80010080020AB
:1037400000003FF8003FF8000008000000002008DB
:10375000003FF8003FF800100800100000200000B3
:103760002008003FF8001FF80000080000000000DB
:10377000000007C0000FF0001830003008002008DB
:10378000002008003008001830000FF00007C000CB
:103790000000000000002001003FFF003FFF00107C
:1037A00011002009002008002008003038001FF018
:1037B000000FC00000000000000007C0001FF00064
:1037C0003818002008002008002009001011001FF0
:1037D000FF003FFF0000010000000020080020085B
:1037E000002008003FF8003FF8000808001008001B
:1037F0002008002000003000003000000000000021
:1038000000000000000C78001E1800330800230898
:103810000021080021880021980030F00038600065
:10382000000000000000200000200000200000FF39
:10383000F003FFF8002008002008002008000030F6
:10384000000000000000000000002000003FF00029
:103850007FF8000018000008000008002010003F5A
:10386000F8007FF0000010000000000000002000C1
:10387000003000003C00003F800023F00000780092
:103880000070002380003C00003000002000002079
:1038900000003C00003FE00023F80000E0002700AB
:1038A000003E00003FE00021F80001E0003E000083
:1038B0002000000000002008002008003838003EEA
:1038C000680027800003C8002CF800383800201852
:1038D000002008000000000000002000003003006D
:1038E0003C01003F830023EC000070002380003C7B
:1038F0000000200000200000000000000000000088
:103900000038080020380020F80023E8002F880045
:103910003E08003808002018000070000000000079
:10392000000000000000000000000000000008008F
:103930000014001FF7FC3000062000020000000009
:103940000000000000000000000000000000000077
:1039500000000000FFFFFF0000000000000000006A
:103960000000000000000000000000002000023005
:1039700000061FF7FC001400000800000000000013
:10398000000000000000000000000000001800001F
:10399000600000400000400000200000100000080F
:1039A00000000400000400000C00001000000000F3
:1039B00000020000300000000200000004000000CF
:1039C0000200000000C0000000000000000800002D
:1039D00010000000000000000000000033000000A4
:1039E0003400000035000000360000003700000001
:1039F0003800000000000000004C0040014C004076
:103A0000204C0040214C0040404C0040414C0040C4
:103A1000604C0040614C0040804C0040814C0040B4
:103A2000204D0040443A000000000020B00000009B
:103A300080010000F43A0000B0000020C007000040
:103A40009C010000000000000000000000000000D9
:103A50000000000000000000000000000000000066
:103A60000000000000000000000000000000000056
:103A7000000000007800A00000000000000000002E
:103A80000000000000000000000000000000000036
:103A90000000000000000000000000000000000026
:103AA0000000000000000000000000000000000016
:103AB0000000000000000000000000000000000006
:103AC00000000000000000000000000000000000F6
:103AD00000000000000000000000000000000000E6
:103AE00000000000000000000000000000000000D6
:043AF000C0C62D001F
:0400000500000145B1
:00000001FF
