:020000040800F2
:10000000582E0020D9A80008490D00084B0D000803
:100010004F0D0008530D0008570D000800000000A8
:100020000000000000000000000000005B0D000860
:100030005D0D0008000000005F0D0008610D000864
:10004000F3A80008F3A80008F3A80008F3A8000824
:10005000F3A80008F3A800085D820008D989000809
:100060001583000851810008F3A80008F3A80008D0
:10007000F3A80008F3A80008299700089F9E00082D
:10008000F3A800085F950008F3A80008F3A800088B
:10009000F3A80008F3A80008F3A8000803840008E8
:1000A000F3A80008F3A80008F3A80008F3A80008C4
:1000B000F3A80008F3A80008F3A80008F3A80008B4
:1000C000F3A80008F3A80008F3A80008F3A80008A4
:1000D000F3A800089390000847940008FF960008D2
:1000E00033850008F3A80008F3A80008F3A8000867
:1000F000F3A80008F3A80008F3A80008F3A8000874
:10010000F3A80008F3A8000889770008F3A80008FE
:100110008D9B0008F3A80008098D0008B738000877
:10012000F3A80008F3A80008F3A80008F3A8000843
:10013000F3A80008F3A80008F3A80008F3A8000833
:10014000F3A80008F3A80008F3A80008F3A8000823
:10015000F3A80008F3A80008A9910008F3A8000874
:10016000F3A80008F3A80008F3A80008F3A8000803
:10017000F3A80008F3A80008F3A80008F3A80008F3
:10018000F3A80008F3A80008DFF80CD01AF01EF955
:10019000004800479D010008582E00204FF4A06041
:1001A0000AF0ACFBA8200AF0ADFA01F070FA00F0FA
:1001B000E1FE02F071F904F01DFE01F04FFE01F0C6
:1001C00031FB10F014FA09F02FFF09F0F0FF04F0F2
:1001D0005BFEA82141F61F4006F0F1FF00214EF61C
:1001E0005F2004F0FBFB00214EF65F2004F052FC80
:1001F00000214EF65F2004F0ACFC00214EF65F209B
:1002000004F007FD4FF4165009F09DFB4FF4165013
:1002100008F0F2FFB0EE041AF0EE000A9FEDFE0ABD
:10022000FE4806F003FEB0EE001AF7EE000A9FED5E
:10023000FC0AFC4806F0FAFD532140F2E73007F0D3
:100240006FF90120F849086002F0B1F901F006FEEB
:10025000E0E3F648006801287CD1F54800680128F1
:1002600039D1F4480068012813D14FF4E1614FF40B
:100270007A6005F0B6FE05F060F94FF4FA7140F6C9
:100280008C2006F009FC6420EA4908600220E64957
:100290000860E8480068642801D100F0BFFEE54826
:1002A0000068022817D100F0CDFE4FF42F7140F600
:1002B000FC0006F023FB04F027FF05F0AEF940F246
:1002C000DC514FF4486005F0AEFF00F0B1FE02F0E3
:1002D000CAFF00BFFEE7D648006802283AD1D548D9
:1002E0000068012813D14FF4E1614FF47A6005F002
:1002F00078FE04F02AFF4FF4FA7140F68C2006F0E5
:100300001AFA6420CB4908600220C7490860C9482E
:100310000068642801D100F081FEC6480068022808
:1003200018D100F08FFE40F2EE2140F6980006F062
:100330004CFB04F0E9FE05F08AF840F2DC5140F68F
:10034000485005F070FF00F073FE02F04EFF00BF52
:10035000FEE7FFE7B548006802287DD1B548006890
:10036000012810D1002141F2A86005F0C5FD01204F
:10037000B14908600220AC49086040F6AC5140F633
:10038000B83005F02EFEAD484068012813D1AC48C6
:10039000006880B905F0D1F84FF42F7140F6543061
:1003A00006F07AFB0220A04908606420A149086099
:1003B0000120A34908609F480068642801D100F02B
:1003C0002DFE9E484068012821D19A4800680228E5
:1003D0001DD100F037FE4FF42F7140F6282006F0B3
:1003E0008DFA04F091FE05F018F94FF4C8614FF44E
:1003F0007A6005F07FFF40F2DC514FF47A6005F03F
:1004000079FF00F015FE02F0AAFF00BFFEE7884862
:100410004068012813D18A48006880B904F095FE2D
:100420004FF42F7140F6543006F085F902207E49D2
:10043000086064207F4908600120814908607D4888
:100440000068642801D100F0E9FD7948406801287E
:1004500023D17848006800E01FE002281DD100F099
:10046000F1FD4FF4167140F68C2006F0AEFA04F060
:100470004BFE04F0ECFF4FF4C8614FF47A6005F0D6
:1004800039FF40F2DC514FF47A6005F033FF00F0A1
:10049000CFFD02F026FF00BFFEE764480068032896
:1004A0007DD164480068012816D100214FF4965090
:1004B00005F022FD002141F2A86005F01DFD02209B
:1004C0005D4908604FF42F6140F6B83005F089FDB2
:1004D0004FF4FA705449086058488068012874D174
:1004E00064205449086004F00FFE05F026F800214E
:1004F0004FF4FA6006F0D0FA03204F49086040F646
:10050000C41140F6980006F02EFB4C48C068012844
:1005100040D104F0F9FD05F07BFC40F214514FF49A
:10052000FA6005F06CFF09E000F078FD02203E491A
:10053000086040480068022800D100E0F4E700BFEE
:1005400000F080FD40F26C714FF47A7005F0BEFF50
:1005500004F0DAFD05F0C1FA4FF4FA6141F2883097
:1005600006F0E9F804F0D0FD05F074FB002141F23B
:10057000707005F0BFFE002141F2707005F0BAFE08
:1005800040F2DC5140F6D86005F0B4FE00F050FDBA
:1005900002F0C9FF2648C06801285BD100E0D5E021
:1005A00004F0B2FD05F029FA40F214514FF4FA605C
:1005B00005F0CDFD0AE000F031FD02201A49086087
:1005C0001C480068022801D101E045E0F3E700BFC4
:1005D00000F038FD40F634014FF47A7006F044F82C
:1005E00004F092FD04F0B1FD4FF4FA6141F288305D
:1005F00006F0A1F804F088FD05F02CFB002141F283
:10060000707005F077FE002141F2707005F072FE07
:1006100040F2DC5116E0000000009643740E00200A
:100620000000C843AC0E0020E8050020C0040020F4
:10063000FC110020E40500200400002048110020E7
:100640007C00002040F6D86005F054FE00F0F0FC7D
:1006500002F0C4FF00BFFEE7FE488068012803D017
:10066000FD488068002871D1FC4800680228FAD152
:100670006420FB49086004F047FD04F066FD4FF478
:100680007A71084606F057F80320F449086040F6EE
:10069000B83140F2A46006F04EF8EE48C068012878
:1006A00002D0ED48C068E8BB04F02EFD04F0BEFDAA
:1006B00040F214514FF4FA6005F0A1FE09E000F099
:1006C000ADFC0220E7490860E5480068022800D137
:1006D00000E0F4E700BF00F0B5FC40F634014FF451
:1006E0007A7005F0F3FE04F00FFD05F022F84FF4E8
:1006F000FA6141F2883006F036FA04F005FD05F0A3
:1007000097F8002141F2707005F0F4FD002141F2EC
:10071000707005F0EFFD40F2DC5140F6D86005F056
:10072000E9FD00E003E000F083FC02F056FECA4859
:10073000C068012841D104F0E7FC04F01BFE40F240
:1007400014514FF4FA6005F002FD0AE037E000F0C2
:1007500065FC0220C3490860C1480068022800D136
:1007600000E0F4E700BF00F06DFC40F634014FF408
:100770007A7005F012FF04F0C7FC05F0CBF84FF4D7
:10078000FA6141F2883006F087F904F0BDFC05F00B
:100790004FF8002141F2707005F0ACFD002141F2EC
:1007A000707005F0A7FD40F2DC5140F6D86005F00E
:1007B000A1FD00F03DFC02F063FE00BFFEE7AA4889
:1007C000006804287ED1A6480068012810D10021C5
:1007D00041F2A86005F090FB0120A04908600220CA
:1007E000A049086040F6AC5140F6B83005F0F9FB7E
:1007F00099484068012812D19C48006878B904F0F3
:100800009CFE4FF42F71880006F046F902209549AE
:10081000086064209249086001209449086090486B
:100820000068642801D100F0F9FB8B48406801287A
:100830002AD18B480068022826D100F003FC012051
:100840008B4908708B4908604FF4FA7009F0BCFFBF
:100850004FF42F7140F6282006F050F804F054FCB5
:1008600004F0DBFE4FF4C8614FF47A6005F0DBFC66
:1008700040F2A4614FF47A6005F0D5FC00F0D8FB9B
:1008800002F06DFD00BFFEE772484068012812D1FA
:100890007648006878B904F058FC4FF42F7188004E
:1008A00005F049FF02206F49086064206C49086028
:1008B00001206E4908606A480068642801D100F090
:1008C000ADFB00E02EE06348406801282AD164486F
:1008D0000068022826D100F0B5FB012064490870A9
:1008E000644908604FF4FA7009F06EFF4FF4167116
:1008F00040F68C2006F069F804F006FC04F0A7FD31
:100900004FF4C8614FF47A6005F08DFC40F2A461A9
:100910004FF47A6005F087FC00F08AFB02F0E1FCFE
:1009200000BFFEE750480068052873D14C480068B6
:10093000012816D100214FF4965005F0DDFA002170
:1009400041F2A86005F0D8FA02204449086040F658
:10095000D8614FF4FA6005F044FB4FF4FA70414956
:1009600008603D488068012872D164203C490860D5
:1009700004F0CAFB04F0E1FD00214FF4FA6006F038
:100980008BF803203549086040F6C41140F6980002
:1009900006F0E9F83048C068012875D104F0B4FBCE
:1009A00005F036FA40F214514FF4FA6005F027FDD5
:1009B00009E000F033FB02202A490860284800685B
:1009C000022800D100E0F4E700BF00F03BFB01206B
:1009D00027490870274908604FF4FA7009F0F4FEBF
:1009E00040F26C714FF47A7005F070FD04F08CFBEE
:1009F00005F073F84FF47A71480005F09CFE09F099
:100A0000AFFB08E002201B4908601B480078012862
:100A100001D101E01FE1F5E700BF40F26C714FF436
:100A2000FA6005F088FE04F06FFB05F013F9002171
:100A300041F2707005F05EFC002141F2707005F02B
:100A400059FC40F2DC514FF47A6005F053FC15E09C
:100A50007CE019E0FC110020481100200400002077
:100A6000E4050020E8050020C00400207C000020F0
:100A700074000020780000207500002000F0D8FAF3
:100A800002F051FD00BFFEE7A748C06801285BD116
:100A900004F03AFB04F0B1FF40F214514FF4FA6055
:100AA00005F055FB09E000F0B9FA02209F49086003
:100AB0009F480068022800D100E0F4E700BF00F082
:100AC000C1FA01209B4908709B4908604FF4FA70F5
:100AD00009F07AFE40F634014FF47A7005F0C4FD57
:100AE00004F012FB04F031FB4FF47A71480005F07A
:100AF00022FE09F035FB07E002208F4908608F488D
:100B00000078012800D100E0F6E700BF40F26C71E8
:100B10004FF4FA6005F00FFE04F0F6FA05F09AF8CB
:100B2000002141F2707005F0E5FB002141F2707088
:100B300005F0E0FB40F2DC514FF47A6005F0DAFB9F
:100B400000F076FA02F04AFD00BFFEE776488068C2
:100B5000012803D07A48806800287CD17948006851
:100B60000228FAD164207249086004F0CDFA04F03A
:100B7000ECFA00214FF4FA6005F0DDFD0320714925
:100B800008604FF4FA6140F68C2005F0D4FD664809
:100B9000C068012802D06A48C068A0BB04F0B4FA5B
:100BA00004F044FB40F214514FF4FA6005F027FCC6
:100BB00009E000F033FA02205C4908605C480068F4
:100BC000022800D100E0F4E700BF00F03BFA022069
:100BD000584908700120584908604FF4FA7009F02C
:100BE000F3FD40F634014FF47A7005F06FFC04F029
:100BF0008BFA04F09EFD4FF47A71480005F0B3FFC4
:100C000009F0AEFA08E029E002204B4908604B48A1
:100C10000078012800D100E0F6E700BF40F26C71D7
:100C20004FF4FA6005F09FFF04F06EFA04F000FE46
:100C3000002141F2707005F05DFB002141F27070FF
:100C400005F058FB40F2DC514FF47A6005F052FB9E
:100C500000F0EEF900E064E002F0BFFB3848C06845
:100C600001285CD104F050FA04F084FB40F21451E6
:100C70004FF4FA6005F06BFA09E000F0CFF90220BA
:100C80002A4908602A480068022800D100E0F4E7F9
:100C900000BF00F0D7F9022026490870012026493C
:100CA00008604FF4FA7009F08FFD40F634014FF4FC
:100CB0007A7005F072FC04F027FA04F02BFE4FF472
:100CC0007A71480005F0E8FE09F04AFA07E00220D0
:100CD0001949086019480078012800D100E0F6E7BA
:100CE00000BF40F26C714FF4FA6005F0D5FE04F0DD
:100CF0000BFA04F09DFD002141F2707005F0FAFA44
:100D0000002141F2707005F0F5FA40F2DC514FF429
:100D10007A6005F0EFFA00F08BF902F0B1FB00BF4A
:100D2000FEE7FFF796BA0000FC110020E80500205E
:100D3000E4050020740000207800002075000020E9
:100D40004811002004000020704700BFFEE700BFEC
:100D5000FEE700BFFEE700BFFEE770477047704741
:100D6000704700000CB500200190009076480068A4
:100D700040F480307449086000BF7348006800F494
:100D8000003000900198401C0190009818B901981B
:100D9000B0F5A04FF1D16C48006800F4003010B1FC
:100DA0000120009001E0002000900098012846D129
:100DB00065484030006840F0805063494031086029
:100DC0006248006840F44040604908605E4808306E
:100DD00000685D49083108600846006840F400403A
:100DE00008600846006840F4A05008605848091F91
:100DF0000860081F006840F08070091F086000BF8D
:100E00005148006800F000700028F9D040F20570E9
:100E1000504908604C480830006820F003004A49F7
:100E2000083108600846006840F00200086000BF12
:100E300045480830006800F00C000828F8D10CBDC7
:100E400010B54548006840F47000434908603E48CA
:100E5000006840F001003C49086000203A49083130
:100E60000860394800683D490840374908603C48F7
:100E7000091D0860081F006820F48020091F086011
:100E8000002031490C310860FFF76CFF4FF0006023
:100E900031498039086010BD70B50020002202235E
:100EA00000240221284D08352D6805F00C0020B1E2
:100EB000042806D0082834D107E02A4D2A4E356090
:100EC00033E02A4D284E35602FE01F4D2D1D2D6833
:100ED000C5F380541C4D2D1D2D6805F03F0154B104
:100EE000224DB5FBF1F5184E361D3668C6F388164F
:100EF00005FB06F209E01B4DB5FBF1F5124E361D60
:100F00003668C6F3881605FB06F20F4D2D1D2D68B9
:100F1000C5F301456D1C6B00B2FBF3F5124E356055
:100F200003E0104D104E356000BF00BF064D083580
:100F30002D68C5F303150E4E705D0B4D2D68C54031
:100F4000094E356070BD000000380240007000405E
:100F500008544007003C024088ED00E0FFFFF6FE29
:100F6000103000240024F400A400002000127A00B5
:100F7000A80000201CB5012104200AF053F842F219
:100F80003000009001208DF8040000208DF806004C
:100F900003208DF8050001208DF8070069462E48D2
:100FA00009F0A2FD42F230012B4809F019FE01219F
:100FB00010200AF037F84FF44050009001208DF8CF
:100FC000040000208DF8060003208DF805000120A4
:100FD0008DF807006946214809F086FD4FF440511D
:100FE0001E4809F0FDFD012108460AF01BF8042007
:100FF000009001208DF8040000208DF806000320E9
:101000008DF8050001208DF807006946144809F0A5
:101010006BFD0421124809F0E3FD1CBD00201149BD
:10102000086001201049C1F8B002104908607047FB
:1010300001200C4908600C49C1F8B00200200B499E
:10104000086070470120074908600749C1F8B002ED
:101050000649086070470000000802400010024086
:10106000000002408802404200004242B402424274
:1010700070B5044614B10120FE490870FD4800789F
:10108000002862D00121FC4809F090FD28B302211C
:10109000F94809F08BFD00B30421F74809F086FDFB
:1010A000D8B10821F44809F081FDB0B11021F2480F
:1010B00009F07CFD88B18021EF4809F077FD08B97F
:1010C000012500E000250121EC4809F06FFD08B979
:1010D000012000E0002005437DB30A2009F074FBE5
:1010E0000020E44908700121E34809F05FFD08B9D8
:1010F000012070BD0221E04809F058FD08B9022026
:10110000F7E70421DC4809F051FD08B90320F0E7B6
:101110000821D94809F04AFD08B90420E9E710215F
:10112000D54809F043FD08B90520E2E78021D248FF
:1011300009F03CFD10B90620DBE706E00121CF48AD
:1011400009F034FD68BB0720D3E70121CA4809F044
:101150002DFD012825D10221C74809F027FD0128CE
:101160001FD10421C44809F021FD012819D108210B
:10117000C14809F01BFD012813D11021BE4809F018
:1011800015FD01280DD18021BB4809F00FFD012874
:1011900007D10221B84809F009FD012801D1B5495C
:1011A00008700020A5E708B56CE2B5480088612802
:1011B00019D100221146102001F030F9012200213E
:1011C000202001F02BF9102003230122014600907A
:1011D000302000F031FF00F002FE0120A949086034
:1011E0007A20A7490880A6480088622819D10022E1
:1011F0001146102001F012F901220021202001F0F7
:101200000DF910200323022201460090302000F047
:1012100013FF00F0E4FD02209A4908607A20984903
:10122000088097480088632819D1002211461020B1
:1012300001F0F4F801220021202001F0EFF8102045
:1012400003231A4601460090302000F0F5FE00F01E
:10125000C6FD03208B4908607A20894908808848A8
:101260000088642819D100221146102001F0D6F818
:1012700001220021202001F0D1F8102003230422B4
:1012800001460090302000F0D7FE00F0A8FD0420B9
:101290007C4908607A207A49088079480088652866
:1012A00023D102221021084601F0B8F803221021B0
:1012B000202001F0B3F808221021302001F0AEF810
:1012C00009221021402001F0A9F810200323012257
:1012D00001460090502000F0AFFE00F080FD052098
:1012E000684908607A206649088065480088662851
:1012F00023D102221021084601F090F80322102188
:10130000202001F08BF808221021302001F086F80F
:1013100009221021402001F081F81020032302222D
:1013200001460090502000F087FE00F058FD062096
:10133000544908607A20524908805148008867283B
:1013400023D102221021084601F068F8032210215F
:10135000202001F063F808221021302001F05EF80F
:1013600009221021402001F059F8102003231A46C9
:1013700001460090502000F05FFE00F030FD072095
:10138000404908607A203E4908803D480088682826
:1013900023D102221021084601F040F80322102137
:1013A000202001F03BF808221021302001F036F80F
:1013B00009221021402001F031F8102003230422DB
:1013C00001460090502000F037FE00F008FD082094
:1013D0002C4908607A202A49088029480088692811
:1013E00023D104221021084601F018F8052210210B
:1013F000202001F013F808221021302001F00EF80F
:1014000009221021402001F009F8102003230122B5
:1014100001460090502000F00FFE00F0E0FC092093
:10142000184908607A2016490880154800886A28FB
:101430002ED104221021084600F0F0FF05221021D1
:10144000202000F0EBFF08221021302000F0E6FF02
:1014500009221021402000F0E1FF10200323022286
:1014600001460090502000F0E7FD00F0B8FC0A2093
:10147000044909E0BC0000200010024000080240BE
:101480001E080020B800002008607A2094490880D7
:10149000934800886B2823D104221021084600F0CD
:1014A000BDFF05221021202000F0B8FF08221021E6
:1014B000302000F0B3FF09221021402000F0AEFFE1
:1014C000102003231A4601460090502000F0B4FD7E
:1014D00000F085FC0B20834908607A208049088051
:1014E0007F4800886C2823D104221021084600F090
:1014F00095FF05221021202000F090FF08221021E6
:10150000302000F08BFF09221021402000F086FFE0
:1015100010200323042201460090502000F08CFD8F
:1015200000F05DFC0C206F4908607A206C4908804F
:101530006B4800886D2823D106221021084600F050
:101540006DFF07221021202000F068FF08221021E3
:10155000302000F063FF09221021402000F05EFFE0
:1015600010200323012201460090502000F064FD6A
:1015700000F035FC0D205B4908607A20584908804E
:10158000574800886E2823D106221021084600F013
:1015900045FF07221021202000F040FF08221021E3
:1015A000302000F03BFF09221021402000F036FFE0
:1015B00010200323022201460090502000F03CFD41
:1015C00000F00DFC0E20474908607A20444908804D
:1015D000434800886F2823D106221021084600F0D6
:1015E0001DFF07221021202000F018FF08221021E3
:1015F000302000F013FF09221021402000F00EFFE0
:10160000102003231A4601460090502000F014FDDC
:1016100000F0E5FB0F20334908607A20304908804C
:101620002F480088702823D106221021084600F098
:10163000F5FE07221021202000F0F0FE08221021E4
:10164000302000F0EBFE09221021402000F0E6FEE1
:1016500010200323042201460090502000F0ECFCEF
:1016600000F0BDFB10201F4908607A201C4908804B
:101670000020FFF7FDFC1C490860084600680628AA
:1016800000D100E091E500BF00F0E8FB08BD1CB50B
:101690000121102009F0C6FC9F20009000208DF849
:1016A000040003208DF8050001208DF8070069462D
:1016B0000E4809F019FA0121042009F0B3FC0120B9
:1016C000009000208DF8040003208DF80500012013
:1016D0008DF807006946064809F006FA1CBD0000AF
:1016E0001E080020B80000201C000020001002404E
:1016F0000008024070B504460D46164600F02FFA69
:10170000002141EA4401C8B200F0D9FA00F068FAB9
:1017100018B100F044FA012070BD284600F0CFFA5D
:1017200000F05EFA304600F0CAFA00F059FA18B13B
:1017300000F035FA0120EFE700F031FA0020EBE786
:1017400070B504460D4600F00AFA002141EA440152
:10175000C8B200F0B4FA00F043FA284600F0AFFA3D
:1017600000F03EFA00F0FBF9012101EB4401C8B2A0
:1017700000F0A5FA00F034FA002000F0CEFA064698
:1017800000F00DFA304670BD70B504460025BC2C43
:1017900001DB012510E0622C01DB02250CE02A2C84
:1017A00001DB032508E0142C01DB042504E00A2CEE
:1017B00001DB052500E006252A461A216820FFF7EF
:1017C00099FF70BD70B50446B4F57A7F01DD4FF422
:1017D0007A74042C00DA04244FF47A7090FBF4F04D
:1017E000401EC5B22A4619216820FFF783FF05462F
:1017F000264604EBD671C1F34F00FFF7C5FF70BD5D
:1018000010B50446E006020E1C216820FFF772FFA7
:1018100010BD10B50446E006020E1B216820FFF73C
:1018200069FF10BD10B5002400F07CF980226B2107
:101830006820FFF75FFF642008F0C6FF00226B21DD
:101840006820FFF757FF0320FFF7E3FF0020FFF7B3
:10185000D7FF3220FFF7B6FF002238216820FFF7BC
:1018600049FF00226A216820FFF744FF002223215C
:101870006820FFF73FFF822237216820FFF73AFFF9
:1018800075216820FFF75CFF0446712C01D0732C92
:101890000DD101226B216820FFF72CFF00226C2163
:1018A0006820FFF727FF3220FFF78CFF01E00120BF
:1018B00010BD00210C20FFF743FF0446482C05D142
:1018C00011220A210C20FFF715FF01E00120EFE7AC
:1018D0000020EDE72DE9F04106460F4614461D466F
:1018E00000F03DF9002141EA4601C8B200F0E7F9F5
:1018F00000F076F920B100F052F90120BDE8F08146
:10190000384600F0DCF900F06BF900F028F901210D
:1019100001EB4601C8B200F0D2F900F061F90DE028
:10192000012C04D1002000F0F8F9287003E0012018
:1019300000F0F3F92870601EC4B26D1C002CEFD1CA
:1019400000F02DF90020D9E710B52DED088B82B0FD
:1019500001AB022241216820FFF7BCFF9DF8050082
:101960009DF8041040EA012004B2204618F0F0FA75
:1019700041EC1B0B9FED660B53EC102B18F03EFA5D
:1019800041EC1A0B9FED640B53EC102B18F01DF972
:1019900041EC190B18F096FB08EE100A9FED600A57
:1019A00028EE000ABDEEC00A10EE100A00B202B026
:1019B000BDEC088B10BD2DE9FC4104460D461646D2
:1019C0006B46062243216820FFF784FF0746BFB914
:1019D0009DF801009DF8001040EA012000B220802F
:1019E0009DF803009DF8021040EA012000B2288013
:1019F0009DF805009DF8041040EA012000B23080F7
:101A00003846BDE8FC812DE9FC4104460D461646EA
:101A10006B4606223B216820FFF75CFF0746BFB9F3
:101A20009DF801009DF8001040EA012000B22080DE
:101A30009DF803009DF8021040EA012000B22880C2
:101A40009DF805009DF8041040EA012000B23080A6
:101A50003846BDE8FC812DE9FC4104460D4616469A
:101A60006B46062203210C20FFF734FF0746BFB95F
:101A70009DF800009DF8011040EA012000B220808E
:101A80009DF802009DF8031040EA012000B2288072
:101A90009DF804009DF8051040EA012000B2308056
:101AA00011220A210C20FFF725FE3846BDE8FC81F3
:101AB0002DE9F04105460E461746984600F04FF8CE
:101AC000002141EA4501C8B200F0F9F800F088F8B9
:101AD00020B100F064F80120BDE8F081304600F04C
:101AE000EEF800F07DF800240CE018F8040000F097
:101AF000E6F800F075F818B100F051F80120EBE7B6
:101B0000601CC4B2BC42F0DB00F049F80020E3E7FF
:101B100052B81E85EBDD7440000000000000354027
:101B20000000C8421CB50121102009F07BFA4FF4D7
:101B30004060009000208DF8060001208DF807001D
:101B40008DF8040002208DF8050069468B4808F0E6
:101B5000CBFF4FF4C051894809F042F81CBD10B5C5
:101B60008648006820F44000844908600846006800
:101B700040F4800008600120814908608149C1F873
:101B8000A802042008F0D8FD00207D490860042048
:101B900008F0D2FD00207B49C1F8A80210BD10B5A5
:101BA0007648006820F440007449086008460068E0
:101BB00040F48000086000207149091F08607149E5
:101BC000C1F8AC02042008F0B7FD01206C49091FE0
:101BD00008606C49C1F8AC02042008F0ADFD10BDEE
:101BE00010B500246548006820F44000634908608F
:101BF00008460068086001206149086008F09CFD03
:101C000001206049C1F8A80208F096FD07E0601CB9
:101C1000C4B2FA2C03DDFFF7C2FF012010BD584803
:101C2000803800680028F2D15549091F086000BFBC
:101C3000F4E710B500205249091F08604F480068BA
:101C400020F440004D4908600846006840F48000D8
:101C5000086000204B49C1F8AC02022008F06CFD7E
:101C600001204749091F0860022008F065FD002097
:101C70004449C1F8A80210BD10B500204049091F11
:101C800008603E48006820F440003C49086008466F
:101C9000006840F48000086001203A49C1F8AC02B5
:101CA000022008F049FD01203549091F0860022083
:101CB00008F042FD00203349C1F8A80210BD70B5FC
:101CC00004462E48006820F440002C49086008466D
:101CD000006840F48000086000202949091F08605E
:101CE000002517E0E009264908606006040E02207E
:101CF00008F022FD01202349C1F8A802022008F0C3
:101D00001BFD00201E49091F0860022008F014FD79
:101D1000681CC5B2082DE5DB70BD70B50546002412
:101D20001648006820F4400014490860084600681E
:101D30000860002617E000201149091F08600220F2
:101D400008F0FAFC01200F49C1F8A8026006040E51
:101D50000B488038006808B1601CC4B2012008F04C
:101D6000EBFC701CC6B2082EE5DB15B9FFF784FF4B
:101D700001E0FFF75EFF204670BD0000001002404A
:101D8000AC0242420000424210B5FC4B19600023F5
:101D9000FB4CC4F8B832002217E00023F74C241D96
:101DA000236000F0800323B10123F44C0C34236042
:101DB00003E00023F14C0C3423600123EF4C241D7D
:101DC00023604306180E531CDAB2082AE5DB012310
:101DD000EA4C08342360EA4CC4F8B03210BD30B588
:101DE00000241CE004F1B001C8B20021FFF7CCFFD1
:101DF00000210846FFF7C8FF00211020FFF7C4FFAD
:101E0000002508E0DF4901EBC501085D0121FFF76E
:101E1000BBFF681CC5B2802DF4DB601CC4B2082C6B
:101E2000E0DB30BD00B500218D20FFF7ADFF0021C4
:101E30001420FFF7A9FF0021AF20FFF7A5FF00BD89
:101E400000B500218D20FFF79FFF00211020FFF734
:101E50009BFF0021AE20FFF797FF00BD30B50024A7
:101E60000CE0002506E00020C64901EBC50108553D
:101E7000681CC5B2802DF6DB601CC4B2082CF0DBF8
:101E8000FFF7ADFF30BDF0B5144600267F2801DC1A
:101E90003F2900DDF0BD0B46CF1701EB5777FF1050
:101EA000C7F10707FAB2CF1701EB5777FF10A1EB85
:101EB000C707FDB2C5F107070123BB40DEB24CB135
:101EC000B04B03EBC0039B5C3343AE4F07EBC00743
:101ED000BB5408E0AB4B03EBC0039B5CB343A94F7F
:101EE00007EBC007BB5400BFD4E72DE9F047064617
:101EF0000F4690469946DDF820A034460CE03D465A
:101F000006E0524629462046FFF7BDFF681CC5B2D1
:101F10004D45F6DD601CC4B24445F0DDFFF75FFFC0
:101F2000BDE8F0872DE9F84F80460F4616461C465F
:101F3000BA462046E31704EB5373DB1021464FEA01
:101F4000E47C04EB5C7C4FEAEC0CA4EBCC0CBCF125
:101F5000000F02D04FF0010C01E04FF0000C634481
:101F6000224604EBD27C4FEA6C0C03FB0CF303F02B
:101F7000FF0BA6F12000C6B200254EE00C2C07D1C5
:101F800006EB4600804901EB8000405D009013E0C5
:101F9000102C05D17D4800EB0610405D00900BE051
:101FA000182C07D106EBC600794901EB8000405D93
:101FB000009001E0BDE8F88F4FF0000927E000989D
:101FC00000F0800028B1394640460A9AFFF75BFFCF
:101FD00009E00A9808B9012000E0002002463946CD
:101FE0004046FFF750FF00984006000E0090781C16
:101FF000C7B2A7EB0A00A04205D1574608F101007D
:1020000000F0FF0806E009F1010000F0FF09B9F156
:10201000080FD4DB00BF681CC5B25D45AEDB00BF56
:10202000C8E710B50246012000E050430B1EA1F1A5
:102030000104E1B2F9D110BD2DE9FF4F81B007468F
:1020400091461E460E9D4FF0000A002439E0301BD9
:10205000401EC1B20A20FFF7E4FFB9FBF0F00A21ED
:10206000B0FBF1F201FB1208BAF1000F16D1701E9D
:10207000A04213DDB8F1000F0ED10120AB4605EBF5
:10208000DB71491001FB04710090C8B22B4620227D
:102090000299FFF747FF12E04FF0010A0120AB461B
:1020A00005EBDB71491001FB04710090C8B208F127
:1020B0003001CAB22B460299FFF734FF00BF601C03
:1020C000C4B2B442C3DB05B0BDE8F08FF8B5064634
:1020D0000F4615461C4621E004EBD4714910C1F1AE
:1020E0008001B14202DA00263819C7B2C4F14000BB
:1020F000B84204DA002006460746FFF7AFFE01208B
:1021000000902A78234639463046FFF70BFF2046D9
:1021100004EBD07106EB6101CEB26D1C28787E28ED
:1021200002DC28782028D7DAF8BD2DE9F8410446EA
:102130000F4615469846079E002D0EDA334615A227
:1021400039462046FFF7C2FF611DC8B243466A42C6
:1021500039460096FFF770FF0DE033460EA2394670
:102160002046FFF7B3FF611DC8B243462A463946F1
:102170000096FFF761FFBDE8F8810000B0824042A1
:10218000008040421409002098D201080CD70108B1
:10219000FCDC01082D000000200000002DE9FF4FAD
:1021A0002DED020B82B0804617461E46119C4FF063
:1021B000000900200190002508F1070000F0FF0948
:1021C000204604EBD071491001FB0791491CCDB2A8
:1021D00004EBD07105EB6101C9B20191B5EEC00A03
:1021E000F1EE10FA0FD22346AFF25802404605999D
:1021F000FFF76CFFF1EE400A9FEDFC1A60EE810ADA
:10220000B0EE600A0CE02346AFF274024046059936
:10221000FFF75CFFDFEDF50A60EE200AB0EE600A22
:10222000DFEDF20A80EE201AFCEEC10A10EE90AA51
:102230003B465246009448460599FFF7FDFE23466B
:10224000EBA228460599FFF741FF012E04D0022E8C
:1022500016D0032E13D15CE0FDEEC00A10EE900AFA
:10226000642190FBF1F00A2190FBF1F201FB120ACC
:1022700033465246009405990198FFF7DDFEC9E008
:10228000FDEEC00A10EE900A0A2190FBF1F06421E5
:1022900090FBF1F201FB12000A2826DAA24604EBB9
:1022A000DA7105EB6101C8B201230022009405999F
:1022B000FFF7C2FEFDEEC00A10EE900A0A2190FB65
:1022C000F1F0642190FBF1F201FB120B04EBDA71E7
:1022D0004910022202FB0151C8B2711ECBB25A460C
:1022E00000940599FFF7A8FE12E0FDEEC00A10EE7B
:1022F000900A0A2190FBF1F0642190FBF1F201FBBE
:10230000120A33465246009405990198FFF794FE4D
:1023100080E0FDEEC00A10EE900A4FF47A7190FB57
:10232000F1F201FB12000A2831DAA24604EBDA715D
:1023300005EB6101C8B20123002200940599FFF763
:102340007BFE04EBDA714910022202FB0151C8B294
:102350000123002200940599FFF76EFEFDEEC00AEE
:1023600010EE900A4FF47A7190FBF1F201FB120B20
:1023700004EBDA714910032202FB0151C8B2B11E0D
:10238000CBB25A4600940599FFF756FE41E0FDEEA8
:10239000C00A10EE900A4FF47A7190FBF1F201FB43
:1023A0001200642824DAA24604EBDA7105EB61011D
:1023B000C8B20123002200940599FFF73DFEFDEE0F
:1023C000C00A10EE900A4FF47A7190FBF1F201FB13
:1023D000120B04EBDA714910022202FB0151C8B260
:1023E000711ECBB25A4600940599FFF725FE10E006
:1023F000FDEEC00A10EE900A4FF47A7190FBF1F2F4
:1024000001FB120A33465246009405990198FFF7E2
:1024100013FE00BF00BF08B0BDE8F08F2DE9F84FF4
:1024200006460C461746A24620200090714800EB55
:10243000471B00252BE01BF805804FF0000920E02A
:1024400008F0800028B1012221463046FFF71BFD2D
:1024500004E0002221463046FFF715FD4FEA4860B0
:102460004FEA1068601CC4B2A4EB0A00102804D123
:102470000AF0FF04701CC6B206E009F1010000F08A
:10248000FF09B9F1080FDBDB00BF681CC5B200987B
:102490008542D0DBBDE8F88F1CB50121022008F091
:1024A000C1FD01208DF8040000208DF806000320F6
:1024B0008DF8050001208DF807004FF47040009062
:1024C00069464D4808F010FB01204C4908604C4912
:1024D000C1F8BC024949091D08604949C1F8B00268
:1024E0000021AE20FFF750FC0021D520FFF74CFC67
:1024F00000218020FFF748FC0021A820FFF744FCC2
:1025000000213F20FFF740FC0021D320FFF73CFCD7
:1025100000210846FFF738FC00214020FFF734FC7B
:1025200000218D20FFF730FC00211420FFF72CFC48
:1025300000212020FFF728FC00210220FFF724FCC7
:102540000021A120FFF720FC0021C020FFF71CFC88
:102550000021DA20FFF718FC00211220FFF714FCFD
:1025600000218120FFF710FC0021EF20FFF70CFC79
:102570000021D920FFF708FC0021F120FFF704FC1F
:102580000021DB20FFF700FC00213020FFF7FCFBDF
:102590000021A420FFF7F8FB0021A620FFF7F4FBA1
:1025A0000021AF20FFF7F0FBFFF758FC1CBD08B57A
:1025B00088E00020FEF75CFD1249086008460068CC
:1025C000012823D10C2003231A46B7EE000A00216C
:1025D00000900846FFF7E2FDFFF701FC01200A49E1
:1025E0000860642008F0F0F86DE0000000007A4414
:1025F0002E000000C000002000040240B4824042CF
:10260000008040421C000020C0040020FE480068FA
:10261000022812D10C2003231A46B0EE000A002132
:1026200000900846FFF7BAFDFFF7D9FB0220F749F3
:102630000860642008F0C8F845E0F3480068032803
:1026400012D10C2003231A46B0EE080A0021009094
:102650000846FFF7A3FDFFF7C2FB0320EB49086024
:10266000642008F0B1F82EE0E7480068042812D191
:102670000C2003231A46B1EE000A00210090084600
:10268000FFF78CFDFFF7ABFB0420E04908606420F6
:1026900008F09AF817E0DC480068052812D10C20F1
:1026A00003231A46B1EE040A002100900846FFF702
:1026B00075FDFFF794FB0520D4490860642008F0FD
:1026C00083F800E075E700BF08BD00B501223E2198
:1026D0003220FFF7D8FB01223D213220FFF7D3FB48
:1026E00001223C213220FFF7CEFB01223B21322088
:1026F000FFF7C9FB01223A213220FFF7C4FB012278
:1027000039213220FFF7BFFB012238213220FFF7A9
:10271000BAFB012237213220FFF7B5FB01223E210F
:102720004620FFF7B0FB01223D214620FFF7ABFB1F
:1027300001223C214620FFF7A6FB01223B21462037
:10274000FFF7A1FB01223A214620FFF79CFB012263
:1027500039214620FFF797FB012238214620FFF759
:1027600092FB012237214620FFF78DFB0122372102
:102770003220FFF788FB012237213120FFF783FB4E
:10278000012237213020FFF77EFB012237212F2045
:10279000FFF779FB012237212E20FFF774FB01227E
:1027A00037212D20FFF76FFB012237212C20FFF767
:1027B0006AFB012237212B20FFF765FB012237211D
:1027C0002A20FFF760FB012237212920FFF75BFB5E
:1027D000012237212820FFF756FB0122372146200E
:1027E000FFF751FB012237214720FFF74CFB012265
:1027F00037214820FFF747FB012237214920FFF707
:1028000042FB012237214A20FFF73DFB01223721FD
:102810004B20FFF738FB012237214C20FFF733FB19
:10282000012237214D20FFF72EFB012237214E20B8
:10283000FFF729FB012237214F20FFF724FB01225C
:1028400037214620FFF71FFB01222D213220FFF701
:102850001AFB01222D213120FFF715FB01222D212A
:102860003020FFF710FB01222D212F20FFF70BFB5B
:1028700001222D212E20FFF706FB01222D210846E3
:10288000FFF701FB01222D212C20FFF7FCFA01228A
:102890002D212B20FFF7F7FA01222D212A20FFF707
:1028A000F2FA01222D212920FFF7EDFA01222D2134
:1028B0002820FFF7E8FA01222D214620FFF7E3FA4E
:1028C00001222D214720FFF7DEFA01222D21482089
:1028D000FFF7D9FA01222D214920FFF7D4FA01226E
:1028E0002D214A20FFF7CFFA01222D214B20FFF79F
:1028F000CAFA01222D214C20FFF7C5FA01222D2111
:102900004D20FFF7C0FA01222D214E20FFF7BBFA20
:1029100001222D214F20FFF7B6FA01222D2146205A
:10292000FFF7B1FA01222D213220FFF7ACFA012284
:102930002C213220FFF7A7FA01222B213220FFF7AA
:10294000A2FA01222A213220FFF79DFA0122292131
:102950003220FFF798FA012228213220FFF793FA5C
:10296000012227213220FFF78EFA01222621322070
:10297000FFF789FA01222D214620FFF784FA012270
:102980002C214620FFF77FFA01222B214620FFF75A
:102990007AFA01222A214620FFF775FA012229211D
:1029A0004620FFF770FA012228214620FFF76BFA34
:1029B000012227214620FFF766FA01222621462020
:1029C000FFF761FA012226213220FFF75CFA01228B
:1029D00026213120FFF757FA012226213020FFF768
:1029E00052FA012226212F20FFF74DFA012226213B
:1029F0002E20FFF748FA012226212D20FFF743FA67
:102A0000012226212C2003E01C000020C00400200D
:102A1000FFF739FA012226212B20FFF734FA012291
:102A200026212A20FFF72FFA012226212920FFF74D
:102A30002AFA012226212820FFF725FA0122262141
:102A40004620FFF720FA012226214720FFF71BFA34
:102A5000012226214820FFF716FA012226214920CB
:102A6000FFF711FA012226214A20FFF70CFA012272
:102A700026214B20FFF707FA012226214C20FFF7E1
:102A800002FA012226214D20FFF7FDF9012226211D
:102A90004E20FFF7F8F9012226214F20FFF7F3F926
:102AA000012226215020FFF7EEF901221C213220BD
:102AB000FFF7E9F901221C213120FFF7E4F9012297
:102AC0001C213020FFF7DFF901221C212F20FFF706
:102AD000DAF901221C212E20FFF7D5F901221C2151
:102AE0002D20FFF7D0F901221C212C20FFF7CBF974
:102AF00001221C212B20FFF7C6F901221C212A20CC
:102B0000FFF7C1F901221C212920FFF7BCF901229E
:102B10001C212820FFF7B7F901221C214620FFF7CE
:102B2000B2F901221C214720FFF7ADF901221C2137
:102B30004820FFF7A8F901221C214920FFF7A3F93B
:102B400001221C214A20FFF79EF901221C214B2063
:102B5000FFF799F901221C214C20FFF794F901227B
:102B60001C214D20FFF78FF901221C214E20FFF779
:102B70008AF901221C214F20FFF785F901221C212F
:102B80005020FFF780F901221C213220FFF77BF94A
:102B900001221B213220FFF776F901221A2132206F
:102BA000FFF771F9012219213220FFF76CF9012298
:102BB00018213220FFF767F9012217213220FFF791
:102BC00062F9012216213220FFF75DF90122152159
:102BD0003220FFF758F901221C214620FFF753F954
:102BE00001221B214620FFF74EF901221A2146201F
:102BF000FFF749F9012219214620FFF744F9012284
:102C000018214620FFF73FF9012217214620FFF740
:102C10003AF9012216214620FFF735F90122152144
:102C20004620FFF730F9012215213220FFF72BF95A
:102C3000012215213120FFF726F90122152130202C
:102C4000FFF721F9012215212F20FFF71CF901229E
:102C500015212E20FFF717F9012215212D20FFF74E
:102C600012F9012215212C20FFF70DF9012215215F
:102C70002B20FFF708F9012215212A20FFF703F97D
:102C8000012215212920FFF7FEF801221521282015
:102C9000FFF7F9F8012215212720FFF7F4F80122A8
:102CA00015212620FFF7EFF8012215212520FFF737
:102CB000EAF8012215212420FFF7E5F80122152169
:102CC0002320FFF7E0F8012215214620FFF7DBF86B
:102CD000012215214720FFF7D6F8012215214820AF
:102CE000FFF7D1F8012215214920FFF7CCF8012286
:102CF00015214A20FFF7C7F8012215214B20FFF7C5
:102D0000C2F8012215214C20FFF7BDF80122152140
:102D10004D20FFF7B8F8012215214E20FFF7B3F838
:102D2000012215214F20FFF7AEF801221521502076
:102D3000FFF7A9F8012215215120FFF7A4F801227D
:102D400015215220FFF79FF8012215215320FFF78C
:102D50009AF8012215215420FFF795F80122152138
:102D60005520FFF790F8012218212320FFF78BF858
:102D7000012217212320FFF786F8012216212320A4
:102D8000FFF781F8012215212320FFF77CF80122AB
:102D900018215520FFF777F8012217215520FFF75A
:102DA00072F8012216215520FFF76DF80122152136
:102DB0005520FFF768F8012218211920FFF763F862
:102DC000012217211920FFF75EF801221621192090
:102DD000FFF759F8012215211920FFF754F80122B5
:102DE00014211920FFF74FF8012213211920FFF7B2
:102DF0004AF8012212211920FFF745F8012211217A
:102E00001920FFF740F8012210211920FFF73BF8A5
:102E100001220F211920FFF736F801220E21192077
:102E2000FFF731F801220D211920FFF72CF80122BC
:102E30000C211920FFF727F801220B211920FFF799
:102E400022F801220A211920FFF71DF80122092189
:102E50001920FFF718F8012208211920FFF713F8AD
:102E6000012207211920FFF70EF80122062119205F
:102E7000FFF709F8012205211920FFF704F80122C4
:102E800018215F20FEF7FFFF012217215F20FEF7C8
:102E9000FAFF012216215F20FEF7F5FF012215211E
:102EA0005F20FEF7F0FF012214215F20FEF7EBFF09
:102EB000012213215F20FEF7E6FF012212215F208D
:102EC000FEF7E1FF012211215F20FEF7DCFF012266
:102ED00010215F20FEF7D7FF01220F215F20FEF7B0
:102EE000D2FF01220E215F20FEF7CDFF01220D212E
:102EF0005F20FEF7C8FF01220C215F20FEF7C3FF11
:102F000001220B215F20FEF7BEFF01220A215F2074
:102F1000FEF7B9FF012209215F20FEF7B4FF01226D
:102F200008215F20FEF7AFFF012207215F20FEF797
:102F3000AAFF012206215F20FEF7A5FF012205213D
:102F40005F20FEF7A0FF012209212320FEF79BFF4F
:102F500001220A212320FEF796FF01220B212320C4
:102F6000FEF791FF01220C212320FEF78CFF0122A6
:102F700008212320FEF787FF012207212320FEF7E7
:102F800082FF012206212320FEF77DFF0122052179
:102F90002320FEF778FF012209215520FEF773FF59
:102FA00001220A215520FEF76EFF01220B21552038
:102FB000FEF769FF01220C215520FEF764FF012274
:102FC00008215520FEF75FFF012207215520FEF75B
:102FD0005AFF012206215520FEF755FF0122052147
:102FE0005520FEF750FF01220C212320FEF74BFF56
:102FF00001220C212420FEF746FF01220C2125206E
:10300000FEF741FF01220C212620FEF73CFF0122A2
:103010000C212720FEF737FF01220C212820FEF784
:1030200032FF01220C212920FEF72DFF01220C2165
:103030002A20FEF728FF01220C212B20FEF723FF78
:1030400001220C212C20FEF71EFF01220C212D2035
:10305000FEF719FF01220C212E20FEF714FF01229A
:103060000C212F20FEF70FFF01220C213020FEF74C
:103070000AFF01220C213120FEF705FF01220C215D
:103080003220FEF700FF01220C213320FEF7FBFE69
:1030900001220C213420FEF7F6FE01220C213520FE
:1030A000FEF7F1FE01220C213620FEF7ECFE012294
:1030B0000C213720FEF7E7FE01220C213820FEF715
:1030C000E2FE01220C213920FEF7DDFE01220C2157
:1030D0003A20FEF7D8FE01220C213B20FEF7D3FE5A
:1030E00001220C213C20FEF7CEFE01220C213D20C6
:1030F000FEF7C9FE01220C213E20FEF7C4FE01228C
:103100000C213520FEF7BFFE01220C214020FEF7E6
:10311000BAFE01220C214120FEF7B5FE01220C214E
:103120004220FEF7B0FE01220C214320FEF7ABFE49
:1031300001220C214420FEF7A6FE01220C2145208D
:10314000FEF7A1FE01220C214620FEF79CFE012283
:103150000C214720FEF797FE01220C214820FEF7A4
:1031600092FE01220C214920FEF78DFE01220C2146
:103170004A20FEF788FE01220C214B20FEF783FE39
:1031800001220C214C20FEF77EFE01220C214D2055
:10319000FEF779FE01220C214E20FEF774FE01227B
:1031A0000C214F20FEF76FFE01220C215020FEF76C
:1031B0006AFE01220C215120FEF765FE01220C213E
:1031C0005220FEF760FE01220C215320FEF75BFE29
:1031D00001220C215420FEF756FE01220C2155201D
:1031E000FEF751FEFEF7FBFD00BD0021F74808F099
:1031F00017FCDFEDF71A9FEDF61ADFEDF50A9FEDEC
:10320000F40A01F05BFFFEF729FEFFF75EFA3E20AD
:10321000F04908600CE0EF48017801223C20FEF7FD
:1032200032FEFEF7DCFDEB480068401EE94908600D
:10323000E84800683228EEDC3C20E74908600CE0F2
:10324000E549087801223221FEF71DFEFEF7C7FD91
:10325000E1480068401CE0490860DF4800685028E9
:10326000EEDB00BFFEE70021D84808F0D9FBDFED18
:10327000D81A9FEDD71ADFEDD60A9FEDD50A01F0D7
:103280001DFFFEF7EBFDFFF720FA3E20D149086055
:103290000CE0D048017801223C20FEF7F4FDFEF757
:1032A0009EFDCC480068401ECA490860C9480068B5
:1032B0003228EEDC3C20C84908600CE0C64908789A
:1032C00001223221FEF7DFFDFEF789FDC2480068CA
:1032D000401EC1490860C04800682828EEDC00BFD5
:1032E000FEE70021B94808F09BFBDFEDB91A9FED1E
:1032F000B81ADFEDB70A9FEDB60A01F0DFFEFEF760
:10330000ADFDFFF7E2F93E20B24908600CE0B1489C
:10331000017801223C20FEF7B6FDFEF760FDAD48C6
:103320000068401EAB490860AA4800682128EEDC0E
:103330003C20A94908600CE0A74908780122212116
:10334000FEF7A1FDFEF74BFDA3480068401CA24913
:103350000860A14800685028EEDB00BFFEE70021AE
:103360009A4808F05DFBDFED9A1A9FED991ADFEDA0
:10337000980A9FED970A01F0A1FEFEF76FFDFFF797
:10338000A4F93E20934908600CE09248017801229C
:103390003C20FEF778FDFEF722FD8E480068401EB7
:1033A0008C4908608B4800682128EEDC3C208A4963
:1033B00008600CE08849087801222121FEF763FDAE
:1033C000FEF70DFD84480068401E8349086082486E
:1033D00000682828EEDC00BFFEE700217B4808F0EB
:1033E0001FFBDFED7B1A9FED7A1ADFED790A9FED67
:1033F000780A01F063FEFEF731FDFFF766F93E2023
:10340000744908600CE07348017801223C20FEF703
:103410003AFDFEF7E4FC6F480068401E6D49086005
:103420006C4800681028EEDC3C206B4908600CE01A
:103430006949087801221021FEF725FDFEF7CFFC2F
:1034400065480068401C64490860634800685A2861
:10345000EEDB10205F4908600CE05E480178012235
:103460005A20FEF710FDFEF7BAFC5A480068401CCF
:1034700058490860574800681928EEDB00BFFEE78E
:103480000021524808F0CCFADFED511A9FED501A96
:10349000DFED4F0A9FED4E0A01F010FEFEF7DEFC55
:1034A000FFF713F93E204B4908600CE049480178CA
:1034B00001223C20FEF7E7FCFEF791FC454800683E
:1034C000401E44490860434800681028EEDC3C2058
:1034D000414908600CE04049087801221021FEF7BC
:1034E000D2FCFEF77CFC3C480068401C3A4908606E
:1034F000394800685A28EEDB1020364908600CE095
:103500003448017801225A20FEF7BDFCFEF767FC23
:1035100030480068401E2F4908602E480068052882
:10352000EEDC00BFFEE70021284808F079FADFED65
:10353000281A9FED271ADFED260A9FED250A01F0D4
:10354000BDFDFEF78BFCFFF7C0F83E202149086067
:103550000CE02048017801223C20FEF794FCFEF7A5
:103560003EFC1C480068401E1A4908601948006863
:103570001028EEDC3C20184908600CE01649087859
:1035800001221021FEF77FFCFEF729FC124800689B
:10359000401E11490860104800681E28EEDC10200B
:1035A0000C4908600CE00B48017801221E20FEF750
:1035B0006AFCFEF714FC07480068401C05490860D7
:1035C000044800681928EEDB00BFFEE70014004045
:1035D000000000009C000020A000002000212948DD
:1035E00008F01EFA5FED061A1FED071A5FED080AD4
:1035F0001FED090A01F062FDFEF730FCFFF765F8E8
:103600003E20214908600CE01F48017801223C203F
:10361000FEF739FCFEF7E3FB1B480068401E1A4921
:103620000860194800681028EEDC3C201749086043
:103630000CE01649087801221021FEF724FCFEF761
:10364000CEFB12480068401E104908600F48006811
:103650001E28EEDC10200C4908600CE00A480178B6
:1036600001221E20FEF70FFCFEF7B9FB064800689A
:10367000401E05490860044800680528EEDC00BFCC
:10368000FEE70000001400409C000020A000002085
:10369000B4EEC10AF1EE10FA01DDB0EE410AB4EE6B
:1036A000E00AF1EE10FA01D2B0EE600A704710B5F0
:1036B00001F0CDFB4FF40041FE4807F077FA10BB54
:1036C0004FF48041FB4807F071FAE0B90821FA484D
:1036D00007F06CFA012816D10421F74807F066FAC2
:1036E00088B90221F44807F061FA60B90020F34973
:1036F0000860F3490860F3490860F3490860F3493A
:103700000860F34908604FF40041EA4807F04EFAB8
:10371000E8B94FF48041E74807F048FAB8B9082102
:10372000E54807F043FA90B90421E34807F03EFA70
:1037300068B90221E04807F039FA40B90020DF49B2
:103740000860DF490860E0490860E14908604FF41B
:103750000041D84807F02AFA012820D18103D54832
:1037600007F024FA01281AD10821D34807F01EFADD
:10377000012814D10421D04807F018FA01280ED1ED
:103780000221CD4807F012FA48B90020CB49086061
:10379000CB490860CC490860CD4908608AE04FF405
:1037A0000041C44807F002FAE0B94FF48041C14833
:1037B00007F0FCF9012815D10821BF4807F0F6F9F8
:1037C00080B90421BC4807F0F1F958B90221BA4880
:1037D00007F0ECF930B90320B84908600420BC496F
:1037E000086067E04FF40041B24807F0DFF9E0B944
:1037F0004FF48041AF4807F0D9F9B0B90821AE487D
:1038000007F0D4F988B90421AB4807F0CFF90128B3
:103810000BD10221A84807F0C9F930B90420A74903
:1038200008604042AA49086044E04FF40041A148C2
:1038300007F0BCF901281AD181039E4807F0B6F9B8
:10384000A8B908219C4807F0B1F980B904219A4829
:1038500007F0ACF958B90221974807F0A7F930B939
:1038600004209649086008209949086022E04FF436
:103870000041904807F09AF9E0B94FF480418D4833
:1038800007F094F9B0B908218B4807F08FF988B98F
:103890000421894807F08AF960B90221864807F0B7
:1038A00085F9012806D10420844908606FF00700DB
:1038B0008749086010BD08B50121864808F0DFFC83
:1038C00001287CD184480068401C834908608348F3
:1038D0000068401C8149086081480068401C80499C
:1038E000086080480068401C7E4908607E48006887
:1038F000401C7D4908607D480068401C7B49086089
:103900007B480068401C7A490860744800680228B7
:103910007ED378480068642809D1FFEE001ABFEE14
:10392000001AFFEE000ABFEE000A01F0C7FB714863
:103930000068652809D1DFED701A9FED6F1ADFED81
:103940006E0A9FED6D0A01F0B9FB6A480068142801
:103950007ED16A4890ED000AF8EEC00A684890ED02
:10396000000AB8EEC00A674803F07CF966490860AF
:10397000664890ED000AF8EEC00A614890ED000A32
:10398000B8EEC00A5F4803F06DF96149086061480C
:1039900090ED000AF8EEC00A594890ED000AB8EE22
:1039A000C00A584803F05EF95B4908605B4890ED37
:1039B000000AF8EEC00A524890ED000A00E0FDE36C
:1039C000B8EEC00A4F4803F04DF955490860554814
:1039D000D0ED000A9FED480A534803F056FA5349C8
:1039E0000860534800683949096808444F49096824
:1039F00008444B490968401A02EE100AB8EEC22A80
:103A0000F0EE421A4A4800682F490968084400E06D
:103A1000FEE34649096808443F490968401A02EE36
:103A2000100AB8EEC22AB0EE421A41480068254991
:103A3000096808443D490968401A35490968401A2F
:103A400002EE100AB8EEC22AF0EE420A384800E050
:103A500011E000681A490968084434490968401AA5
:103A600029490968401A02EE100AB8EEC22AB0EEDF
:103A7000420A01F023FB1F48006815287ED11F4829
:103A800090ED000AF8EEC00A1D4890ED000AB8EE6D
:103A9000C00A1C4803F0E6F81B4908601B4890ED7B
:103AA000000AF8EEC00A164890ED000AB8EEC00A07
:103AB00014483FE000100240000802402C0500209E
:103AC000D0050020D4050020D8050020DC0500200A
:103AD000CC05002000140040040600200806002049
:103AE0000C060020100600201406002018060020F6
:103AF0001C060020AC05002000000000300600205D
:103B000000060020940D0020F0050020340600205F
:103B1000F405002038060020F80500203C060020AF
:103B2000FC050020DC040020740E0020E0050020CD
:103B3000EC05002003F096F8FE490860FE4890ED81
:103B4000000AF8EEC00AFD4890ED000AB8EEC00A7F
:103B5000FB4803F087F8FB490860FB4890ED000A3A
:103B6000F8EEC00AF54890ED000AB8EEC00AF44835
:103B700003F078F8F5490860F54800E048E000688F
:103B8000404200EE900AF8EEE00AB0EE600AF1481A
:103B9000D0ED000AF04803F078F9F0490860F048E9
:103BA000006809680844E9490968401A02EE100AE9
:103BB000B8EEC22AF0EE421AE9480068E7490968FF
:103BC0000844E0490968401A02EE100AB8EEC22A19
:103BD000B0EE421AE2480068E0490968401AD54947
:103BE0000968401A02EE100AB8EEC22AF0EE420A44
:103BF000DB480068D9490968401ADA490968401A5F
:103C000002EE100AB8EEC22AB0EE420A01F056FAED
:103C1000D548006816287DD1D44890ED000AF8EE0A
:103C2000C00AC64890ED000AB8EEC00AC44803F0C6
:103C300019F8CC490860CE4890ED000AF8EEC00AA9
:103C4000BE4890ED000AB8EEC00ABD4803F00AF87D
:103C5000B8490860B84890ED000AF8EEC00AB748C5
:103C600090ED000AB8EEC00AB54802F0FBFFB54976
:103C70000860B54890ED000AF8EEC00AAF4890ED34
:103C8000000AB8EEC00AAE4802F0ECFFAF49086087
:103C9000AF480068C0F15A0000EE900AF8EEE00A62
:103CA000B0EE600AAB48D0ED000AAB4803F0EDF887
:103CB000AA490860AA480068AE4909680844A749AB
:103CC00009680844A1490968401A02EE100AB8EED2
:103CD000C22AF0EE421AA2480068A74909680844BF
:103CE0009E490968084497490968401A02EE100A7B
:103CF000B8EEC22AB0EE421A994800689F49096896
:103D0000084496490968401A8A490968401A02EE2F
:103D1000100A00E016E0B8EEC22AF0EE420A90481F
:103D200000689749096808448C490968401A8D4918
:103D30000968401A02EE100AB8EEC22AB0EE420A32
:103D400001F0BCF98848006817287CD1874890EDBD
:103D5000000AF8EEC00A794890ED000AB8EEC00AF1
:103D6000774802F07FFF7F490860814890ED000AA4
:103D7000F8EEC00A714890ED000AB8EEC00A70482B
:103D800002F070FF6B4908606B4890ED000AF8EE96
:103D9000C00A6A4890ED000AB8EEC00A684802F00E
:103DA00061FF68490860684890ED000AF8EEC00AB3
:103DB000624890ED000AB8EEC00A614802F052FF76
:103DC00062490860624800686FF05901081A00EE05
:103DD000900AF8EEE00AB0EE600A5E48D0ED000A04
:103DE0005D4803F052F85D4908605D48006861492C
:103DF0000968084459490968084454490968401A3F
:103E000002EE100AB8EEC22AF0EE421A54480068D8
:103E100059490968084451490968084449490968E9
:103E2000401A02EE100AB8EEC22AB0EE421A4C480E
:103E3000006852490968084448490968401A3D49E0
:103E40000968401A00E018E002EE100AB8EEC22A33
:103E5000F0EE420A424800684949096808443F496F
:103E60000968401A3F490968401A02EE100AB8EE84
:103E7000C22AB0EE420A01F021F93B480068182836
:103E800056D13A4890ED000AF8EEC00A2B4890ED62
:103E9000000AB8EEC00A2A4802F0E4FE3149086080
:103EA000334890ED000AF8EEC00A244890ED000A6D
:103EB000B8EEC00A224802F0D5FE1E4908601E482E
:103EC00090ED000AF8EEC00A1C4890ED000AB8EE2A
:103ED000C00A1B4802F0C6FE1A4908601A4890ED55
:103EE000000AF8EEC00A154890ED000AB8EEC00AC4
:103EF000134802F0B7FE154908601648D0ED000AD5
:103F00009FED200A144802F0C0FF144908601448CD
:103F100000684042096808440C490968401A02EEEA
:103F2000100AB8EEC22AF0EE421A0D4800682BE0E3
:103F300057E00000F40500203806002000060020AD
:103F4000940D0020F80500203C060020FC05002010
:103F5000CC050020DC040020740E0020E0050020C9
:103F6000EC050020F0050020AC0500203006002004
:103F700034060020DC050020D8050020D4050020F0
:103F8000D00500200000B4424042FD4909680844C1
:103F9000FC490968401A02EE100AB8EEC22AB0EED7
:103FA000421AF94800684042F5490968401AF74941
:103FB0000968401A02EE100AB8EEC22AF0EE420A70
:103FC000F14800684042EE490968401AF049096822
:103FD000401A02EE100AB8EEC22AB0EE420A01F010
:103FE0006DF8EC48006819286BD1EB4890ED000A99
:103FF000B5EEC00AF1EE10FA08D290ED000ADFED3E
:10400000E70A30EE200AE64880ED000AE24890ED2B
:10401000000AB5EEC00AF1EE10FA08DB90ED000AD6
:10402000DFEDDE0A30EE600ADD4880ED000ADD4893
:104030000068404200EE900AF8EEE00AB0EE600A36
:10404000D748D0ED000AD84802F01FFFCC490860DD
:10405000CD48006809680844D4490968401A02EE4E
:10406000100AB8EEC22AF0EE421AC7480068C449E6
:1040700009680844C3490968401A02EE100AB8EEFC
:10408000C22AB0EE421AC0480068BD490968401A09
:10409000BE490968401A02EE100AB8EEC22AF0EED4
:1040A000420AB9480068B6490968401AB84909681F
:1040B000401A02EE100AB8EEC22AB0EE420A00F030
:1040C000FDFFB44800681A2879D1B94890ED000A7C
:1040D000F8EEC00AB74890ED000AB8EEC00AB6483C
:1040E00002F0C0FDAA490860B44890ED000AF8EE5D
:1040F000C00AB04890ED000AB8EEC00AAE4802F01F
:10410000B1FDA2490860AE4890ED000AF8EEC00A81
:10411000A84890ED000AB8EEC00AA74802F0A2FD38
:1041200098490860A74890ED000AF8EEC00AA14837
:1041300090ED000AB8EEC00A9F4802F093FD9B493B
:1041400008609548D0ED000A9FED9F0A964802F05E
:104150009CFE8B4908608C4800684042096808440E
:1041600092490968401A02EE100AB8EEC22AF0EE2F
:10417000421A8548006840428149096808448149DB
:104180000968401A02EE100AB8EEC22AB0EE421ACE
:104190007D48006840427A490968401A7B490968AD
:1041A000401A02EE100AB8EEC22AF0EE420A764831
:1041B0000068404272490968401A01E099E30AE048
:1041C00073490968401A02EE100AB8EEC22AB0EE2E
:1041D000420A00F073FF6F4800681B286DD16E48DB
:1041E00090ED000AB5EEC00AF1EE10FA08D290ED9B
:1041F000000ADFED6A0A30EE200A694880ED000A05
:10420000654890ED000AB5EEC00AF1EE10FA00E044
:1042100061E208DB90ED000ADFED600A30EE600A33
:104220005F4880ED000A5F480068404200EE900A57
:10423000F8EEE00AB0EE600A5948D0ED000A5A489C
:1042400002F023FE4E4908604F48006809680844A0
:1042500056490968401A02EE100AB8EEC22AF0EE7A
:10426000421A4948006846490968084445490968AE
:10427000401A02EE100AB8EEC22AB0EE421A4248C4
:1042800000683F490968401A40490968401A02EE2F
:10429000100AB8EEC22AF0EE420A3B4800683849DC
:1042A0000968401A3A490968401A02EE100AB8EE45
:1042B000C22AB0EE420A00F001FF364800681C280E
:1042C0005DD1354890ED000AB5EEC00AF1EE10FA66
:1042D00008D290ED000ADFED310A30EE200A3048B6
:1042E00080ED000A2C4890ED000AB5EEC00AF1EE10
:1042F00010FA08DB90ED000ADFED280A30EE600AC4
:10430000274880ED000A27480068404200EE900AE6
:10431000F8EEE00AB0EE600A2148D0ED000A22482B
:1043200002F0B3FD1649086017480068404209686A
:1043300008441E490968401A02EE100AB8EEC22A63
:10434000F0EE421A1048006840420D4909680844DE
:104350000C490968401A02EE100AB8EEC22AB0EE03
:10436000421A09480068404205490968401A07494D
:104370000968401A02EE100AB8EEC22A26E038E0B8
:10438000E0050020F8050020EC050020F4050020E1
:10439000F0050020AC050020DC04002000003443C0
:1043A000E0040020CC050020740E0020FC05002055
:1043B0003006002000060020940D00203406002066
:1043C000380600203C0600200000B4C2F0EE420A8D
:1043D000FE4800684042FE490968401AFD490968E4
:1043E000401A02EE100AB8EEC22AB0EE420A00F0FD
:1043F00065FEF94800681D284DD1F8480068404224
:1044000000EE900AF8EEE00AB0EE600AF448D0ED53
:10441000000AF44802F039FDED490860EB480068F5
:10442000404209680844F0490968401A02EE100A3F
:10443000B8EEC22AF0EE421AE44800684042E4496D
:1044400009680844E9490968401A02EE100AB8EE02
:10445000C22AB0EE421ADD4800684042DC490968D1
:10446000401AE3490968401A02EE100AB8EEC22A5F
:10447000F0EE420AD54800684042D5490968401A22
:10448000D4490968401A02EE100AB8EEC22AB0EE0A
:10449000420A00F013FED0480068292846D1D048CF
:1044A000D0ED000A9FEDD30ACE4802F0EEFCC849D9
:1044B0000860C6480068404209680844CA4909685B
:1044C000401A02EE100AB8EEC22AF0EE421ABF48B5
:1044D00000684042BE4909680844C4490968401A56
:1044E00002EE100AB8EEC22AB0EE421AB7480068CF
:1044F0004042B7490968401ABD490968401A02EEAE
:10450000100AB8EEC22AF0EE420AB04800684042F3
:10451000AF490968401AAF490968401A02EE100A0B
:10452000B8EEC22AB0EE420A00F0C8FDAA48006800
:104530001F2809D1AA48D0ED000A9FEDAF0AAF4865
:1045400002F0A3FCAE490860A3480068202809D106
:10455000A348D0ED000A1FED640AA84802F095FCBC
:10456000A74908609C480068222809D19C48D0EDE2
:10457000000A9FEDA40AA14802F087FCA049086048
:1045800095480068232809D19548D0ED000A1FED11
:104590007D0A9A4802F079FC994908608E480068C3
:1045A000242809D18E48D0ED000A9FED960A934841
:1045B00002F06BFC9249086087480068252809D101
:1045C0008748D0ED000A1FED8B0A8C4802F05DFC95
:1045D0008B49086080480068262809D18048D0EDC2
:1045E000000A1FED870A854802F04FFC84490860E5
:1045F00079480068272809D17948D0ED000A9FED55
:10460000810A7E4802F041FC7D49086072480068DA
:10461000332809D17248D0ED000A9FED7A0A774815
:1046200002F033FC764908606B480068342809D1F1
:104630006B48D0ED000A1FED9C0A704802F025FC83
:104640006F49086064480068352809D16448D0ED96
:10465000000A9FED680A694802F017FC6849086083
:104660005D480068362809D15D48D0ED000A1FED8D
:10467000B50A624802F009FC6149086056480068C2
:10468000372809D15648D0ED000A9FED5A0A5B48F9
:1046900002F0FBFB5A4908604F480068382809D1EE
:1046A0004F48D0ED000A9FED570A544802F0EDFB49
:1046B0005349086048480068392809D14848D0ED76
:1046C000000A9FED4D0A4D4802F0DFFB4C4908609F
:1046D00000204D4908604D48006802280FD30C2087
:1046E00003231A4600903E4890ED000A0021322034
:1046F000FDF754FDFDF773FB002044490860444872
:104700000068022807D3364A424943480CF026F98C
:1047100000203F49086041480068052804D3FEF79F
:10472000C6FF00203D4908603D4800680A282BD399
:1047300000F0CEFA3B4800683B4909680844394913
:1047400008603A4800683A490968084437490860EF
:1047500038480068384909680844364908603748CD
:1047600000683749096808443449086047F2305006
:104770004FF080414862334908603349086033494B
:1047800008600020264908603148006802281CD3D0
:104790000121304806F00AFA28B92F48006801289C
:1047A00001D12E49086001212A4806F0FFF90128AD
:1047B00008D129480068022804D12849086003204C
:1047C0002549086000202249086049E0EC050020E6
:1047D000E0050020F0050020AC050020CC050020FD
:1047E000DC040020740E0020FC050020F8050020E9
:1047F000F4050020000000000000B442AC0E0020D0
:10480000C0050020000034C3080600200406002074
:1048100010060020D8040020D40400200C0600203C
:1048200014060020B005002030060020B40500204A
:1048300034060020B805002038060020BC05002002
:104840003C060020240400402408004024040140C9
:104850001806002000080240E8050020E4050020BA
:10486000244800680A2840D32348006801281AD148
:10487000224805F028FC0C2000902048007800EE2B
:10488000900AF8EE600AB0EE600A03231A4600218F
:104890003220FDF783FC0C2319A200210846FDF706
:1048A00015FCFDF79CFA1448006802281AD1164836
:1048B00005F039FC0C2000901348007800EE900AB7
:1048C000F8EE600AB0EE600A03231A460021322097
:1048D000FDF764FC0C230DA200210846FDF7F6FB52
:1048E000FDF77DFA0020034908600121094807F01F
:1048F000D7FC08BD1C0600207800002074000020B2
:104900005478204F4B000000750000205278204F53
:104910004B000000001400404FF08040406AFE4908
:104920000860084600687047FC480068FA4948601B
:10493000084640687047FA480068F74988600846AA
:1049400080687047F7480068F349C8600846C06847
:10495000704700B5FFF7E0FFF3490860FFF7E4FF99
:10496000F2490860FFF7E7FFF1490860FFF7EAFF47
:10497000F049086000BD1FB50121102006F09BFB27
:1049800040F2E73002905320ADF804000020ADF86B
:104990000C00ADF806008DF80E0001A9E64806F0FF
:1049A000B6FF0121E44807F067FC01221146E24806
:1049B00007F04EFC36208DF8000002208DF8010033
:1049C00003208DF8020001208DF80300684605F0F1
:1049D0009AFF0121D84807F023F81FBD30B589B0F0
:1049E00004460D460121084606F065FB01210846F4
:1049F00006F018FB01220021D04806F000F9012240
:104A00001146CE4806F0FBF80320019002208DF8F5
:104A1000080001208DF80B0001A9C84806F064F8D1
:104A2000ADF8185007940020ADF81A00ADF8180042
:104A30004FF6FF7007900020ADF8200006A94FF058
:104A4000804006F064FF00231A4603214FF08040A7
:104A500007F0D1FC03A807F068FB0620ADF81400AE
:104A600003A94FF0804007F029FB0121880707F0D8
:104A700003FC01221146900707F0EAFB47F2305190
:104A80004FF0804006F08CFF0121880706F0C8FF38
:104A900009B030BD30B589B004460D460121022071
:104AA00006F009FB0121084606F0BCFA02220621A5
:104AB000A24806F0A4F802220721A04806F09FF8B9
:104AC000C020019002208DF8080001208DF80B0015
:104AD00001A99A4806F008F8ADF81850079400208C
:104AE000ADF81A00ADF818004FF6FF7007900020DF
:104AF000ADF8200006A98948243806F008FF0023F5
:104B00001A4603218548243807F075FC03A807F0EE
:104B10000CFB0620ADF8140003A98048243807F0E8
:104B2000CDFA01217D48243807F0A6FB0122114669
:104B30007A48243807F08CFB47F230517748243804
:104B400006F02EFF01217548243806F069FF09B0F0
:104B500030BD30B589B004460D460121042006F071
:104B6000AAFA0121082006F05DFA02220C217448FD
:104B700006F045F802220D21714806F040F84FF486
:104B80004050019002208DF8080001208DF80B00A4
:104B900001A96B4805F0A8FFADF818500794002054
:104BA000ADF81A00ADF818004FF6FF70079000201E
:104BB000ADF8200006A95A48243806F0A8FE0023C4
:104BC0001A4603215648243807F015FC03A807F0BD
:104BD000ACFA0620ADF8140003A95148243807F0B8
:104BE0006DFA01214E48243807F046FB0122114698
:104BF0004B48243807F02CFB47F230514848243802
:104C000006F0CEFE01214648243806F009FF09B01F
:104C100030BD30B589B004460D460121022006F0B2
:104C20005BFA0121042006F0FDF903220621454824
:104C300005F0E5FF03220721424805F0E0FFC02010
:104C4000019002208DF8080001208DF80B0001A9C9
:104C50003C4805F049FFADF8185007940020ADF826
:104C60001A00ADF818004FF6FF7007900020ADF85D
:104C7000200006A92B48243806F049FE00231A46D6
:104C800003212848243807F0B6FB03A807F04DFAA3
:104C90000620ADF8140003A92248243807F00EFAC4
:104CA00001212048243807F0E7FA012211461D4867
:104CB000243807F0CDFA47F230511A48243806F06C
:104CC0006FFE01211748243806F0AAFE09B030BD56
:104CD00000B5FFF73EFE14480068A0F5EA40303802
:104CE0001949086012480068A0F5EA4030381749B1
:104CF00008600E480068A0F5EA40303814490860A2
:104D00000C480068A0F5EA403038124908600E48A7
:104D10000068002825DB1FE0140D0020240400405B
:104D2000240800402404014020060020280600201A
:104D3000240600202C060020001000400000024045
:104D4000000C024000080240300600203806002017
:104D5000340600203C0600202248006821490860F3
:104D600008E020480068002804DA1E480068404235
:104D70001C4908601C480068002804DB1A480068C9
:104D80001949086008E018480068002804DA164845
:104D9000006840421449086014480068002804DB99
:104DA000124800681149086008E0104800680028AF
:104DB00004DA0E48006840420C4908600C4800685C
:104DC000002804DB0A4800680949086008E0084830
:104DD0000068002804DA0648006840420449086078
:104DE00000BD0000300600203406002038060020F8
:104DF0003C0600201CB50121042006F013F9012116
:104E0000102006F00FF94FF44040009000208DF87C
:104E100004008DF8060003208DF8050001208DF8B0
:104E200007006946164805F05FFE0E20009000203E
:104E30008DF804008DF8060003208DF80500012090
:104E40008DF8070069460F4805F04EFE1CBD10B5F1
:104E500004210C4805F0AAFE02210A4805F0A6FE2E
:104E60000821084805F0A2FE4FF40041044805F06F
:104E70009DFE4FF48041024805F098FE10BD0000F1
:104E800000100240000802401CB50121102006F06D
:104E9000C9F84FF44070009001208DF80400002004
:104EA0008DF8060003208DF8050001208DF807001D
:104EB0006946FE4805F018FE0121022006F0B2F80E
:104EC0004FF44060009001208DF8040000208DF820
:104ED000060003208DF8050001208DF807006946C3
:104EE000F34805F001FE0121084606F09BF84FF457
:104EF0001040009001208DF8040000208DF806007D
:104F000003208DF8050001208DF807006946E94867
:104F100005F0EAFD0121082006F084F84FF4406016
:104F2000009001208DF8040000208DF80600032079
:104F30008DF8050001208DF807006946DE4805F070
:104F4000D3FD1CBD10B50446002C0EDD4FF480715E
:104F5000D64805F045FE4FF40071D44805F042FEF6
:104F60002146D64806F0C1FE1AE0002C0EDA4FF4B6
:104F70008071CE4805F036FE4FF40071CB4805F045
:104F80002FFE6142CD4806F0B0FE09E04FF480717B
:104F9000C64805F027FE4FF40071C44805F022FE14
:104FA00010BD10B50446002C0EDD4FF48051C148F1
:104FB00005F016FE4FF40041BE4805F013FE2146F1
:104FC000BE4806F094FE1AE0002C0EDA4FF40041C1
:104FD000B84805F005FE4FF48051B64805F002FED2
:104FE0006142B64806F083FE09E04FF48051B148B3
:104FF00005F0F8FD4FF40041AE4805F0F3FD10BD9B
:1050000010B50446002C0EDD4FF40061A84805F0F1
:10501000E9FD4FF48061A64805F0E2FD2146A7486E
:1050200006F067FE1AE0002C0EDA4FF40061A0488B
:1050300005F0D6FD4FF480619D4805F0D3FD614237
:105040009E4806F056FE09E04FF48061984805F04E
:10505000C9FD4FF40061964805F0C4FD10BD10B5C0
:105060000446002C0EDD4FF48061934805F0BAFD34
:105070004FF40061904805F0B3FD21468F4806F0DB
:105080003AFE1AE0002C0EDA4FF480618A4805F0EF
:10509000A7FD4FF40061884805F0A4FD61428748F0
:1050A00006F029FE09E04FF40061834805F09AFDFF
:1050B0004FF48061804805F095FD10BD10B52DEDD1
:1050C000048BB0EE408AF0EE608AB0EE419AF0EECA
:1050D000619ABDEEC80A10EE100AFFF733FFBDEE6D
:1050E000E80A10EE100AFFF75CFFBDEEC90A10EEE9
:1050F000100AFFF785FFBDEEE90A10EE100AFFF770
:10510000AEFFBDEC048B10BD00206D4908607047F8
:1051100010B517E0DFED6B1A9FED6A1ADFED6A0A32
:105120009FED690AFFF7CAFF684890ED000ADFEDBE
:10513000680AB4EEE00AF1EE10FA03D8642065497B
:10514000086000E0E6E700BF10BD10B52DED068B4E
:105150009FED610A614880ED060A9FED5F0A604895
:1051600080ED060A5DE056480068002854D1574893
:1051700090ED000ADFED5B0AB4EEE00AF1EE10FA02
:105180003AD81F20534908605748006814F0E0FEE1
:1051900041EC1A0B9FED550B53EC102B14F0BCFD9A
:1051A00041EC190B14F08EFF08EE100A4E4800680F
:1051B00014F0CEFE41EC1A0B9FED4C0B53EC102B70
:1051C00014F0AAFD41EC190B14F07CFF08EE900AD4
:1051D000F0EE481AB0EE681A43480068404200EE0C
:1051E000100AF8EEC00A40480068404200EE100A7B
:1051F000B8EEC00AFFF762FF344890ED000ADFED19
:10520000390AB4EEE00AF1EE10FA05DD6420314906
:10521000086001202A49086029480068012800D157
:1052200000E0A0E700BFBDEC068B10BD10B52DED72
:10523000068B9FED290A294880ED060A9FED260A74
:10524000274880ED060A90E01D48006800287DD1BF
:105250001E4890ED000ADFED270AB4EEE00AF1EEF9
:1052600010FA6DD890ED000AB5EEC00AF1EE10FA12
:1052700066DD2520174908601B48006814F068FEA9
:1052800041EC1A0B9FED190B53EC102B14F044FD5D
:1052900041EC190B14F016FF08EE100A12480068D2
:1052A00014F056FE41EC1A0B26E0000000100240FC
:1052B0000004024000000240000C024000000140D7
:1052C0005006002000803B4500A08CC5DC04002077
:1052D0000000AAC2AC05002000000000740E0020EF
:1052E000AC0E00200000B442C00500200000000009
:1052F0000000F83F000034431FED040B53EC102B6B
:1053000014F00AFD41EC190B14F0DCFE08EE900AD3
:10531000FB480068404201EE100AB8EEC11AF0EEF8
:10532000410AF7480068404201EE100AB8EEC11A7F
:10533000B0EE410AF0EE481AB0EE681AFFF7BEFE72
:10534000F04890ED000AB5EEC00A00E008E0F1EE8A
:1053500010FA05D26420EC4908600120EB4908608E
:10536000EA480068012800D100E06DE700BFBDEC0D
:10537000068B10BD10B52DED068B1FED290AE448F4
:1053800080ED060A1FED2C0AE24880ED060A59E07E
:10539000DE480068F0BBDB4890ED000AB5EEC00ABD
:1053A000F1EE10FA3BDB3320D7490860D44800689F
:1053B00014F0CEFD41EC1A0B9FEDD70B53EC102BE4
:1053C00014F0AAFC41EC190B14F07CFE08EE100A54
:1053D000CB48006814F0BCFD41EC1A0B9FEDCE0BDE
:1053E00053EC102B14F098FC41EC190B14F06AFEEE
:1053F00008EE900AC24890ED000AB8EEC00AF0EE3E
:10540000401A90ED000AB8EEC00AB0EE401AF0EE75
:10541000480A00E011E0B0EE680AFFF74FFEB94815
:1054200090ED000AB5EEC00AF1EE10FA05D2642044
:10543000B54908600120B5490860B44800680128F2
:1054400000D100E0A4E700BFBDEC068B10BD10B595
:105450002DED068B1FED600AAD4880ED060A1FEDAD
:10546000620AAC4880ED060A62E0A848006800289D
:1054700059D1A44890ED000A5FED620AB4EEE00A4B
:10548000F1EE10FA41D890ED000AB5EEC00AF1EE47
:1054900010FA3ADD23209C4908609948006814F00E
:1054A00057FD41EC1A0B1FED6F0B53EC102B14F052
:1054B00033FC41EC190B14F005FE08EE100A90487D
:1054C000006814F045FD41EC1A0B1FED780B53EC0E
:1054D000102B14F021FC41EC190B14F0F3FD08EE35
:1054E000900AF0EE481AB0EE681A8548006840420B
:1054F00000EE100AF8EEC00A81480068404200EE53
:10550000100AB8EEC00AFFF7D9FD7E4890ED000AF8
:10551000B5EEC00AF1EE10FA05D264207A490860AF
:1055200001207A49086079480068012800D100E02C
:105530009BE700BFBDEC068B10BD10B52DED068BB3
:105540001FED9B0A724880ED060A1FED9D0A714807
:1055500080ED060A5CE06D480068002853D1694878
:1055600090ED000ADFED6E0AB4EEE00AF1EE10FAFB
:1055700039DD2020644908606148006814F0E8FCC7
:1055800041EC1A0B9FED640B53EC102B14F0C4FB91
:1055900041EC190B14F096FD08EE100A584800680B
:1055A00014F0D6FC41EC1A0B9FED5B0B53EC102B67
:1055B00014F0B2FB41EC190B14F084FD08EE900AD4
:1055C0004F4890ED000AB8EEC00AF0EE401A90ED98
:1055D000000AB8EEC00AB0EE401AF0EE480AB0EE8B
:1055E000680AFFF76BFD474890ED000ADFED4C0AB3
:1055F000B4EEE00AF1EE10FA05D8642042490860E2
:1056000001204249086041480068012800D100E0BB
:10561000A1E700BFBDEC068B10BD10B52DED068BCC
:105620001FEDD30A3A4880ED060A1FEDD50A394826
:1056300080ED060A65203449086075E0334800684B
:10564000002858D12F4890ED000ADFED360AB4EE5D
:10565000E00AF1EE10FA40DD90ED000AB5EEC00A66
:10566000F1EE10FA39D82220274908602448006852
:1056700014F06EFC41EC1A0B9FED270B53EC102B32
:1056800014F04AFB41EC190B14F01CFD08EE100A53
:105690001B48006814F05CFC41EC1A0B9FED1E0BDC
:1056A00053EC102B14F038FB41EC190B14F00AFDED
:1056B00008EE900A124890ED000AB8EEC00AF0EE2B
:1056C000401A90ED000AB8EEC00AB0EE401AF0EEB3
:1056D000480AB0EE680AFFF7F1FC0A4890ED000AAC
:1056E000B5EEC00AF1EE10FA05DD64200649086047
:1056F00001200649086005480068012814D114E01B
:10570000C0050020DC040020AC050020500600206D
:10571000740E0020AC0E0020000000000000F8BF56
:105720000000B4C2000034C388E700BFBDEC068BA4
:1057300010BD10B52DED068B41F28830FE49086092
:10574000652008606FE0FD4890ED000AB5EEC00AE4
:10575000F1EE10FA09DDDFEDFA1A9FEDF91ADFED2F
:10576000F90A9FEDF80AFFF7A9FCF44890ED000A4A
:105770005FED150AB4EEE00AF1EE10FA3ED22620F3
:10578000ED490860F048006814F0E2FB41EC1A0BA8
:105790009FEDEE0B53EC102B14F0BEFA41EC190BFD
:1057A00014F090FC08EE100AE748006814F0D0FBF3
:1057B00041EC1A0B9FEDE50B53EC102B14F0ACFAF7
:1057C00041EC190B14F07EFC08EE900ADE480068EC
:1057D000404201EE100AB8EEC11AF0EE410ADA4872
:1057E0000068404201EE100AB8EEC11AB0EE410A5C
:1057F000F0EE481AB0EE681AFFF760FCCF4890ED63
:10580000000A5FED390AB4EEE00AF1EE10FA0ADBA5
:1058100090ED000AB5EEC00AF1EE10FA03D2642052
:10582000C549086000E08EE700BFBDEC068B10BDE7
:1058300010B52DED068B9FEDC70AC74880ED060A0F
:105840009FEDC40AC54880ED060A6520BA49086084
:105850005BE0C3480068E0BBB84890ED000A5FED2C
:105860004F0AB4EEE00AF1EE10FA3BDD2720B24910
:105870000860B548006814F06BFB41EC1A0B1FED93
:105880005A0B53EC102B14F047FA41EC190B14F09F
:1058900019FC08EE100AAC48006814F059FB41EC02
:1058A0001A0B1FED630B53EC102B14F035FA41EC7F
:1058B000190B14F007FC08EE900AA34890ED000ABB
:1058C000B8EEC00AF0EE401A90ED000AB8EEC00A39
:1058D00000E015E0B0EE401AF0EE480AB0EE680ABB
:1058E000FFF7ECFB954890ED000AB5EEC00AF1EE2B
:1058F00010FA05DD6420904908600120984908608D
:1059000097480068012800D100E0A2E700BFBDEC85
:10591000068B10BD10B52DED068B9FED8E0A8E48BF
:1059200080ED060A9FED8B0A8C4880ED060A652003
:10593000814908605CE08A480068002853D17F48AC
:1059400090ED000A5FED8A0AB4EEE00AF1EE10FA7B
:1059500039DB3420784908607B48006814F0F8FA95
:1059600041EC1A0B1FED940B53EC102B14F0D4F9EF
:1059700041EC190B14F0A6FB08EE100A72480068FF
:1059800014F0E6FA41EC1A0B1FED9D0B53EC102BB3
:1059900014F0C2F941EC190B14F094FB08EE900AD4
:1059A000694890ED000AB8EEC00AF0EE401A90ED9A
:1059B000000AB8EEC00AB0EE401AF0EE480AB0EEA7
:1059C000680AFFF77BFB5D4890ED000A5FEDAC0ACB
:1059D000B4EEE00AF1EE10FA05D2642056490860F0
:1059E00001205F4908605E480068012800D100E09E
:1059F000A1E700BFBDEC068B10BD10B52DED068BE9
:105A00009FED540A544880ED060A9FED520A534810
:105A100080ED060A65204849086059E05048006852
:105A2000002850D1454890ED000AB5EEC00AF1EECD
:105A300010FA3AD83520404908604348006814F00D
:105A400087FA41EC1A0B9FED410B53EC102B14F02D
:105A500063F941EC190B14F035FB08EE100A3A48D3
:105A6000006814F075FA41EC1A0B9FED380B53ECFB
:105A7000102B14F051F941EC190B14F023FB08EE34
:105A8000900AF0EE481AB0EE681A2F4800684042BB
:105A900000EE100AF8EEC00A2B480068404200EE03
:105AA000100AB8EEC00AFFF709FB244890ED000A7F
:105AB000B5EEC00AF1EE10FA05DD64201E4908605B
:105AC00001202749086026480068012800D100E02D
:105AD000A4E700BFBDEC068B10BD10B52DED088B03
